:020000040800F2
:1000000008500020E1020008793F0008C5030008FD
:10001000753F00080B240008C95D000800000000BF
:100020000000000000000000000000006553000810
:10003000552C0008000000004F03000889540008F8
:10004000FB020008FB020008FB020008FB0200089C
:10005000FB020008FB020008FB020008FB0200088C
:10006000FB020008FB020008FB020008FB0200087C
:10007000FB020008FB020008FB020008FB0200086C
:10008000FB020008FB020008FB020008FB0200085C
:10009000FB020008FB020008FB020008FB0200084C
:1000A000FB020008FB020008FB020008FB0200083C
:1000B000FB020008FB020008FB020008FB0200082C
:1000C000FB020008FB020008FB020008FB0200081C
:1000D000FB020008FB020008FB020008FB0200080C
:1000E000FB020008FB020008FB0200080000000001
:1000F0000000000000000000000000000000000000
:100100000000000000000000FB020008FB020008E5
:10011000055500081D550008FB020008FB020008F9
:10012000FB020008FB020008112400082924000833
:10013000FB020008892E0008FB020008FB020008F1
:10014000FB020008FB020008FB020008FB0200089B
:1001500000F002F800F0B5F80AA090E8000C824424
:100160008344AAF10107DA4501D100F0AAF8AFF201
:10017000090EBAE80F0013F0010F18BFFB1A43F085
:100180000103184720350200403502000A444FF0B1
:10019000000C10F8013B13F0070408BF10F8014BE6
:1001A0001D1108BF10F8015B641E05D010F8016B2B
:1001B000641E01F8016BF9D113F0080F1EBF10F88F
:1001C000014BAD1C0C1B09D16D1E58BF01F801CBB2
:1001D000FAD505E014F8016B01F8016B6D1EF9D535
:1001E0009142D6D37047000000230024002500264A
:1001F000103A28BF78C1FBD8520728BF30C148BF8A
:100200000B6070476E2901F05482702901F07D83E4
:10021000662921F07785652921F07485672921F009
:100220007185612921F0708503681B0A28BF41F0A0
:100230008001692900F01481642900F01181752979
:1002400000F00E816F2901F00B83782901F04983BA
:10025000E92901F0A582E42901F0A282F52901F043
:100260009F82EF2901F00883F82901F04883036891
:10027000DB0928BF41F08001632900F04987732919
:1002800000F04E87E32901F0D984F32901F0DE84E0
:10029000002070471FB500F0EFFF04000020002190
:1002A00021F004FD401C60600020002121F0E8FCEA
:1002B000E0600020002121F00FFD20611FBD10B57E
:1002C00010BD01F06DF91146FFF7E4FF12F0FEF9E1
:1002D00001F0B0F903B4FFF7F2FF03BC01F020FB1B
:1002E0000948804709480047FEE7FEE7FEE7FEE7CA
:1002F000FEE7FEE7FEE7FEE7FEE7FEE70448054906
:10030000054A064B70470000995400085101000847
:10031000084A002008500020084C0020084C00200B
:10032000EFF3108072B6704780F310887047314A3F
:100330001368012B04D04FF0010313602E4A1060A4
:100340002E4A11602E484FF0805101607047EFF344
:10035000108272B62748016891B14FF00001016028
:100360002548016829B1EFF3098121E9F00F006800
:100370000160224909680968B1E8F00F81F3098832
:1003800082F310884EF0040E70471C4908601A4929
:100390004FF00000086017494FF00100086019484D
:1003A0004FF47F01D0F8002041EA020101601448B7
:1003B0004FF08051016014480068006880F308889D
:1003C00062B670471EF0040F14BFEFF30880EFF31E
:1003D000098020E9F00F40F804ED14BF80F308888D
:1003E00080F3098800B516F0F9FC5DF804EB4EF0D7
:1003F000040E7047A0010020980100209C010020FD
:1004000004ED00E020ED00E008ED00E070B50C46E2
:100410000546012A05D02878800600D5EA69002320
:1004200002E0012305E05B1C934202D2E05C00285D
:10043000F9D1A869E618C01AA861286A1844286288
:10044000284601F0FDF804E0D5E9012114F8010B7C
:100450009047B442F8D3284601F008F970BD000077
:100460002DE9F0410646002410687529314616A58D
:1004700010D001F00CF9002802DA404213A507E081
:1004800031688A0701D512A502E0490704D511A5F4
:10049000012401E001F004F900210A2206F12407F9
:1004A00009E0B0FBF2FCB0FBF2F302FB1C003030C1
:1004B00078541846491C0028F3D123462A46304672
:1004C000BDE8F04100F0B4BB000000002D000000CA
:1004D0002B000000200000002DE9F05F8946044653
:1004E0004FF0000ADFF874B1FB44C0F820A02046AA
:1004F000E1688847002874D0252806D0D4E9012176
:100500009047206A401C2062F1E700265F462046A3
:10051000E16888472028054607DB312D05D2781988
:1005200010F8200C08B10643F1E7B00701D526F01A
:100530000406C4F81CA00027C4F818A02A2D09D06E
:10054000284605F095FC38B304EB8708303DC8F821
:10055000185019E059F8041B204604EB87029161FA
:10056000E1688847012F054618D1E069002820DAA4
:1005700026F020061DE0D8F8180000EB800005EBFF
:1005800040003038C8F818002046E1688847054622
:1005900005F06EFC0028EED1012F0AD02E2D08D1D7
:1005A0002046E16888477F1C0546022F46F020065A
:1005B000C4DBA069002803DA404246F00106A061CE
:1005C000F00701D026F010066C2D0BD0682D09D055
:1005D0004C2D39D06A2D35D0742D35D07A2D33D0AD
:1005E00016E038E0E1682F4620468847B8420546C5
:1005F00009D16C2F26D04FF48060E1680643204675
:100600008847054604E06C2F1AD04FF480700643EB
:100610000DB3A5F14100192802D8203546F4006633
:100620004A462946204626604E46FFF7EBFD80B13C
:1006300001280BD0F61D26F0070000F1080956E747
:100640004020E4E78020D8E70020D6E706F104093F
:100650004DE7284652E7206ABDE8F09F0F260200CA
:1006600070B5064600F0E0FA0468054630460A22F6
:10067000002100F059FD2C6070BD40EA010310B567
:100680009B070FD1042A0DD310C808C9121F9C4222
:10069000F8D020BA19BA884201D9012010BD4FF014
:1006A000FF3010BD1AB1D30703D0521C07E0002061
:1006B00010BD10F8013B11F8014B1B1B07D110F8BE
:1006C000013B11F8014B1B1B01D1921EF1D11846C1
:1006D00010BD40EA0103024630B59B0710D14FF030
:1006E000013400E008C208C91D1B9D4315EAC41F60
:1006F000F8D013F0FF0102F8011B0DD01B0AF8E738
:1007000011F8013B002B02F8013B05D011F8013B29
:10071000002B02F8013BF3D130BD0022CBB210F820
:10072000011B994200D1421E0029F8D110467047A2
:1007300010B5431C02E010F8011B71B18107FAD11A
:100740004FF0013202C88C1A8C4314EAC211F9D05E
:10075000C01A0A0603D0C01E10BDC01A10BD0A047C
:1007600001D0801E10BD0902FCD0401E10BD40EA21
:10077000010370B59B072ED14FF00136042A2AD30E
:1007800008C810C99D1B9D43121F15EAC61517D036
:10079000D8B2E1B2401A50EA056110D198B2A1B2C4
:1007A000401A50EA05410AD123F07F4024F07F41EE
:1007B000401A50EA052102D1180EA0EB146070BD5A
:1007C000A342DBD018BA21BA884201D9012070BDFA
:1007D0004FF0FF3070BD0AB9002070BD10F8013B2A
:1007E00011F8014B63B1A3420AD1521E08D010F890
:1007F000013B11F8014B1BB1A34201D1521EEDD1B7
:10080000181B70BD032A40F2308010F0030C00F07A
:10081000158011F8013BBCF1020F624498BF11F83A
:1008200001CB00F8013B38BF11F8013BA2F10402F3
:1008300098BF00F801CB38BF00F8013B11F003036B
:1008400000F02580083AC0F0088051F8043B083ACF
:1008500051F804CBA0E80810F5E7121D5CBF51F871
:10086000043B40F8043BAFF30080D20724BF11F8EB
:10087000013B11F801CB48BF11F8012B24BF00F850
:10088000013B00F801CB48BF00F8012B704710B5C1
:10089000203AC0F00B80B1E81850203AA0E8185078
:1008A000B1E81850A0E81850BFF4F5AF5FEA027C39
:1008B00024BFB1E81850A0E8185044BF18C918C0A8
:1008C000BDE810405FEA827C24BF51F8043B40F849
:1008D000043B08BF7047D20728BF31F8023B48BF2E
:1008E00011F8012B28BF20F8023B48BF00F8012B6C
:1008F00070474FF000020429C0F0128010F0030C82
:1009000000F01B80CCF1040CBCF1020F18BF00F802
:10091000012BA8BF20F8022BA1EB0C0100F00DB8B1
:100920005FEAC17C24BF00F8012B00F8012B48BF0F
:1009300000F8012B70474FF0000200B513469446B3
:100940009646203922BFA0E80C50A0E80C50B1F127
:100950002001BFF4F7AF090728BFA0E80C5048BF3B
:100960000CC05DF804EB890028BF40F8042B08BFD9
:10097000704748BF20F8022B11F0804F18BF00F8D5
:10098000012B704710B5044610F0030F08BF11F09B
:10099000030F40F015804FF0013E121FC0F20E8091
:1009A00051F8043BA3EB0E0C2CEA030C1CEACE1C02
:1009B00008BF40F8043BF0D0A1F1040102F10402A9
:1009C000521E08DB11F8013B002B00F8013BF7D168
:1009D0001146FFF78EFF204610BD00004FF0013C8E
:1009E00050F8042B51F8043B9A4221D1A2EB0C039E
:1009F000934313EACC1317D150F8042B51F8043B5E
:100A00009A4215D1A2EB0C03934313EACC130BD1FA
:100A100050F8042B51F8043B9A4209D1A2EB0C0385
:100A2000934313EACC13DBD04FF00000704700BFB4
:100A3000D01A01BAB1FA81F101F0180122FA01F0DD
:100A4000CB40C1F12001DBB2C0B2C01A2CFA01F3D5
:100A5000D11A914311EAC311E6D1704710B500F0E5
:100A600005F8BDE8104000F097BB0000014900F018
:100A700099BB00003849002010B503681C1404EB32
:100A800021449BB289B2194494FBF2F302FB134355
:100A900094FBF2F401EB034393FBF2F102FB1131FF
:100AA00093FBF2F301E05B1E11440029FBDB0160C4
:100AB00003EB044010BD2DE9F04704464FF0FF3A28
:100AC00086B00068029060680390A0680490E068B7
:100AD000019020690090656905F18040B0F1004FF8
:100AE0007DD83C22002102A8FFF7C6FF3C22014628
:100AF00003A8FFF7C1FF1822014604A8FFF7BCFFB7
:100B0000411E40F2B55201A8FFF7B6FF0C2206467F
:100B100068460021FFF7B0FF00EB860028443E4DF9
:100B200000267D440FE09A1A491CCDE900120229E3
:100B300002D00C2907D104E0810704D0521C019295
:100B400001E0401C00960099019B6A5C9A42EADD34
:100B5000012906D11C2B04D1810702D00221CDE945
:100B60000016A0F146018B2940D20199009B00227A
:100B70000F4602E0AE5C521C31449A42FADB012B74
:100B800002DD820700D0491E40F2B55540F26D16D5
:100B9000C21700EB927292106A4300F0030505FB46
:100BA000062285070A4400D1521E049D02EB42062C
:100BB000DDF80C80A94605EBC605184EC5EB0515FA
:100BC000DDF808C008EB850535442E14ADB2C6EB40
:100BD0000616C5EB0515B6000CEB850500E005E033
:100BE00006EB154666F31F45360C03D0504606B09B
:100BF000BDE8F087C4E904307F1C0720521CC4E91B
:100C0000029792FBF0F3E4E806C800FB132084E8A7
:100C100003042846EBE70000E61F0200A039CEFDE2
:100C2000704770477047000000487047A84900208F
:100C30002DE9F0470D4699469246044600F12408F6
:100C40000168880604D5E06921F01001216000E008
:100C50000120A84201DD471B00E00027A1697A19A5
:100C600002EB0900081AA0612078C00602D42046D1
:100C700000F0E6FC002608E0D4E901211AF806009D
:100C80009047206A401C761C20624E45F4DB207899
:100C9000C0060AD5204600F0D3FC06E0D4E90121C5
:100CA00030209047206A401C2062381EA7F10107BF
:100CB000F4DC07E0D4E9012118F805009047206A28
:100CC000401C2062281EA5F10105F3DC204600F03F
:100CD000CDFC2078000602D50220BDE8F087012077
:100CE000FBE770472DE9FF4F0C461E464FF0FF37DC
:100CF0008BB0D2E90001DDF860800A908A46C1F32A
:100D00000A5505B93D46002108464FF00000BAF1EA
:100D1000000F00F4400005DA00EB80004FF44001C2
:100D200001EA50004FEA9059B9F1010F00DDB946D0
:100D30000A9850EA4A000ED044F61050A5F2FF354A
:100D400045432F14B8F1000F1ED07542291E1EDD39
:100D5000C9F100021CE0B8F1010F4FF0000001D012
:100D6000302103E0F24305E02154401CB042FBDB9C
:100D700030460022002121540B99C1F80880C1E9B6
:100D800000200FB0BDE8F08FBD1B6D1CDEE74A46AA
:100D900000DA694206A800F061FB06AB93E80700A1
:100DA00003AB83E8070050460A9900F073FF8DE813
:100DB0000700A0F500501F3800900398002D09DDB2
:100DC00042F21F014A46084403A90390684601F015
:100DD000D2F908E0A0F500504A461F3803A9039055
:100DE000684601F0DCF98DE807000004000C03D030
:100DF0004FF0FF30410800E01046B8F1000F03D07B
:100E00000022009215461EE0751E05D400F038FA47
:100E1000303262556D1EF9D5B3460122084302D027
:100E200000227F1C04E02078302801D100227F1EA0
:100E3000002A099786D01DE0112D07DA00F020FA6C
:100E4000303262556D1C50EA0102F5D1084302D0E0
:100E50000098C8B10EE00021681E05E0235C625CCA
:100E600063542254401E491C8142F7DBAB46A81B49
:100E7000401E0990002004F80B000B98099AC0F856
:100E80000880C0E9002B7CE711264FF0000859E7E5
:100E90002DE9F04F88460446D21D22F0070191B09B
:100EA000D1E90001CDE90A0104F090FF02460B9858
:100EB000C00F01D02D2007E02068810701D52B202D
:100EC00002E0202101EAC000032A099001D0072A8C
:100ED00005DB03464146204600F030FA0BE120785E
:100EE000800601D5E06900E00620B8F1650F814673
:100EF00006D0B8F1660F18D0B8F1670F70D131E0A5
:100F00000020B9F1110F009001DB112301E009F17C
:100F100001030AAA01A90CA8FFF7E4FEDDE90C70A1
:100F2000002609F10105834647E001204B46009069
:100F30004FF000470AAA01A90CA8FFF7D3FEDDE98C
:100F40000DB00C995D46002610B909F101000D188D
:100F5000B9EB050003D4C0F1FF3609F10105A5EB9B
:100F600009002BE0B9F1010F01DA4FF0010900206F
:100F7000B9F1110F0090484601DD112300E003464E
:100F80000AAA01A90CA8FFF7ADFEDDE90C704D46D9
:100F900000268346207800070AD4AB4500DA5D4678
:100FA00001A8012D04DD411911F8011C302907D0D9
:100FB0004F4502DA17F1040F04DA012082460FE0F0
:100FC0006D1EEEE7002F02DCED1B3E4403E0781CB3
:100FD000A84200DD7D1CB81B00F1010A4FF000475C
:100FE0002078000703D4AA4501DB4FF0FF3A002127
:100FF000B7F1004F0DF143088DF8431024D00220C3
:101000002B23002F01DA7F422D230A21021EA0F19B
:10101000010000DC5FB197FBF1FC97FBF1F201FBF3
:101020001C7C17460CF1300C08F801CDEEE7A8F156
:10103000010003702188090501D5452100E06521E3
:10104000A0F1010800F8011C09980FA9A1EB0807FD
:10105000FF1D00B10120411901EBEA70A16938447C
:10106000081A401EA0612078C00602D4204600F075
:10107000E7FA099828B1D4E901219047206A401C79
:1010800020622078C00622D5204600F0D9FA1EE062
:10109000002E04DBB34502DD01A8805D00E03020B6
:1010A000D4E901219047206A401C2062761CAAF1F5
:1010B00001005FEA000A0AD100F0DEF8C0680168AA
:1010C000405CD4E901219047206A401C2062281E20
:1010D000A5F10105DCDC07E0D4E9012118F8010BDA
:1010E0009047206A401C2062381EA7F10107F3DCFC
:1010F000204600F0BBFA032011B043E610B5436967
:1011000013B1AFF3008001E0FFF780F9012010BDBB
:10111000127800F124010A7000224A700122EDE7E2
:1011200011684FF0FF32E9E72DE9F04791460F468D
:1011300080460446002614F8015B2DB100F094F8B7
:101140000068405DC007F6D12B2D02D02D2D18D0A0
:10115000641E4A463946204600F030F927B1396806
:10116000A14201D1C7F800804FF0020471050BD5F0
:101170004042002803DDFFF757FD0460A007BDE8EB
:10118000F08746F48066E4E70028F8DAFFF74CFDC4
:1011900004606FF00040F2E7014900F0CDB90000B3
:1011A0006449002070B50C46016800204A1C3ED0FE
:1011B0003C22B1FBF2F302FB1313B1FBF2F123600B
:1011C000B1FBF2F302FB1313B1FBF2F118226360DF
:1011D000B1FBF2F302FB1313B1FBF2F146F2E03282
:1011E0000A440721A360B2FBF1F301FB132140F293
:1011F000B553B2FBF3F5A161B2FBF3F103FB15228A
:101200008900B2F5B77F08D39B10521EB2FBF3F5ED
:101210002944B2FBF3F503FB15220F4BE261616138
:1012200089077B440CD03B2A0AD3521C08E02C21AE
:101230002046FFF780FB0120E0600AE0521A401CC4
:10124000195C9142FAD9521CC4E903204FF0FF30D7
:101250002062204670BD0000E6180200004870477A
:10126000A84900207047000010B500F005F8001DE7
:1012700010BD00BF390A020000487047C84900206D
:1012800030B5B0F10A024FEA900E71F100034EEA58
:10129000817EB0EB0E0061EB91014FEA101E4EEA29
:1012A000017E10EB0E0041EB11114FEA102E4EEAB9
:1012B000016E10EB0E0041EB11214FEA104E4EEA89
:1012C000014E10EB0E0041EB1141401841F10001BD
:1012D0004FEAD00040EA41704FEAD10110EB80059F
:1012E0004FEA810444EA907444EB01046D1944EB25
:1012F0000404521BA3414FF0000348BF0A3200D53B
:1013000030BD401C41F1000130BD000001694A1CA4
:1013100002610878704700B58FB0CDE90131002136
:10132000059105497944CDE9031011466846FFF758
:10133000D3F80FB000BD0000E5FFFFFF2DE9F0413D
:101340001F46044603260168072A01F4006004DBF7
:1013500008B116A505E016A503E008B115A500E043
:1013600015A521F010002060A069C01EA0610FB17A
:10137000401EA061204600F063F94FB1D4E901217D
:1013800038469047206A401C2062C01C206206E05C
:10139000206AFAE7D4E9012115F8010B9047761E7F
:1013A000F8D2204600F062F9BDE8F0814E414E00CF
:1013B0006E616E00494E4600696E66002DE9F05F71
:1013C000824615468B4600270AF10104B94600788B
:1013D000302801D09DB113E014F8010B01277828C3
:1013E00003D0582801D045B10AE00DB1102D07D126
:1013F000002714F8010B102502E0082500E00A255B
:101400000026B0460EE005FB080005FB06F10127AB
:101410001FFA80F801EB1046B6F5803F00D3B946BD
:1014200014F8010B294600F0F7F80028EBDABBF1BD
:10143000000F05D00FB1641E00E05446CBF8004009
:10144000B9F1000F06D0FFF7EFFB02210160C81EC3
:10145000BDE8F09F48EA0640FAE700002DE9F047B2
:10146000814616468AB0334878440DC88DE80D0091
:1014700030487844801C03AC0DC884E80D0041F668
:101480009B300844372190FBF1F290FBF1F5A5F178
:10149000800501FB12041B3C02D56442012000E0E0
:1014A0000020DFF890A080460027FA44AAF1BE0A87
:1014B0000DE0E00709D03246684607EB47010AEB2A
:1014C000810100F06CFE8DE8070064107F1C002C89
:1014D000EFD1184F7F44AC3F18E0E80714D007EB7A
:1014E00004100DF1180A90E80E008AE80E00C0689A
:1014F000F04201D198190890324606A903A800F0DD
:101500004EFE03AB83E807006D10641C002DE4D190
:1015100032466946B8F1000F03A802D000F02BFE56
:1015200001E000F03CFEC9E90001C9F808200AB05A
:10153000BDE8F08728170200F0B50D46044685B0D7
:10154000FFF79AFE006994E8C0106369016803F22E
:101550006C730A188168CDE90363CDE901C7E368BC
:1015600001440093C66A2369406A03FB0613A1691C
:1015700001FB0022284603A100F038F805B02846F8
:10158000F0BD0000257320257325336420252E32FD
:10159000643A252E32643A252E32642025640A00EE
:1015A0007546FFF75BFEAE4605006946534620F0E0
:1015B0000700854618B020B5FEF7A0FEBDE8204024
:1015C0004FF000064FF000074FF000084FF0000BFF
:1015D00021F00701AC46ACE8C009ACE8C009ACE8B2
:1015E000C009ACE8C0098D46704700000FB41CB5B7
:1015F000084B06AA7B44694600900598FFF78BFECE
:1016000004460020694600F068F820461CBC5DF8DE
:1016100014FB0000E30000003A2800D2303820F02C
:101620002002412A01D3A2F13700884201D34FF0B2
:10163000FF3070470446AFF300802046FEF74AFEB5
:1016400070B5044685690068C10601D5302600E002
:101650002026C00707D070BDD4E90121304690474D
:10166000206A401C20626D1EF6D570BD70B5044620
:1016700085690078C00707D170BDD4E90121202019
:101680009047206A401C20626D1EF6D570BD096827
:101690004A0501D540B27047C905FCD500B2704774
:1016A00009684A0501D5C0B27047C905FCD580B2AA
:1016B000704711680268006A530501D508700AE096
:1016C000D30501D5088006E0130603D5C217C1E98A
:1016D000000200E00860012070470A6802F8010B70
:1016E0000A6070472DE9FF5F15468A460446DFF819
:1016F000AC80F8440027D8E900103E46CDE9001040
:1017000010E03AF816106A4602A800F0A3FA411C4D
:1017100007D02178890603D5E269391891420DD89E
:101720000744761C2078800602D5E069B84205DDC2
:10173000AE42E6DB3AF816000028E2D1A069C01BF1
:10174000A0612046FFF77CFFD8E90010CDE900102A
:10175000002017E03AF818106A4602A800F07AFA5A
:10176000B0F1FF3F81460BD000250DF1080B05E0DD
:10177000D4E901211BF8050090476D1C4D45F7D3B6
:1017800008F10100B0428046E4DB206A3844206260
:101790002046FFF76BFFBDE8FF9F0000B614020074
:1017A0002DE9F0418046D21D22F007020025D2E942
:1017B0000002F52915A614D0011E72F1000106DA07
:1017C0000023D0EB030063EB020211A608E0D8F877
:1017D00000108B0701D50FA602E0490701D50EA620
:1017E00001251146002408F1240704E0FFF748FD15
:1017F00030323A55641C50EA0102F7D12B4632468A
:1018000021464046BDE8F041FFF712BA0000000053
:101810002D0000002B0000002000000030B400214B
:1018200000F1240408E002F00705D208303542EA4E
:101830004372DB086554491C52EA0305F3D104687E
:10184000002310A2250708D504F020040C4304D07F
:10185000C46901230CA2641EC46130BCFFF7E8B95F
:1018600010B5044621461068FFF71AFF02462046CD
:10187000BDE810400023D1E7D21D22F00701D1E9D5
:101880000023CBE70000000030000000F0B40D465C
:101890000188090502D5214C7C4402E01F4C7C44A0
:1018A0000E34002100F1240608E002F00F071209AF
:1018B000E75D42EA03721B097754491C52EA0307A9
:1018C000F3D102780023120704D5702D06D009B198
:1018D000022311342246F0BCFFF7AAB901231034C9
:1018E000F8E770B504460D4621461068FFF7D8FEAC
:1018F000024629462046BDE870400023C6E7D21DB7
:1019000022F00703D3E90023C0E70368126843F01D
:10191000200303600823C3610023B7E71813020004
:1019200001491820ABBEFEE7260002002DE9F04F6A
:1019300004460D46D21D22F0070089B0D0E900927E
:1019400048461746394604F041FA0246F80F01D0DE
:101950002D2307E02068810701D52B2302E02021F9
:1019600001EAC0038DF820300BB1012000E0002017
:10197000032A824601D0072A04DB29462046FFF7C6
:10198000DDFC3DE12078800601D40D2500E0E5690D
:10199000C7F30A560D2D49DA00214FEA175B0846B6
:1019A0004FF00000002F00F4400007DA00EB800049
:1019B0004FF4400100EBD07001EA6000811501296D
:1019C00001DD4FF0FF3100224FEA850CBCF1180F0A
:1019D00006D31346ACF118004FF08052C24003E02A
:1019E0004FF4801323FA0CF30CF10C0CBCF1200F14
:1019F00004D3ACF1200C09FA0CF001E007FA0CF06A
:101A000000294FF0004801DD18B90FE00ED1404524
:101A10000CD319EB02095F4121B9404502D19F4324
:101A200029EA0209BBEB175F00D0761C208800056D
:101A300002D57B48784402E079487844193808AAEE
:101A4000302302F80A30037C0AF10101002E0AF16A
:101A5000020A53546A4602DC4FF0300101E04FF0B5
:101A600031014FF001088DF8001002D0A6F2FF36C8
:101A700003E059EA470100D06A4E002D02DC2178CC
:101A8000090704D54FF002082E218DF80110C44635
:101A900000210BE0C7F303433F01C35C491C6D1EEB
:101AA00002F80830052908F1010801DA002DF1DCFF
:101AB00000210CE000EB1973491C1B786D1E0829EE
:101AC00002F808304FEA091908F1010801DA002D7F
:101AD000F0DC2178890602D514E0A8F10108E04580
:101AE00005DD02EB080111F8011C3029F5D0B8F131
:101AF000000F07DD02EB080111F8011C2E2901D1AE
:101B0000A8F10108002D05DD3E2102F808106D1E28
:101B100008F10108407C002E02F8080008F10108D5
:101B200004DA2D20764202F8080002E02B2002F8A9
:101B300008000A214FF47A70864208F101080BDB95
:101B400096FBF0F3303302F8083096FBF0F308F11F
:101B5000010800FB136601E0642E0CDB642096FB99
:101B6000F0F3303302F8083096FBF0F308F1010887
:101B700000FB136601E00A2E06DB96FBF1F0303025
:101B800002F8080008F1010896FBF1F001FB106073
:101B9000303002F80800A16908F1010808EB0502DD
:101BA00002EB0A00081AA0612078C00602D4204681
:101BB000FFF746FD216A08AE01EB0A00206204E04F
:101BC000D4E9012116F8010B9047BAF1010AF7D2C6
:101BD0002078C00602D52046FFF732FD6E4609E0A8
:101BE00016F8010B3E280FD0D4E901219047206A56
:101BF000401C2062B8F10108F2D22046FFF736FD02
:101C000009B00320BDE8F08F206A2844206203E079
:101C1000D4E90121302090476D1EEBD3F8E7000096
:101C2000B711020002FCFFFF10B5436913B1AFF317
:101C3000008001E0FFF756FD012010BD128800F181
:101C4000240182840022C2840122EDE711684FF052
:101C5000FF32E9E770B516460C460546FFF704FB70
:101C6000036893F80101012806D0FF2C0FD8185DF6
:101C700068B101202C7070BDD3F8070132462146AF
:101C800003F2071303442846BDE8704018474FF09D
:101C9000FF3070BD5FEA400C08BF91F0000F4FEAC3
:101CA0008C234FEAC12243EA51514FEA1C5018BF1E
:101CB00000F5F0404FEA300018BF41F000415FEA04
:101CC0006C5C00F02980BCF1FF3F08BF40F0804011
:101CD0007047130C06BF12044FF0100C4FF0000CAD
:101CE000130E04BF12020CF1080C130F04BF1201F3
:101CF0000CF1040C930F04BF92000CF1020CD30FF3
:101D000004BF52000CF1010C11464FF00002A0F18B
:101D10001F00A0EB0C00704711F0004F08BF704788
:101D200031F000413FF4D5AF0B0C06BF09044FF072
:101D3000100C4FF0000C0B0E04BF09020CF1080C44
:101D40000B0F04BF09010CF1040C8B0F04BF8900B9
:101D50000CF1020CCB0F04BF49000CF1010CCCF1CB
:101D60002003A0EB0C0022FA03F302FA0CF241EA82
:101D7000030100F10100704720F07F4C80EA03006E
:101D800023F07F47ACEB070303F57C5300F00040E2
:101D900003F1FF032DE980494FEA154B09B44FEADF
:101DA000144325EA0B4E24EA03480FF2042606EBFF
:101DB000132749083E785FEA320203FB0667C7F53E
:101DC000000707FB06F64FEA54374FEAD64606F1FE
:101DD000020607FB066CCCF1005C4FEA1C472CEABC
:101DE000074C07FB06F40CFB06F504EB15464FEA1F
:101DF000961634BF00204FF000404FEAD13706FB63
:101E000007FC4FEA1C4C0CFB0BF7D21B03FB0CF737
:101E100061EB07010CFB0EF7B0EB074072EB1742CA
:101E20000CFB08F734BFA2EB0742B2EB074261EBB1
:101E300017414FEA0C444FEA910706FB07FC4FEAB3
:101E40001C4C0CFB0BF7B0EBC74072EB573203FB9B
:101E50000CF734BFA2EBC742B2EBC74261EB57317C
:101E60000CFB0EF7B0EBC70072EB57720CFB08F7D8
:101E700034BFA2EBC702B2EBC70261EB5771039FFD
:101E80004FEA816141EA921104EBCC044FEAD13769
:101E90004FEA826206FB07FC42EA90124FEA80603A
:101EA0004FEA1C4C0CFB0BF7D21B03FB0CF761EB4E
:101EB00007010CFB0EF7B0EB074072EB17420CFB6F
:101EC00008F734BFA2EB0742B2EB074261EB1741C0
:101ED0004FEA8C554FEA910704EB9C2406FB07FC64
:101EE0004FEA1C4C0CFB0BF7B0EBC74072EB5732C0
:101EF00003FB0CF734BFA2EBC742B2EBC74261EB66
:101F000057310CFB0EF7B0EBC70072EB57720CFBAE
:101F100008F734BFA2EBC702B2EBC70261EB5771FF
:101F200015EB4C254FEA816141EA92114FEA82623A
:101F30004FEAD13742EA901206FB07FC44F1000455
:101F40004FEA80604FEA1C4C0CFB0BF7D21B03FBE3
:101F50000CF761EB07010CFB0EF7B0EB074072EBDF
:101F600017420CFB08F734BFA2EB0742B2EB074263
:101F700061EB174115EB1C154FEA813141EA9241A3
:101F80004FEA823242EA90424FEA80304FEA0C76C2
:101F900044F1000448EA03434EEA0B484FF0000EB8
:101FA000B2EB080C71EB030724BF624639464EEBD7
:101FB0000E0E4FF0000B0018524149414BEB0B0B3A
:101FC000B2EB080C71EB03077BF1000B24BF6246F8
:101FD00039464EEB0E0E4FF0000B001852414941AE
:101FE0004BEB0B0BB2EB080C71EB03077BF1000B17
:101FF00024BF624639464EEB0E0E51EA020718BF67
:1020000046F0010616EB0E7655F1000254F1000180
:1020100003D5BDE88901BDE80088BDE88901BDE8B8
:102020000048B619524141EB0101A3F10103704789
:1020300080807F7E7D7C7B7A797877767675747305
:10204000727171706F6E6E6D6C6C6B6A6A696868C4
:10205000676666656464636362616160605F5F5E5A
:102060005E5D5D5C5C5B5B5A5A59595858575756D0
:102070005655555554545353525252515150505035
:102080004F4F4F4E4E4D4D4D4C4C4C4B4B4B4A4A87
:102090004A494949484848474747474646464545CB
:1020A0004544444444434343434242424241414104
:1020B000002B26D4770021D01CB54FEA370703B494
:1020C0004FF010004FF010014FF000000FBCBDE8C2
:1020D00010400BF1010BBBF1010F08BF5FEA1707BE
:1020E00022BF12F1010211F101014FF0004143F151
:1020F000000300F0004043EA00007047F9D357089E
:10210000DAE746EA064613F1400F4FEA16461FDDAE
:1021100013F1200FDFBF16430A46002120335B4234
:10212000C8D0C3F1200746EA064602FA07F74FEA8D
:10213000164646EA0706C3F1200722FA03F201FA1F
:1021400007F721FA03F14FF0000342EA0702B1E773
:1021500046EA020646EA06464FEA164646EA0106FF
:10216000BCBF46EA0646360C4FF000034FF00002B3
:102170004FF000019EE72DE9C048934630B491E846
:10218000380007C831EA400C48BF34EA430C03D595
:10219000FFF7F2FDFFF78CFFF0BCBDE800882DE9EA
:1021A000C048934630B491E8380007C810F0804F1B
:1021B00008BF13F0804F03D100F005F8FFF778FF58
:1021C000F0BCBDE8008820F07F4780EA030023F0E0
:1021D0007F4C07EB0C03A3F57C5300F00040A3F108
:1021E000FE0392F0000F00F0B38095F0000F00F0B6
:1021F00077802DE901494FEA11404FEA144621EA60
:10220000004800FB06FC24EA064708FB06F607FB2D
:1022100008F800FB07F718EB06484CEB164C4FEAA2
:10222000124B18EB07484FEA15464CEB174022EAD1
:102230000B4E0BFB06FC25EA06470EFB06F607FBDA
:102240000EFE0BFB07F71EEB064E4CEB164C4FF049
:1022500000061EEB074E4CEB174B18EB0B0840F13A
:10226000000018EB0E0B58EB000840F100008F1A2D
:102270004FF000013CBFC943661B14BFB5EB040C13
:1022800000213CBFC943F61B4FEA17444EEA8E0EAD
:1022900027EA04454FEA1C4704FB07622CEA074C77
:1022A00005FB07F70CFB05F604FB0CFC16EB0746D9
:1022B00042EB174216EB0C4642EB1C421BEB0606A8
:1022C00058EB0202414146EA9E0601D5BDE801896C
:1022D000B619524141EB0101A3F10103BDE80189A7
:1022E0004FEA14454FEA114724EA054621EA074C14
:1022F00005FB07F406FB07F70CFB06F105FB0CFCDE
:1023000011EB074144EB17444FEA124711EB0C4124
:1023100044EB1C4422EA074C05FB07F206FB07F7D7
:102320000CFB06F605FB0CFC16EB074642EB1742CE
:1023300016EB0C4642EB1C456A1854F1000148BFED
:102340007047B619524141EB0101A3F101037047F7
:1023500095F0000F37D04FEA11424FEA144721EAB7
:10236000024624EA074C02FB07F106FB07F70CFBC9
:1023700006F402FB0CFC14EB074441EB17414FEA57
:10238000154714EB0C4441EB1C4125EA074C02FBBA
:1023900007F506FB07F70CFB06F602FB0CFC16EB39
:1023A000074645EB174516EB0C4645EB1C42121948
:1023B00051F1000148BF7047B619524141EB01018C
:1023C000A3F1010370474FEA14454FEA114724EA8D
:1023D000054621EA074C05FB07F106FB07F70CFB56
:1023E00006F24FF0000605FB0CFC12EB074241EB36
:1023F000174112EB0C4251EB1C4148BF7047921839
:1024000041EB0101A3F10103704700BFFEE70000AB
:1024100010B515F027F9034806F078FF15F044F9D8
:1024200010BD00009428002010B515F01BF90348DA
:1024300006F06CFF15F038F910BD0000E828002008
:1024400010B5044604F0704010B10948204008B9A6
:1024500004B104E040F20E2106A004F0CFFD04F028
:10246000805010B11248046001E01248446010BD71
:102470000000F0EF2E2E5C4C696272617269657328
:102480005C53544D3332463130785F537464506539
:10249000726970685F4472697665725C7372635CBE
:1024A00073746D3332663130785F646D612E630012
:1024B000040402400000024070B504460D46244862
:1024C00084422AD022481430844226D02048283022
:1024D000844222D01E483C3084421ED01C485030DA
:1024E00084421AD01A486430844216D01848783092
:1024F000844212D0174884420FD0164814308442C8
:102500000BD014482830844207D012483C30844213
:1025100003D010485030844200D104E040F2291129
:102520000DA004F06BFD0DB1012D00D104E04FF4BE
:10253000957109A004F062FD25B1206840F001000A
:10254000206004E020684FF6FE710840206070BDF6
:1025500008000240080402402E2E5C4C6962726141
:10256000726965735C53544D3332463130785F5332
:1025700074645065726970685F4472697665725CF4
:102580007372635C73746D3332663130785F646D7F
:10259000612E630070B58CB00546EC6BEE6C0122C9
:1025A00040F22441206803F015FA0121084602F0A8
:1025B000A9FB0121022002F0A5FBA06800F03EF873
:1025C0002068001D01903068029000200390A86CE4
:1025D000C0F38F20049000200590802006900020FA
:1025E0000790089009904FF400500A9000200B903B
:1025F00001A9A06800F0EEF9E068FFF721FF0122D1
:102600000221A06800F070F901224021206803F047
:102610005FF80121A068FFF74FFF207C8DF80000D4
:1026200000208DF8010001208DF802008DF80300D4
:10263000684601F0CBFC0CB070BD000010B504463C
:102640006A4884422AD069481430844226D06748B8
:102650002830844222D065483C3084421ED06348F2
:10266000503084421AD061486430844216D05F48AA
:102670007830844212D05E4884420FD05C481430D7
:1026800084420BD05A482830844207D058483C3006
:10269000844203D056485030844200D103E06F2179
:1026A00054A004F0ABFC20684FF6FE710840206097
:1026B000002020606060A060E0604C48844208D147
:1026C0004A480838406840F00F00484908394860D7
:1026D0008AE046481430844208D1444808384068AB
:1026E00040F0F0004149083948607DE03F4828301B
:1026F000844208D13D480838406840F470603B4946
:102700000839486070E039483C30844208D1374885
:102710000838406840F4704034490839486063E044
:1027200032485030844208D130480838406840F47C
:1027300070202E490839486056E02C4864308442A5
:1027400008D12A480838406840F470002749083901
:10275000486049E025487830844208D12348083849
:10276000406840F070602149083948603CE02048EA
:10277000844206D1001F006840F00F00211F08604E
:1027800032E01B481430844208D11948001F006809
:1027900040F0F0001649091F086025E01448283071
:1027A000844208D11248001F006840F4706010494C
:1027B000091F086018E00E483C30844208D10C48DC
:1027C000001F006840F470400949091F08600BE0D1
:1027D00007485030844207D10548001F006840F484
:1027E00070200349091F086010BD00000800024066
:1027F000080402402E2E5C4C696272617269657336
:102800005C53544D3332463130785F5374645065B5
:10281000726970685F4472697665725C7372635C3A
:1028200073746D3332663130785F646D612E63008E
:1028300010B504461B4884422AD01A4814308442FA
:1028400026D018482830844222D016483C30844292
:102850001ED01448503084421AD01248643084424A
:1028600016D010487830844212D00F4884420FD0DE
:102870000D48143084420BD00B482830844207D0D6
:1028800009483C30844203D007485030844200D18C
:1028900004E04FF4BB7105A004F0B0FB606880B2A7
:1028A00010BD000008000240080402402E2E5C4CBF
:1028B00069627261726965735C53544D333246319B
:1028C00030785F5374645065726970685F447269F0
:1028D0007665725C7372635C73746D33326631302B
:1028E000785F646D612E630070B504460D46164630
:1028F000274884422AD026481430844226D02448CF
:102900002830844222D022483C3084421ED02048C5
:10291000503084421AD01E486430844216D01C487D
:102920007830844212D01B4884420FD019481430AA
:1029300084420BD017482830844207D015483C30D9
:10294000844203D013485030844200D104E040F266
:10295000491111A004F052FB25F00E0008B905B191
:1029600004E04FF4A5710CA004F048FB0EB1012E59
:1029700000D104E040F24B1107A004F03FFB1EB170
:1029800020682843206002E02068A843206070BDD2
:1029900008000240080402402E2E5C4C69627261FD
:1029A000726965735C53544D3332463130785F53EE
:1029B00074645065726970685F4472697665725CB0
:1029C0007372635C73746D3332663130785F646D3B
:1029D000612E630070B505460C4600265E488542B0
:1029E0002AD05D481430854226D05B482830854285
:1029F00022D059483C3085421ED05748503085423D
:102A00001AD055486430854216D0534878308542F4
:102A100012D0524885420FD05048143085420BD016
:102A20004E482830854207D04C483C30854203D080
:102A30004A485030854200D103E0CF2148A004F03D
:102A4000DDFAA068102801D0A06800B903E0D02109
:102A500043A004F0D3FAE06820B1E068B0F5803F0D
:102A600000D203E0D1213EA004F0C8FA206940283A
:102A700001D0206900B903E0D22139A004F0BEFAE8
:102A80006069802801D0606900B903E0D32134A0D7
:102A900004F0B4FAA06938B1A069B0F5807F03D022
:102AA000A069B0F5007F00D103E0D4212CA004F090
:102AB000A5FAE06938B1E069B0F5806F03D0E0694C
:102AC000B0F5006F00D103E0D52125A004F096FAFF
:102AD000206A202801D0206A00B903E0D62120A076
:102AE00004F08CFA606AB0F5405F09D0606AB0F516
:102AF000005F05D0606AB0F5805F01D0606A00B900
:102B000003E0D72116A004F079FAA06AB0F5804F4F
:102B100001D0A06A00B903E0D82111A004F06EFA38
:102B20002E6847F6F0708643216AA0680843216941
:102B3000084361690843A1690843E1690843616A80
:102B40000843A16A084306432E60E0686860206875
:102B5000A8606068E86070BD080002400804024098
:102B60002E2E5C4C69627261726965735C53544DC0
:102B70003332463130785F537464506572697068DF
:102B80005F4472697665725C7372635C73746D33F3
:102B900032663130785F646D612E630070B5044633
:102BA0000D461B4884422AD019481430844226D04E
:102BB00017482830844222D015483C3084421ED029
:102BC0001348503084421AD011486430844216D0E1
:102BD0000F487830844212D00E4884420FD00D48FE
:102BE000143084420BD00B482830844207D0094867
:102BF0003C30844203D007485030844200D104E086
:102C00004FF4B27104A004F0F9F9656070BD0000E2
:102C100008000240080402402E2E5C4C696272617A
:102C2000726965735C53544D3332463130785F536B
:102C300074645065726970685F4472697665725C2D
:102C40007372635C73746D3332663130785F646DB8
:102C5000612E63007047000010B50446064820400E
:102C600008B904B104E040F2597104A004F0C6F9B7
:102C70000848446110BD00000018FEFF2E2E5C6461
:102C80007269766572735C73746D33325F657468F4
:102C90002E6300000090024070B504460D461048B7
:102CA000204008B904B104E04FF4FD610DA004F028
:102CB000A5F90DB1012D00D104E040F2E97109A0A0
:102CC00004F09CF92DB10D48C06920430B49C8613F
:102CD00004E00A48C069A0430849C86170BD00000B
:102CE0000018FEFF2E2E5C647269766572735C7349
:102CF000746D33325F6574682E630000009002408B
:102D000010B504460CB1012C00D104E040F2BF71B3
:102D100008A004F073F934B10C48806940F0020057
:102D20000A49886105E00948806920F002000749E6
:102D3000886110BD2E2E5C647269766572735C7357
:102D4000746D33325F6574682E630000009002403A
:102D500030B50C4613460021104D286000BF18E026
:102D600000EB01124FF00045156044F2F05555603C
:102D7000C1EB411505EB811504EB051595605D1E52
:102D80008D4204D900EB01151035D56000E0D0600C
:102D9000491C9942E4D3024DE86030BD0400002094
:102DA0000090024010B504460CB1012C00D104E0A3
:102DB0004FF4F56108A004F021F934B10C488069A2
:102DC00040F400500A49886105E00948806920F410
:102DD00000500749886110BD2E2E5C6472697665CB
:102DE00072735C73746D33325F6574682E630000B8
:102DF0000090024030B50C46134600210F4D28606C
:102E000000BF15E000EB01124FF480151560C1EB17
:102E1000411505EB811504EB051595605D1E8D428E
:102E200004D900EB01151035D56000E0D060491CD5
:102E30009942E7D3024D286130BD00000000002018
:102E40000090024010B50121880301F0A1FF00218C
:102E50004FF4804001F09CFF10BD000003488069E2
:102E600040F48010014988617047000000900240E2
:102E700000200449096801F0010109B1012000E0C6
:102E8000002070470090024010B514F0EBFB1D4885
:102E9000446904F0400028B11B4808F02BF840209A
:102EA000FFF7DAFE04F0010028B1184815F07CFFA6
:102EB0000120FFF7D1FE04F4803018B14FF48030C8
:102EC0001049486104F4004018B14FF400400D4926
:102ED000486104F0100010B110200A49486104F064
:102EE000800020B100F08AFC80200649486104F08F
:102EF000040020B100F088FC04200249486114F06D
:102F0000D3FB10BD00900240B027002028280020ED
:102F100070B588B00446002500200790FC4E019053
:102F20002068012801D0206800B903E09F21F9A0A2
:102F300004F064F8606818B16068B0F5000F00D163
:102F400003E0A021F3A004F059F8A06818B1A0682C
:102F5000B0F5800F00D103E0A121EEA004F04EF8FF
:102F6000E068D8B1E068B0F5003F17D0E068B0F590
:102F7000802F13D0E068B0F5C02F0FD0E068B0F517
:102F8000002F0BD0E068B0F5202F07D0E068B0F537
:102F9000402F03D0E068B0F5602F00D103E0A221FC
:102FA000DCA004F02BF8206918B12069B0F5803F4F
:102FB00000D103E0A321D7A004F020F8606918B184
:102FC0006069B0F5804F00D103E0A421D1A004F0E6
:102FD00015F8A06918B1A069B0F5005F00D103E051
:102FE000A521CCA004F00AF8E069B0F5805F01D01B
:102FF000E06900B903E0A621C6A003F0FFFF206A44
:10300000B0F5006F01D0206A00B903E0A721C1A08C
:1030100003F0F4FF606AB0F5806F01D0606A00B918
:1030200003E0A821BBA003F0E9FFA06A18B1A06AE1
:10303000B0F5007F00D103E0A921B6A003F0DEFFC8
:10304000E06A802801D0E06A00B903E0AA21B1A0BB
:1030500003F0D4FF206B40B1206B202805D0206BFB
:10306000402802D0206B602800D103E0AB21A9A04A
:1030700003F0C4FF606B102801D0606B00B903E05F
:10308000AC21A4A003F0BAFFA06BB0F1004F01D0B7
:10309000A06B00B903E0AD219EA003F0AFFFE06B91
:1030A000B0F5007F05D0E06BB0F5407F01D0E06B5C
:1030B00000B903E0AE2197A003F0A0FF206C4028E8
:1030C00005D0206C802802D0206CC02800D103E0FD
:1030D000AF2190A003F092FF606C10B1606C2028CB
:1030E00000D103E0B0218BA003F088FFA06C10B1E9
:1030F000A06C082800D103E0B12186A003F07EFF78
:10310000E06C012801D0E06C00B903E0B22181A09D
:1031100003F074FF40F20441206D884207D0206D17
:10312000042804D0206D10B1206D102800D103E0D8
:10313000B32178A003F062FF40F20241606D884243
:1031400004D0606D022801D0606D00B903E0B421A5
:1031500070A003F053FF206EB0F5803F00D203E073
:10316000B5216CA003F04AFF606E10B1606E80283C
:1031700000D103E0B62167A003F040FFA06E40B18C
:10318000A06E102805D0A06E202802D0A06E302896
:1031900000D103E0B7215FA003F030FFE06E082804
:1031A00001D0E06E00B903E0B8215AA003F026FF79
:1031B000206F042801D0206F00B903E0B92155A089
:1031C00003F01CFF606F022801D0606F00B903E0BC
:1031D000BA2150A003F012FFA06FB0F5803F01D0DC
:1031E000A06F00B903E0BB214AA003F007FFE06F26
:1031F000B0F5803F00D203E0BC2146A003F0FEFE04
:10320000D4F8800020B1D4F88000B0F1806F00D1F4
:1032100003E0BE213FA003F0F1FED4F88400B0F13A
:10322000007F02D0D4F8840000B903E0BF2139A0A8
:1032300003F0E4FED4F8880020B1D4F88800B0F19F
:10324000807F00D103E0C02132A003F0D7FED4F884
:103250008C00B0F5001F02D0D4F88C0000B903E058
:10326000C1212CA003F0CAFED4F8900010B3D4F80A
:103270009000B0F5804F1DD0D4F89000B0F5004F0D
:1032800018D0D4F89000B0F5404F13D0D4F8900087
:10329000B0F5803F0ED0D4F89000B0F5A03F09D033
:1032A000D4F89000B0F5C03F04D0D4F89000B0F549
:1032B000E03F00D103E0C22116A003F09FFED4F846
:1032C0009400802802D0D4F8940000B903E0C32110
:1032D00010A003F093FED4F89800402802D0D4F850
:1032E000980000B903E0C4210AA003F087FED4F8D7
:1032F0009C0058B1D4F89C00082807D0D4F89C0052
:10330000102803D0D4F89C0018280FD113E0000037
:10331000008793032E2E5C647269766572735C730A
:10332000746D33325F6574682E630000C521AFF29F
:103330001C0003F063FED4F8A000042802D0D4F8E7
:10334000A00000B904E0C621AFF2380003F056FE39
:10335000D4F8A400B0F1007F02D0D4F8A40000B9E2
:1033600004E0C721AFF2540003F048FED4F8A800EF
:10337000B0F5803F02D0D4F8A80000B904E0C8211D
:10338000AFF2700003F03AFED4F8AC00B0F5003FA5
:1033900036D0D4F8AC00B0F5802F31D0D4F8AC00E2
:1033A000B0F5002F2CD0D4F8AC00B0F5801F27D09A
:1033B000D4F8AC00B0F5001F22D0D4F8AC00B0F5C2
:1033C000800F1DD0D4F8AC00B0F1817F18D0D4F8B4
:1033D000AC00B0F1827F13D0D4F8AC00B0F1847FA0
:1033E0000ED0D4F8AC00B0F1887F09D0D4F8AC008E
:1033F000B0F1907F04D0D4F8AC00B0F1A07F00D140
:1034000004E0C921AFF2F40003F0F8FDD4F8B000F5
:10341000B0F5807F36D0D4F8B000B0F5007F31D061
:10342000D4F8B000B0F5806F2CD0D4F8B000B0F56F
:10343000006F27D0D4F8B000B0F5805F22D0D4F868
:10344000B000B0F5005F1DD0D4F8B000B0F1012F8E
:1034500018D07349D4F8B000884213D07149D4F819
:10346000B00088420ED07049D4F8B000884209D02C
:103470006E49D4F8B000884204D06D49D4F8B00049
:10348000884200D104E0CA21AFF2781003F0B6FD03
:10349000D4F8B4001F2800D804E0CB21AFF28C1080
:1034A00003F0ACFDD4F8B80090B1D4F8B800B0F592
:1034B000804F0DD0D4F8B800B0F5004F08D0D4F844
:1034C000B800B0F5404F03D0D4F8B800022800D1BE
:1034D00004E0CC21AFF2C41003F090FD554805691B
:1034E00025F01C0502A801F041FD039E52488642CA
:1034F00005D35248864202D245F0080509E04F48FC
:10350000864205D34E48864202D245F00C0500E0C3
:1035100000BF4848056105684A480540D4E90101F3
:103520000843E16808432169084361690843A169C8
:103530000843E1690843216A0843616A0843A16AB4
:103540000843E16A0843216B0843616B0843054364
:1035500038480560D4E90E010843216C0843616CCA
:103560000843A16C0843E16C0843216D0843616D79
:10357000084330494860A06D8860E06DC860084627
:1035800085694FF641700540B4F86010606E40EAFE
:103590000140A16E0843E16E0843216F0843616F4B
:1035A0000843054323488561D4E91E0108432149A6
:1035B000C8612548856925480540D4E920010843AC
:1035C000D4F888100843D4F88C100843D4F890102D
:1035D0000843D4F894100843D4F898100843D4F85A
:1035E0009C100843D4F8A010084305431648856191
:1035F000D4E929010843D4F8AC100843D4F8B0103A
:103600000843D4F8B41040EA8100D4F8B810084355
:1036100040F400000C490860012008B070BD0000B3
:103620000002000100040001000800010010000178
:103630000020000100800240002D3101C00E160262
:10364000008793030F8120FF00900240233FDEF8A4
:1036500070B504460D462CB1082C03D0102C01D0B7
:10366000182C00D104E040F2CB310CA003F0C6FCD2
:103670002879697940EA01260E4820440664E878F2
:103680000006A97840EA0140697840EA01202978DB
:1036900040EA010607482044466470BD2E2E5C6453
:1036A0007269766572735C73746D33325F657468CA
:1036B0002E6300000080024010B504460CB1012CBE
:1036C00000D104E040F2233108A003F097FC34B1AC
:1036D0000C48006840F004000A49086005E0094809
:1036E000006820F004000749086010BD2E2E5C64BD
:1036F0007269766572735C73746D33325F6574687A
:103700002E6300000080024010B504460CB1012C6D
:1037100000D104E04FF4437108A003F06FFC34B112
:103720000C48006840F008000A49086005E00948B4
:10373000006820F008000749086010BD2E2E5C6468
:103740007269766572735C73746D33325F65746829
:103750002E63000000800240F8B505460E460024A6
:10376000002000901F2D00DC04E040F286211BA009
:1037700003F044FC1F2E00DC04E040F2872117A078
:1037800003F03CFC1B48046904F01C044FF478402F
:1037900000EAC52004434FF4F86000EA86100443B1
:1037A00024F0020444F001041248046100BF0098B0
:1037B000401C00900F48046904F0010018B10E4944
:1037C00000988842F3D30C490098884201D1002028
:1037D000F8BD0848406980B2FAE700002E2E5C640C
:1037E0007269766572735C73746D33325F65746889
:1037F0002E63000000800240FFFF0400002001490A
:10380000886070470090024000200149486070477E
:10381000009002400348006840F001000149086040
:10382000704700000090024010B50120FFF76CFFC8
:10383000FFF714FB0120FFF73FFF0120FFF7B2FA6B
:103840000120FFF75DFA10BD002101604160816039
:10385000C160016141618161C16101624162816256
:10386000C162016341638163C1634021016420211E
:10387000416400218164C164016541658165C16560
:1038800001668021416600218166C166016741674A
:103890008167C1674FF08061C0F880104910C0F89F
:1038A00084104910C0F88810C910C0F88C1000218D
:1038B000C0F89010C0F89410C0F89810C0F89C1090
:1038C000C0F8A0104FF00071C0F8A4100021C0F89B
:1038D000A8104FF40031C0F8AC104912C0F8B01075
:1038E0000021C0F8B410C0F8B8107047F8B505460C
:1038F0000E4617460024002000901F2D00DC04E037
:1039000040F2B6211AA003F079FB1F2E00DC04E080
:1039100040F2B72116A003F071FB1B48046904F0C4
:103920001C044FF4784000EAC52004434FF4F860CB
:1039300000EA8610044344F0020444F001041248F3
:103940004761046100BF0098401C00900E48046964
:1039500004F0010018B10D4900988842F3D30B49D7
:103960000098884201D10020F8BD0120FCE700004A
:103970002E2E5C647269766572735C73746D33327B
:103980005F6574682E63000000800240FFFF040042
:1039900008B5012000F09EF803208DF802001820E1
:1039A0008DF803000220ADF8000069462D4800F0B4
:1039B000C1F80420ADF8000069462B4800F0BAF8C1
:1039C00018208DF803004FF40060ADF80000694640
:1039D000264800F0AFF84FF48050ADF8000069467B
:1039E000224800F0A7F84FF40050ADF800006946F7
:1039F0001E4800F09FF804208DF803008020ADF8E9
:103A000000006946184800F095F81020ADF8000055
:103A10006946144800F08EF82020ADF80000694691
:103A2000104800F087F84FF4004001F031FC01200D
:103A300001F000FC00BF3D2001F060FB0028FAD03F
:103A40000B2001F0BBFB0220ADF8000003208DF835
:103A5000020018208DF803006946034800F06AF858
:103A600008BD00000010014000080140000C0140AA
:103A700008B502208DF8020004208DF803004002F2
:103A8000ADF800006946114800F054F818208DF890
:103A900003004FF48060ADF8000069460B4800F069
:103AA00049F804208DF80300ADF800006946084885
:103AB00000F040F818208DF803004FF48050ADF866
:103AC00000006946014800F035F808BD00100140CB
:103AD0000014014010B504460CB1012C00D104E0E3
:103AE0004FF41E7102A003F089FA1148046010BD62
:103AF0002E2E5C4C69627261726965735C53544D21
:103B00003332463130785F5374645065726970683F
:103B10005F4472697665725C7372635C73746D3353
:103B200032663130785F6770696F2E630000000085
:103B3000DC0020422DE9F05F05460C464FF00009FD
:103B4000CA4600260027B046B3465948854211D0E0
:103B5000584885420ED0584885420BD05748854278
:103B600008D05748854205D05648854202D056486D
:103B7000854200D103E0B22154A003F03FFAE0787F
:103B8000A0B1E078042811D0E07828280ED0E078A1
:103B900048280BD0E078142808D0E078102805D009
:103BA000E0781C2802D0E078182800D103E0B32187
:103BB00046A003F023FA002010B9208800B103E0EA
:103BC000B42142A003F01AFAE07800F00F09E0787F
:103BD00000F0100080B1A078012805D0A07802285C
:103BE00002D0A078032800D103E0BB2137A003F066
:103BF00005FAA07840EA0909207838B3D5F80080A2
:103C000000261FE0012000FA06F7208800EA070AD4
:103C1000BA4516D1B7000F2000FA07FB28EA0B08B7
:103C200009FA07F040EA0808E078282803D10120C3
:103C3000B040686105E0E078482802D10120B0403A
:103C40002861761C082EDDD3C5F800802088FF2867
:103C50002BDDD5F80480002623E006F108000121C1
:103C600001FA00F7208800EA070ABA4518D1B70020
:103C70000F2000FA07FB28EA0B0809FA07F040EAD0
:103C80000808E078282803D106F10800814069611E
:103C9000E078482804D106F108000121814029611B
:103CA000761C082ED9D3C5F80480BDE8F09F00002B
:103CB00000080140000C01400010014000140140C8
:103CC00000180140001C0140002001402E2E5C4CD9
:103CD00069627261726965735C53544D3332463167
:103CE00030785F5374645065726970685F447269BC
:103CF0007665725C7372635C73746D3332663130F7
:103D0000785F6770696F2E630000000070B505462C
:103D10000C4600262848854211D0284885420ED0FE
:103D2000274885420BD02748854208D0264885423F
:103D300005D02648854202D02548854200D104E0BE
:103D40004FF48F7123A003F059F9012C25D0022CD8
:103D500023D0042C21D0082C1FD0102C1DD0202CB7
:103D60001BD0402C19D0802C17D0B4F5807F14D0F4
:103D7000B4F5007F11D0B4F5806F0ED0B4F5006FAC
:103D80000BD0B4F5805F08D0B4F5005F05D0B4F572
:103D9000804F02D0B4F5004F00D104E040F21F1173
:103DA0000CA003F02BF9A868204008B1012600E020
:103DB0000026304670BD000000080140000C0140A4
:103DC000001001400014014000180140001C014097
:103DD000002001402E2E5C4C69627261726965732D
:103DE0005C53544D3332463130785F5374645065C0
:103DF000726970685F4472697665725C7372635C45
:103E000073746D3332663130785F6770696F2E631B
:103E10000000000070B504460D461348844211D0DE
:103E2000124884420ED0124884420BD0114884427A
:103E300008D01148844205D01048844202D010486E
:103E4000844200D104E040F279110EA003F0D6F8CC
:103E5000002008B905B104E04FF4BD7109A003F0DA
:103E6000CDF8656170BD000000080140000C014004
:103E7000001001400014014000180140001C0140E6
:103E8000002001402E2E5C4C69627261726965737C
:103E90005C53544D3332463130785F53746450650F
:103EA000726970685F4472697665725C7372635C94
:103EB00073746D3332663130785F6770696F2E636B
:103EC0000000000070B504460D461348844211D02E
:103ED000124884420ED0124884420BD011488442CA
:103EE00008D01148844205D01048844202D01048BE
:103EF000844200D104E040F269110EA003F07EF884
:103F0000002008B905B104E04FF4B57109A003F031
:103F100075F8256170BD000000080140000C0140EB
:103F2000001001400014014000180140001C014035
:103F3000002001402E2E5C4C6962726172696573CB
:103F40005C53544D3332463130785F53746450655E
:103F5000726970685F4472697665725C7372635CE3
:103F600073746D3332663130785F6770696F2E63BA
:103F70000000000000BFFEE7704710B500214FF0C1
:103F8000006000F093F810BD08B53D208DF80000EA
:103F900000208DF801008DF8020001208DF803004B
:103FA000684600F013F808BD38B5044620798DF84E
:103FB000000000208DF801008DF8020001208DF82E
:103FC0000300684600F002F838BD00002DE9F0411A
:103FD0000446002500270F26E07810B1E07801287C
:103FE00000D103E0752121A003F008F860781028C3
:103FF00000DA03E076211DA003F000F8A078102875
:1040000000DA03E0772119A002F0F8FFE07800B3AE
:104010002348006800F4E060C0F5E060050AC5F1DF
:104020000407EE40607800FA07F5A07830400543B9
:104030002D011C4822788554207800F01F010120B2
:10404000884021784911890001F1E021C1F800017F
:1040500009E0207800F01F010120884012492278F1
:10406000521141F82200BDE8F08100002E2E5C4C78
:1040700069627261726965735C53544D33324631C3
:1040800030785F5374645065726970685F44726918
:104090007665725C7372635C6D6973632E63000096
:1040A0000CED00E000E400E080E100E070B50446C3
:1040B0000D46B4F1005F02D0B4F1006F00D103E00F
:1040C0009F2109A002F09AFF1448854200D203E024
:1040D000A02105A002F092FF114905EA010020434A
:1040E0001049086070BD00002E2E5C4C6962726140
:1040F000726965735C53544D3332463130785F5387
:1041000074645065726970685F4472697665725C48
:104110007372635C6D6973632E630000FFFF0F00B1
:1041200080FFFF1F08ED00E000BF0A48006810F89C
:10413000080C0849096811F8041C08440549096875
:1041400001F8080C03480068001F0249086000BF1E
:10415000704700001802002000BF0A48006850F8AD
:10416000080C0849096851F8041C08440549096805
:1041700041F8080C03480068001F0249086000BFAE
:10418000704700001802002000BF0A48006830F89D
:10419000080C0849096831F8041C084400B20549B4
:1041A000096821F8080C03480068001F01490860ED
:1041B00000BF70471802002000BF0A48006810F8CE
:1041C000080C0849096811F8041C084005490968E9
:1041D00001F8080C03480068001F0249086000BF8E
:1041E000704700001802002000BF0A48006850F81D
:1041F000080C0849096851F8041C08400549096879
:1042000041F8080C03480068001F0249086000BF1D
:10421000704700001802002000BF0A48006830F90B
:10422000080C0849096831F9041C08400549096867
:1042300021F8080C03480068001F0249086000BF0D
:1042400070470000180200200448006810F8040CB1
:10425000C0430249096801F8040C704718020020A5
:104260000448006850F8040CC0430249096841F84A
:10427000040C7047180200200448006830F9040C50
:10428000C0430249096821F8040C70471802002055
:1042900010B5A4B0DF48006800781390DD480068CE
:1042A000401CDC49086000201290DB480068001FB9
:1042B000D949086011E0D848006802681398401E88
:1042C0001299401A14A941F82020D3480068001F11
:1042D000D14908601298401C1290DDE91201884211
:1042E000E9D3CD48006800681190139811286ED268
:1042F000DFE800F0090E141D293747596E849CB67B
:10430000D2F4F2F1F000002011998847109074E186
:1043100014980F901199884710906EE115980F909E
:1043200014980E90119A0F999047109065E1169885
:104330000F9015980E9014980D90119BDDE90E12B8
:104340009847109059E117980F9016980E9015986D
:104350000D9014980C90119C0DA90EC9A0471090B7
:104360004BE11898009017980F9016980E9015989A
:104370000D9014980C90119C0DA90EC9A047109097
:104380003BE1DDE91801CDE9000117980F9016987F
:104390000E9015980D9014980C90119C0DA90EC9B3
:1043A000A047109029E1DDE919211898CDE90121F4
:1043B000009017980F9016980E9015980D901498DD
:1043C0000C90119C0DA90EC9A047109015E111E1A8
:1043D000DDE9193218991B98CDE90132009103905B
:1043E00017980F9016980E9015980D9014980C90A1
:1043F000119C0DA90EC9A0471090FEE0DDE919231C
:10440000DDE91B10CDE90123CDE9031018980090D8
:1044100017980F9016980E9015980D9014980C9070
:10442000119C0DA90EC9A0471090E6E0DDE91A2302
:10443000DDE91C10CDE90223CDE90410DDE9180106
:10444000CDE9000117980F9016980E9015980D90D1
:1044500014980C90119C0DA90EC9A0471090CCE0A7
:10446000DDE91C321B991E98CDE9043203910690B8
:10447000DDE919211898CDE90121009017980F90D6
:1044800016980E9015980D9014980C90119C0DA9EB
:104490000EC9A0471090B0E0DDE91C23DDE91E1035
:1044A000CDE90423CDE90610DDE9193218991B98EE
:1044B000CDE901320091039017980F9016980E9055
:1044C00015980D9014980C90119C0DA90EC9A04739
:1044D000109092E068E043E020E0FFE7DDE91E3263
:1044E0001D992098CDE9063205910890DDE9192340
:1044F000DDE91B01CDE90123CDE903011898009006
:1045000017980F9016980E9015980D9014980C907F
:10451000119C0DA90EC9A04710906EE0DDE91E1395
:10452000DDE92002CDE90613CDE90802DDE91A2311
:10453000DDE91C01CDE90223CDE90401DDE9180123
:10454000CDE9000117980F9016980E9015980D90D0
:1045500014980C90119C0DA90EC9A04710904CE026
:10456000DDE92031229A1F98CDE908310A9207909F
:10457000DDE91B23DDE91D01CDE90323CDE90501BB
:10458000DDE919211898CDE90121009017980F90C5
:1045900016980E9015980D9014980C90119C0DA9DA
:1045A0000EC9A047109028E0DDE921322099239818
:1045B000CDE9093208910B90DDE91D321C991F9855
:1045C000CDE9053204910790DDE91823DDE91A10E1
:1045D000CDE90023CDE9021017980F9016980E90A0
:1045E00015980D9014980C90119C0DA90EC9A04718
:1045F000109002E00020109000BF00BF0649109804
:104600000968086004480068001D0349086024B078
:1046100010BD00001C0200201802002000BF0A4844
:10462000006810F8080C0849096811F8041C90FB90
:10463000F1F00549096801F8080C03480068001FFB
:104640000149086000BF70471802002000BF0A48F7
:10465000006850F8080C0849096851F8041C90FBE0
:10466000F1F00549096841F8080C03480068001F8B
:104670000149086000BF70471802002000BF0B48C6
:10468000006830F9080C0949096831F9041C90FBED
:10469000F1F000B20549096821F8080C03480068E8
:1046A000001F0249086000BF704700001802002088
:1046B00008480068007808490968087006480068DA
:1046C000001D0549086003480068401C0149086056
:1046D000704700001C020020180200200F480068EC
:1046E00000780E490968497840EA01200B490968B9
:1046F000897840EA014009490968C97840EA0160BF
:1047000007490968086006480068001D04490860F8
:1047100002480068001D0149086070471C02002023
:10472000180200201049096809780F4A1268527867
:1047300041EA02210C4A1268927841EA02410A4A8F
:104740001268D27841EA02600178084A1268117052
:1047500006490968091D054A116003490968091DD0
:10476000014A1160704700001C020020180200205E
:104770000449096851F8040C0178024A126802F8E9
:10478000041C7047180200201049096809780F4A74
:104790001268527841EA02210C4A1268927841EA82
:1047A00002410A4A1268D27841EA0260084A016866
:1047B0001268116006490968091D054A116003491C
:1047C0000968091D014A1160704700001C020020A1
:1047D000180200200449096851F8040C024A0168D3
:1047E000126842F8041C704718020020104909683A
:1047F00009780F4A1268527841EA02210C4A12687D
:10480000927841EA02410A4A1268D27841EA02608B
:104810000188084A1268118006490968091D054A7D
:10482000116003490968091D014A116070470000C1
:104830001C020020180200200449096851F8040CE9
:104840000188024A126822F8041C704718020020EE
:104850000B48006800780A490968497840EA012055
:1048600000B208490968088006480068001D05492B
:10487000086003480068801C014908607047000018
:104880001C0200201802002000BF0B48006810F82E
:10489000080C0949096811F8041C90FBF1F201FBAE
:1048A00012000549096801F8080C03480068001F58
:1048B0000149086000BF70471802002000BF0B4884
:1048C000006850F8080C0949096851F8041C90FB6D
:1048D000F1F201FB12000549096841F8080C034890
:1048E0000068001F0149086000BF704718020020DF
:1048F00000BF0B48006830F9080C0949096831F914
:10490000041C90FBF1F201FB12000549096821F833
:10491000080C03480068001F0149086000BF704789
:104920001802002000BF0A48006810F8080C084967
:10493000096811F8041C48430549096801F8080C86
:1049400003480068001F0249086000BF704700006C
:104950001802002000BF0A48006850F8080C0849F7
:10496000096851F8041C48430549096841F8080CD6
:1049700003480068001F0249086000BF704700003C
:104980001802002000BF0A48006830F8080C0849E7
:10499000096831F8041C484300B20549096821F848
:1049A000080C03480068001F0149086000BF7047F9
:1049B000180200207047000000BF0A48006810F885
:1049C000080C0849096811F8041C084305490968DE
:1049D00001F8080C03480068001F0249086000BF86
:1049E000704700001802002000BF0A48006850F815
:1049F000080C0849096851F8041C0843054909686E
:104A000041F8080C03480068001F0249086000BF15
:104A1000704700001802002000BF0A48006830F903
:104A2000080C0849096831F9041C0843054909685C
:104A300021F8080C03480068001F0249086000BF05
:104A4000704700001802002002480068001F01495A
:104A5000086070471802002000BF0A48006810F87C
:104A6000080C0849096811F8041C884005490968C0
:104A700001F8080C03480068001F0249086000BFE5
:104A8000704700001802002000BF0A48006850F874
:104A9000080C0849096811F8041C88400549096890
:104AA00041F8080C03480068001F0249086000BF75
:104AB000704700001802002000BF0A48006830F864
:104AC000080C0849096811F8041C884000B205491F
:104AD000096821F8080C03480068001F01490860B4
:104AE00000BF70471802002000BF0A48006810F895
:104AF000080C0849096811F8041C084105490968AF
:104B000001F8080C03480068001F0249086000BF54
:104B1000704700001802002000BF0A48006850F8E3
:104B2000080C0849096811F8041C0841054909687E
:104B300041F8080C03480068001F0249086000BFE4
:104B4000704700001802002000BF0A48006830F9D2
:104B5000080C0849096811F8041C0841054909684E
:104B600021F8080C03480068001F0249086000BFD4
:104B700070470000180200200748006810F8040C75
:104B80000549096851F8081C087003480068001FAF
:104B900001490860704700001802002007480068BB
:104BA00050F8040C0549096851F8081C08600348CE
:104BB0000068001F014908607047000018020020CB
:104BC0000748006830F8040C0549096851F8081CCA
:104BD000088003480068001F014908607047000012
:104BE0001802002000BF0A48006810F8080C0849A5
:104BF000096811F8041C401A0549096801F8080CF5
:104C000003480068001F0249086000BF70470000A9
:104C10001802002000BF0A48006850F8080C084934
:104C2000096851F8041C401A0549096841F8080C44
:104C300003480068001F0249086000BF7047000079
:104C40001802002000BF0A48006830F8080C084924
:104C5000096831F8041C401A00B20549096821F8B6
:104C6000080C03480068001F0149086000BF704736
:104C70001802002000BF0A48006810F8080C084914
:104C8000096811F8041C48400549096801F8080C36
:104C900003480068001F0249086000BF7047000019
:104CA0001802002000BF0A48006850F8080C0849A4
:104CB000096851F8041C48400549096841F8080C86
:104CC00003480068001F0249086000BF70470000E9
:104CD0001802002000BF0A48006830F9080C084993
:104CE000096831F9041C48400549096821F8080C95
:104CF00003480068001F0249086000BF70470000B9
:104D00001802002070B504460D461048204008B92E
:104D100004B104E040F22B410DA002F06FF90DB197
:104D2000012D00D104E040F22C4109A002F066F907
:104D30002DB11648406920431449486104E01348E6
:104D40004069A0431149486170BD0000A82FFEFFD3
:104D50002E2E5C4C69627261726965735C53544DAE
:104D60003332463130785F537464506572697068CD
:104D70005F4472697665725C7372635C73746D33E1
:104D800032663130785F7263632E63000010024038
:104D900070B504460D4624F4A04008B904B104E0FF
:104DA00040F284410CA002F029F90DB1012D00D18F
:104DB00004E040F2854108A002F020F92DB1154829
:104DC000806A20431349886204E01248806AA04345
:104DD0001049886270BD00002E2E5C4C69627261C1
:104DE000726965735C53544D3332463130785F538A
:104DF00074645065726970685F4472697665725C4C
:104E00007372635C73746D3332663130785F7263D2
:104E1000632E63000010024070B504460D46104832
:104E2000204008B904B104E040F269410DA002F04D
:104E3000E5F80DB1012D00D104E040F26A4109A06E
:104E400002F0DCF82DB11648C06920431449C8614E
:104E500004E01348C069A0431149C86170BD000057
:104E6000003601812E2E5C4C696272617269657335
:104E70005C53544D3332463130785F53746450651F
:104E8000726970685F4472697665725C7372635CA4
:104E900073746D3332663130785F7263632E6300F2
:104EA0000010024070B504460D461048204008B975
:104EB00004B104E040F24A410DA002F09FF80DB1A8
:104EC000012D00D104E040F24B4109A002F096F818
:104ED0002DB11648806920431449886104E01348C5
:104EE0008069A0431149886170BD00000200C0FFC5
:104EF0002E2E5C4C69627261726965735C53544D0D
:104F00003332463130785F5374645065726970682B
:104F10005F4472697665725C7372635C73746D333F
:104F200032663130785F7263632E63000010024096
:104F300010B501214FF4E030FFF7E4FE01217D20A0
:104F4000FFF7B0FF10BD10B501211120FFF7AAFF38
:104F50000121C804FFF760FF01213120FFF7A2FF04
:104F600001210805FFF758FF10BD00002DE9F041B1
:104F700000210022002500230026002400278C4663
:104F8000DFF86081D8F8048008F00C0121B1042911
:104F900007D0082959D109E0DFF84C81C0F800801A
:104FA00058E0DFF84881C0F8008053E0DFF8348132
:104FB000D8F8048008F47012DFF82881D8F804804B
:104FC00008F48035920C0D2A01D0921C00E00622D4
:104FD00035B9DFF81C8102FB08F8C0F8008033E027
:104FE000DFF80081D8F82C8008F48036DFF8F480F0
:104FF000D8F82C8008F00F0808F1010446B9DFF852
:10500000EC80B8FBF4F808FB02F8C0F800801BE065
:10501000DFF8D080D8F82C80C8F3031808F1010716
:10502000DFF8C080D8F82C80C8F3032808F1020C00
:10503000DFF8B880B8FBF7F808FB0CF8B8FBF4F819
:1050400008FB02F8C0F8008004E0DFF89C80C0F89C
:10505000008000BF00BFDFF88C80D8F8048008F023
:10506000F0010909DFF88C8018F80130D0F80080D1
:1050700028FA03F8C0F80480DFF86880D8F80480C4
:1050800008F4E061090ADFF86C8018F80130D0F804
:10509000048028FA03F8C0F80880DFF84880D8F8C0
:1050A000048008F46051C90ADFF8488018F801301C
:1050B000D0F8048028FA03F8C0F80C80DFF82480C8
:1050C000D8F8048008F44041890BDFF82C8018F8E8
:1050D0000130D0F80C80B8FBF3F8C0F81080BDE8C0
:1050E000F08100000010024000127A0040787D013B
:1050F00000093D0055000020650000202DE9F04129
:105100000446002500260027212C17D0312C15D06D
:10511000392C13D0412C11D03B2C0FD03D2C0DD06D
:10512000612C0BD07A2C09D07B2C07D07C2C05D09D
:105130007D2C03D07E2C01D07F2C00D104E040F2E6
:1051400034510EA001F05AFF6511012D02D11A4809
:10515000066806E0022D02D11748066A01E01648EB
:10516000466A04F01F050120A840304008B101271D
:1051700000E000273846BDE8F08100002E2E5C4C90
:1051800069627261726965735C53544D33324631A2
:1051900030785F5374645065726970685F447269F7
:1051A0007665725C7372635C73746D333266313032
:1051B000785F7263632E63000010024010B50446EE
:1051C0007CB1052C0DD0042C0BD0062C09D0072C5B
:1051D00007D0082C05D0092C03D00A2C01D00B2CA9
:1051E00000D104E040F2055102A001F007FF104891
:1051F000C47110BD2E2E5C4C696272617269657358
:105200005C53544D3332463130785F53746450658B
:10521000726970685F4472697665725C7372635C10
:1052200073746D3332663130785F7263632E63005E
:105230000010024010B504460CB1012C00D104E06E
:1052400040F2262102A001F0D9FE1048046710BDEB
:105250002E2E5C4C69627261726965735C53544DA9
:105260003332463130785F537464506572697068C8
:105270005F4472697665725C7372635C73746D33DC
:1052800032663130785F7263632E63000000424201
:1052900070B504460025B4F5C04F17D0B4F5E04F03
:1052A00014D0B4F5004F11D0B4F5104F0ED0B4F5B2
:1052B000204F0BD0B4F5304F08D0B4F5404F05D097
:1052C000B4F5604F02D0B4F5704F00D104E04FF454
:1052D000047105A001F092FE1248C56A25F47045DC
:1052E0002543C56270BD00002E2E5C4C6962726160
:1052F000726965735C53544D3332463130785F5375
:1053000074645065726970685F4472697665725C36
:105310007372635C73746D3332663130785F7263BD
:10532000632E63000010024008B50520ADF80000B0
:1053300010208DF8030003208DF80200694608480C
:10534000FEF7F8FB4FF48070ADF8000014208DF8E4
:10535000030069460248FEF7EDFB002008BD00008F
:1053600000080140704710B500F002F810BD0000C1
:105370000CB50020019000903F48006840F4803058
:105380003D49086000BF3C48006800F400300090D0
:105390000198401C0190009818B90198B0F5A06FD1
:1053A000F1D13548006800F4003010B101200090C0
:1053B00001E000200090009801285CD12F4800688F
:1053C00040F010002D4908600846006820F00300F6
:1053D00008600846006840F00200086026484068FF
:1053E000254948600846406848600846406840F4DF
:1053F000806048600846C06A214908401E49C8626A
:105400000846C06A1F4908431B49C862084600682D
:1054100040F08060086000BF1748006800F000603E
:105420000028F9D01448406820F47C1012494860E4
:105430000846406840F4E81048600846006840F0BC
:105440008070086000BF0C48006800F00070002801
:10545000F9D00948406820F0030007494860084631
:10546000406840F00200486000BF0348406800F018
:105470000C000828F9D10CBD0010024000200240A9
:1054800000F0FEFF4406010010B512F0EBF815F035
:10549000EBF812F009F910BD10B51648006840F09D
:1054A0000100144908600846406813490840114942
:1054B000486008460068114908400E4908600846DF
:1054C000006820F4802008600846406820F4FE0050
:1054D00048600846006820F0A05008604FF47F0044
:1054E00088600020C862FFF73EFF4FF0006004496B
:1054F000086010BD001002400000FFF0FFFFF6FE44
:1055000008ED00E010B512F0ADF803481BF07CFC8C
:1055100012F0CAF810BD00009428002010B512F057
:10552000A1F803481BF070FC12F0BEF810BD00009B
:10553000E82800202DE9F04104460D46002600270A
:10554000224884420BD02248844208D02148844219
:1055500005D02148844202D02048844200D104E092
:1055600040F20A411EA001F049FD40F2266085424A
:105570000BD040F22550854207D040F646008542C8
:1055800003D040F66A10854200D104E040F20B419E
:1055900013A001F033FD40F66A1085420ED10B488E
:1055A000844205D00A48844202D00A48844200D18D
:1055B00004E040F20F410AA001F020FD2E1201206C
:1055C000B04087B2F8432080BDE8F0810038014048
:1055D0000044004000480040004C004000500040A3
:1055E0002E2E5C4C69627261726965735C53544D16
:1055F0003332463130785F53746450657269706835
:105600005F4472697665725C7372635C73746D3348
:1056100032663130785F75736172742E63000000FA
:1056200070B504460D46154884420BD01448844298
:1056300008D01448844205D01348844202D013484D
:10564000844200D104E04FF4B17111A001F0D6FC06
:105650000DB1012D00D104E040F263110CA001F066
:10566000CDFC25B1A08940F40050A08104E0A089C0
:105670004DF6FF710840A08170BD00000038014068
:105680000044004000480040004C004000500040F2
:105690002E2E5C4C69627261726965735C53544D65
:1056A0003332463130785F53746450657269706884
:1056B0005F4472697665725C7372635C73746D3398
:1056C00032663130785F75736172742E630000004A
:1056D00070B504460D461646184884420BD018484B
:1056E000844208D01748844205D01748844202D02B
:1056F0001648844200D104E040F2C31114A001F026
:105700007DFC4FF63F70284008B905B104E04FF426
:10571000E2710FA001F072FC0EB1012E00D104E085
:1057200040F2C5110AA001F069FC1EB1A08A28430D
:10573000A08202E0A08AA843A08270BD0038014088
:105740000044004000480040004C00400050004031
:105750002E2E5C4C69627261726965735C53544DA4
:105760003332463130785F537464506572697068C3
:105770005F4472697665725C7372635C73746D33D7
:1057800032663130785F75736172742E6300000089
:1057900070B505460C460026254885420BD02548A5
:1057A000854208D02448854205D02448854202D04D
:1057B0002348854200D104E040F26E3121A001F07F
:1057C0001DFC012C13D0802C11D0402C0FD0202C8C
:1057D0000DD0102C0BD0B4F5807F08D0B4F5007F2D
:1057E00005D0082C03D0042C01D0022C00D104E0F9
:1057F00040F26F3113A001F001FCB4F5007F0ED12F
:105800000B48854205D00B48854202D00A488542A4
:1058100000D104E040F273310AA001F0EFFB2888C8
:10582000204008B1012600E00026304670BD00008F
:10583000003801400044004000480040004C004057
:10584000005000402E2E5C4C696272617269657373
:105850005C53544D3332463130785F537464506535
:10586000726970685F4472697665725C7372635CBA
:1058700073746D3332663130785F75736172742E74
:10588000630000002DE9F04705460C46002700267E
:10589000B046B1463A4885420BD03A48854208D0D6
:1058A0003948854205D03948854202D0384885427A
:1058B00000D104E040F2C13136A001F09FFB282C5A
:1058C00020D040F2277084421CD040F226608442EF
:1058D00018D040F22550844214D040F22440844233
:1058E00010D040F6460084420CD040F66A10844244
:1058F00008D0B4F5587F05D0B4F5187F02D0B4F5C0
:10590000B07F00D104E040F2C23122A001F076FB6A
:1059100040F66A1084420ED11948854205D01948D4
:10592000854202D01848854200D104E040F2C631D9
:1059300018A001F063FBC4F3421804F01F06012015
:1059400000FA06F6B8F1010F02D1A889064007E077
:10595000B8F1020F02D1288A064001E0A88A064069
:105960002712012000FA07F7288807401EB117B157
:105970004FF0010901E04FF000094846BDE8F0870B
:10598000003801400044004000480040004C004006
:10599000005000402E2E5C4C696272617269657322
:1059A0005C53544D3332463130785F5374645065E4
:1059B000726970685F4472697665725C7372635C69
:1059C00073746D3332663130785F75736172742E23
:1059D000630000002DE9F04705460C4617464FF0DE
:1059E0000008C246C1460026384885420BD03848D8
:1059F000854208D03748854205D03748854202D0D5
:105A00003648854200D104E040F2891134A001F00B
:105A1000F5FA282C19D040F22770844215D040F2B4
:105A20002660844211D040F2255084420DD040F2CD
:105A30002440844209D040F64600844205D040F616
:105A40006A10844201D0602C00D104E04FF4C5718B
:105A500023A001F0D3FA0FB1012F00D104E040F2EE
:105A60008B111FA001F0CAFA40F66A1084420ED1D1
:105A70001648854205D01648854202D01548854211
:105A800000D104E040F28F1115A001F0B7FA2E46C4
:105A9000C4F3421804F01F0A012000FA0AF9B8F111
:105AA000010F01D10C3605E0B8F1020F01D110361B
:105AB00000E0143627B1306840EA0900306003E0A6
:105AC000306820EA09003060BDE8F0870038014006
:105AD0000044004000480040004C0040005000409E
