:020000040800F2
:10000000F08F0020A9020008895400088D03000821
:1000100085540008133200088D74000800000000A9
:10002000000000000000000000000000196A000845
:100030005D3A000800000000170300083D6B00084F
:10004000C3020008C3020008C3020008C30200087C
:10005000C3020008C3020008C3020008C30200086C
:10006000C3020008C3020008C3020008C30200085C
:10007000C3020008C3020008C302000819320008C6
:10008000C3020008C3020008C3020008C30200083C
:10009000C3020008C3020008C3020008394B00086D
:1000A000C3020008C3020008C3020008C30200081C
:1000B000C3020008C3020008C3020008C30200080C
:1000C000C3020008C3020008C3020008C3020008FC
:1000D000C3020008D96B0008C3020008C30200086D
:1000E000C3020008C3020008C302000800000000A9
:1000F0000000000000000000000000000000000000
:100100000000000000000000C3020008C302000855
:10011000B96B0008C3020008C3020008C30200084C
:10012000C3020008C302000831320008C3020008FD
:10013000C3020008213E0008C3020008C3020008F1
:10014000C3020008C3020008C3020008C30200087B
:1001500000F002F800F07FF80AA090E8000C82445A
:100160008344AAF10107DA4501D100F074F8AFF237
:10017000090EBAE80F0013F0010F18BFFB1A43F085
:100180000103184760AB020080AB02000A444FF045
:10019000000C10F8013B13F0070408BF10F8014BE6
:1001A0001D1108BF10F8015B641E05D010F8016B2B
:1001B000641E01F8016BF9D113F0080F1EBF10F88F
:1001C000014BAD1C0C1B09D16D1E58BF01F801CBB2
:1001D000FAD505E014F8016B01F8016B6D1EF9D535
:1001E0009142D6D37047000000230024002500264A
:1001F000103A28BF78C1FBD8520728BF30C148BF8A
:100200000B607047662928F0CB84642900F0428196
:10021000782900F07B81632901F09880732901F02F
:100220009D80002070471FB500F01BFB01F056FBBE
:1002300004000020002128F0DFFA401C606000204C
:10024000002128F0C3FAE06001F0C4FD1FBD10B525
:1002500001F029FE10BD01F075FE1146FFF7E3FF26
:1002600016F04AFD02F049F903B4FFF7F0FF03BCB2
:1002700008F01CFC0B49D1F800C04A685CF8043B4C
:100280001068184442F8040B8C4528BFA1F1DC0C1F
:100290008A4228BFA1F1DC02C1F800C04A6020F008
:1002A0000040704788880020094880470948004777
:1002B000FEE7FEE7FEE7FEE7FEE7FEE7FEE7FEE716
:1002C000FEE7FEE704480549054A064B7047000073
:1002D0004D6B000851010008F0890020F08F0020CC
:1002E000F08B0020F08B0020EFF3108072B6704787
:1002F00080F310887047314A1368012B04D04FF007
:10030000010313602E4A10602E4A11602E484FF0F0
:10031000805101607047EFF3108272B62748016880
:1003200091B14FF0000101602548016829B1EFF358
:10033000098121E9F00F0068016022490968096814
:10034000B1E8F00F81F3098882F310884EF0040EB3
:1003500070471C4908601A494FF0000008601749AF
:100360004FF00100086019484FF47F01D0F80020D9
:1003700041EA0201016014484FF0805101601448C5
:100380000068006880F3088862B670471EF0040FAA
:1003900014BFEFF30880EFF3098020E9F00F40F875
:1003A00004ED14BF80F3088880F3098800B51BF0C2
:1003B00009FE5DF804EB4EF0040E7047A401002026
:1003C0009C010020A001002004ED00E020ED00E0F1
:1003D00008ED00E070477047704700000FB4044913
:1003E00010B503AA029800F0BDFF10BC5DF814FB25
:1003F000E488002070B5044685690068C10601D50F
:10040000302600E02026C00707D070BDD4E90121C6
:1004100030469047206A401C20626D1EF6D570BDA4
:1004200070B5044685690078C00707D170BDD4E96E
:10043000012120209047206A401C20626D1EF6D5C5
:1004400070BD70B50C460546012A05D02878800697
:1004500000D5EA69002302E0012305E05B1C93421A
:1004600002D2E05C0028F9D1A869E618C01AA86198
:10047000286A184428622846FFF7BCFF04E0D5E943
:10048000012114F8010B9047B442F8D32846FFF736
:10049000C7FF70BD2DE9F04106460024106875299C
:1004A000314616A510D0AFF30080002802DA404292
:1004B00013A507E031688A0701D512A502E04907B4
:1004C00004D511A5012401E0AFF3008000210A2228
:1004D00006F1240709E0B0FBF2FCB0FBF2F302FBEB
:1004E0001C00303078541846491C0028F3D12346AC
:1004F0002A463046BDE8F04100F09FBC00000000F5
:100500002D0000002B0000002000000070B5044604
:100510000D4621461068AFF300802188090502D5F9
:100520000F4A7A4402E00E4A7A440E32002104F166
:10053000240305E000F00F060009965D5E54491C97
:100540000028F7D120780023000704D5702D02D0B1
:1005500009B1022311322046BDE8704000F06DBCA5
:10056000DA9502002DE9F05F894604464FF0000A53
:10057000DFF824B1FB44C0F820A02046E16888479A
:1005800000287DD0252806D0D4E901219047206A93
:10059000401C2062F1E700255F462046E16888475D
:1005A0002028064607DB312E05D2B81910F8200C9A
:1005B00008B10543F1E7A80701D525F00405C4F803
:1005C0001CA00027C4F818A02A2E09D0304607F036
:1005D000F9F938B304EB8708303EC8F8186019E021
:1005E00059F8041B204604EB87029161E1688847B3
:1005F000012F064618D1E069002820DA25F02005F1
:100600001DE0D8F8180000EB800006EB4000303801
:10061000C8F818002046E1688847064607F0D2F976
:100620000028EED1012F0AD02E2E08D12046E168F5
:1006300088477F1C0646022F45F02005C4DBA069D1
:10064000002803DA404245F00105A061E80701D027
:1006500025F01005A6B1A6F14100192802D82036D0
:1006600045F400654A463146204625604D46FFF771
:10067000C9FD60B1012807D0ED1D25F0070000E09D
:1006800007E000F1080978E705F1040975E730464D
:100690007AE7206ABDE8F09FB095020070B5064683
:1006A00000F0BCFB0468054630460A22002100F039
:1006B000BBFE2C6070BD2DE9F04117460D46044687
:1006C0000646012913DD384610F0B0FE411C0CD05F
:1006D000C0B20A2804F8010B02D06D1E012DF2DC15
:1006E000002020703046BDE8F081B44201D10020E6
:1006F000F9E7384600F0D0FE0028F1D00026EFE7F9
:100700002DE9F0410C4607461646104600F06EF8FB
:100710002078611C61280AD0722802D077283CD149
:1007200002E00125002405E00225042402E008245B
:1007300048F2020511F8010B2B2806D0622809D0D7
:1007400011F8010C74280AD00BE045F0030544F0C1
:100750000204EFE745F0040544F00104EAE744F041
:1007600010043846214608F0ABF9411C15D0002191
:10077000316171604FF40071F560F16170612007C3
:1007800004D530460222002100F0A8FF306D40F071
:10079000010030653046BDE8F0810020FBE72DE91F
:1007A000F0410D460646104C206DC10704D04108AB
:1007B00004D020F00104F7E722460EE0542016F0A2
:1007C000F1FA07000ED0206D47F0010108435421D3
:1007D0002065384600F0B8F93A4629463046BDE86B
:1007E000F0418DE70020D6E7908800202DE9F04702
:1007F00004464FF000094FF0FF37C568D4E904867E
:10080000A80707D0204601F019F8304608F044F94F
:10081000002802DA3846BDE8F087280502D54046B0
:1008200013F076FA4C21204600F08EF9206D20F06E
:10083000010020654846EEE70B4910B5A1F17C02A6
:100840000A4CC2E93712372106E000EB104342F8A8
:100850002130074B00FB03400B1EA1F10101F4DC2A
:1008600010BD0120E8E7000028880020E119D666C5
:10087000CD0D010040EA010310B59B070FD1042AFA
:100880000DD310C808C9121F9C42F8D020BA19BA5B
:10089000884201D9012010BD4FF0FF3010BD1AB1C0
:1008A000D30703D0521C07E0002010BD10F8013B15
:1008B00011F8014B1B1B07D110F8013B11F8014B3C
:1008C0001B1B01D1921EF1D1184610BD40EA010355
:1008D000024630B59B0710D14FF0013400E008C24A
:1008E00008C91D1B9D4315EAC41FF8D013F0FF0172
:1008F00002F8011B0DD01B0AF8E711F8013B002B91
:1009000002F8013B05D011F8013B002B02F8013B36
:10091000F3D130BD0022CBB210F8011B994200D1B7
:10092000421E0029F8D11046704710B5431C02E062
:1009300010F8011B71B18107FAD14FF0013202C8E2
:100940008C1A8C4314EAC211F9D0C01A0A0603D0DB
:10095000C01E10BDC01A10BD0A0401D0801E10BDFB
:100960000902FCD0401E10BD40EA010370B59B0790
:100970002ED14FF00136042A2AD308C810C99D1B76
:100980009D43121F15EAC61517D0D8B2E1B2401A1E
:1009900050EA056110D198B2A1B2401A50EA05415F
:1009A0000AD123F07F4024F07F41401A50EA05210C
:1009B00002D1180EA0EB146070BDA342DBD018BAB0
:1009C00021BA884201D9012070BD4FF0FF3070BDBF
:1009D0000AB9002070BD10F8013B11F8014B63B15A
:1009E000A3420AD1521E08D010F8013B11F8014B66
:1009F0001BB1A34201D1521EEDD1181B70BD421E86
:100A000012F8013F002BFBD111F8013B002B02F83B
:100A1000013BF9D17047032A40F2308010F0030CFB
:100A200000F0158011F8013BBCF1020F624498BF41
:100A300011F801CB00F8013B38BF11F8013BA2F1DE
:100A4000040298BF00F801CB38BF00F8013B11F059
:100A5000030300F02580083AC0F0088051F8043BF9
:100A6000083A51F804CBA0E80810F5E7121D5CBF66
:100A700051F8043B40F8043BAFF30080D20724BF99
:100A800011F8013B11F801CB48BF11F8012B24BF2D
:100A900000F8013B00F801CB48BF00F8012B70477C
:100AA00010B5203AC0F00B80B1E81850203AA0E809
:100AB0001850B1E81850A0E81850BFF4F5AF5FEA3D
:100AC000027C24BFB1E81850A0E8185044BF18C9F0
:100AD00018C0BDE810405FEA827C24BF51F8043B97
:100AE00040F8043B08BF7047D20728BF31F8023BEB
:100AF00048BF11F8012B28BF20F8023B48BF00F87F
:100B0000012B70474FF000020429C0F0128010F052
:100B1000030C00F01B80CCF1040CBCF1020F18BFD9
:100B200000F8012BA8BF20F8022BA1EB0C0100F06C
:100B30000DB85FEAC17C24BF00F8012B00F8012B3F
:100B400048BF00F8012B70474FF0000200B5134674
:100B500094469646203922BFA0E80C50A0E80C50DD
:100B6000B1F12001BFF4F7AF090728BFA0E80C508E
:100B700048BF0CC05DF804EB890028BF40F8042B87
:100B800008BF704748BF20F8022B11F0804F18BFF4
:100B900000F8012B704710B5044610F0030F08BF92
:100BA00011F0030F40F015804FF0013E121FC0F20C
:100BB0000E8051F8043BA3EB0E0C2CEA030C1CEA4C
:100BC000CE1C08BF40F8043BF0D0A1F1040102F1B3
:100BD0000402521E08DB11F8013B002B00F8013B18
:100BE000F7D11146FFF78EFF204610BD4FF0013CB4
:100BF00050F8042B51F8043B9A4221D1A2EB0C038C
:100C0000934313EACC1317D150F8042B51F8043B4B
:100C10009A4215D1A2EB0C03934313EACC130BD1E8
:100C200050F8042B51F8043B9A4209D1A2EB0C0373
:100C3000934313EACC13DBD04FF00000704700BFA2
:100C4000D01A01BAB1FA81F101F0180122FA01F0CB
:100C5000CB40C1F12001DBB2C0B2C01A2CFA01F3C3
:100C6000D11A914311EAC311E6D1704710B5036858
:100C70001C1404EB21449BB289B2194494FBF2F397
:100C800002FB134394FBF2F401EB034393FBF2F1F9
:100C900002FB113193FBF2F301E05B1E11440029CA
:100CA000FBDB016003EB044010BD2DE9F047044677
:100CB0004FF0FF3A86B00068029060680390A06829
:100CC0000490E068019020690090656905F180401A
:100CD000B0F1004F7DD83C22002102A8FFF7C6FFEB
:100CE0003C22014603A8FFF7C1FF1822014604A8D1
:100CF000FFF7BCFF411E40F2B55201A8FFF7B6FF57
:100D00000C22064668460021FFF7B0FF00EB860084
:100D100028443E4D00267D440FE09A1A491CCDE937
:100D20000012022902D00C2907D104E0810704D067
:100D3000521C019201E0401C00960099019B6A5CE4
:100D40009A42EADD012906D11C2B04D1810702D089
:100D50000221CDE90016A0F146018B2940D201996C
:100D6000009B00220F4602E0AE5C521C31449A42C6
:100D7000FADB012B02DD820700D0491E40F2B55597
:100D800040F26D16C21700EB927292106A4300F0A7
:100D9000030505FB062285070A4400D1521E049D67
:100DA00002EB4206DDF80C80A94605EBC605184E9D
:100DB000C5EB0515DDF808C008EB850535442E1494
:100DC000ADB2C6EB0616C5EB0515B6000CEB8505F6
:100DD00000E005E006EB154666F31F45360C03D030
:100DE000504606B0BDE8F087C4E904307F1C0720F8
:100DF000521CC4E9029792FBF0F3E4E806C800FB3A
:100E0000132084E803042846EBE700001F8E02004D
:100E1000A039CEFD7047704770470000004870470A
:100E20008C89002010B5FFF7F9FF006810BD10B5E0
:100E30000446FFF7F3FF046010BD2DE9F0470D46AF
:100E400099469246044600F124080168880604D5B4
:100E5000E06921F01001216000E00120A84201DDDD
:100E6000471B00E00027A1697A1902EB0900081A64
:100E7000A0612078C00602D42046FFF7BBFA002606
:100E800008E0D4E901211AF806009047206A401CC6
:100E9000761C20624E45F4DB2078C0060AD5204639
:100EA000FFF7A8FA06E0D4E9012130209047206A34
:100EB000401C2062381EA7F10107F4DC07E0D4E9EA
:100EC000012118F805009047206A401C2062281E66
:100ED000A5F10105F3DC2046FFF7A2FA2078000611
:100EE00002D50220BDE8F0870120FBE770472DE91D
:100EF000FF4F0C461E464FF0FF378BB0D2E9000182
:100F0000DDF860800A908A46C1F30A5505B93D466E
:100F1000002108464FF00000BAF1000F00F4400035
:100F200005DA00EB80004FF4400101EA50004FEA7F
:100F30009059B9F1010F00DDB9460A9850EA4A000C
:100F40000ED044F61050A5F2FF3545432F14B8F1EA
:100F5000000F1ED07542291E1EDDC9F100021CE0E3
:100F6000B8F1010F4FF0000001D0302103E0F2434F
:100F700005E02154401CB042FBDB3046002200213A
:100F800021540B99C1F80880C1E900200FB0BDE8D9
:100F9000F08FBD1B6D1CDEE74A4600DA694206A8E9
:100FA00000F09EFD06AB93E8070003AB83E8070063
:100FB00050460A9901F020FD8DE80700A0F5005089
:100FC0001F3800900398002D09DD42F21F014A46A8
:100FD000084403A90390684601F0A9FF08E0A0F5C2
:100FE00000504A461F3803A90390684601F0C7FF26
:100FF0008DE807000004000C03D04FF0FF304108DB
:1010000000E01046B8F1000F03D000220092154610
:101010001EE0751E05D400F065FC303262556D1E71
:10102000F9D5B3460122084302D000227F1C04E018
:101030002078302801D100227F1E002A099786D00F
:101040001DE0112D07DA00F04DFC303262556D1CA9
:1010500050EA0102F5D1084302D00098C8B10EE071
:101060000021681E05E0235C625C63542254401E2C
:10107000491C8142F7DBAB46A81B401E09900020AB
:1010800004F80B000B98099AC0F80880C0E9002BFF
:101090007CE711264FF0000859E72DE9F04F88460C
:1010A0000446D21D22F0070191B0D1E90001CDE93B
:1010B0000A0106F0CFFB02460B98C00F01D02D208D
:1010C00007E02068810701D52B2002E0202101EAFA
:1010D000C000032A099001D0072A05DB03464146D8
:1010E000204600F04DFC0BE12078800601D5E06938
:1010F00000E00620B8F1650F814606D0B8F1660F12
:1011000018D0B8F1670F70D131E00020B9F1110F9C
:10111000009001DB112301E009F101030AAA01A9F2
:101120000CA8FFF7E4FEDDE90C70002609F10105CB
:10113000834647E001204B4600904FF000470AAA43
:1011400001A90CA8FFF7D3FEDDE90DB00C995D46AF
:10115000002610B909F101000D18B9EB050003D400
:10116000C0F1FF3609F10105A5EB09002BE0B9F14B
:10117000010F01DA4FF001090020B9F1110F0090C1
:10118000484601DD112300E003460AAA01A90CA884
:10119000FFF7ADFEDDE90C704D4600268346207852
:1011A00000070AD4AB4500DA5D4601A8012D04DD35
:1011B000411911F8011C302907D04F4502DA17F107
:1011C000040F04DA012082460FE06D1EEEE7002FC7
:1011D00002DCED1B3E4403E0781CA84200DD7D1CD0
:1011E000B81B00F1010A4FF000472078000703D434
:1011F000AA4501DB4FF0FF3A0021B7F1004F0DF196
:1012000043088DF8431024D002202B23002F01DA4D
:101210007F422D230A21021EA0F1010000DC5FB1F4
:1012200097FBF1FC97FBF1F201FB1C7C17460CF1DC
:10123000300C08F801CDEEE7A8F101000370218819
:10124000090501D5452100E06521A0F1010800F85C
:10125000011C09980FA9A1EB0807FF1D00B101208F
:10126000411901EBEA70A1693844081A401EA061D7
:101270002078C00602D42046FFF7BCF8099828B1B0
:10128000D4E901219047206A401C20622078C006E2
:1012900022D52046FFF7AEF81EE0002E04DBB34552
:1012A00002DD01A8805D00E03020D4E901219047F3
:1012B000206A401C2062761CAAF101005FEA000A45
:1012C0000AD100F00BFBC0680168405CD4E9012141
:1012D0009047206A401C2062281EA5F10105DCDC35
:1012E00007E0D4E9012118F8010B9047206A401C5F
:1012F0002062381EA7F10107F3DC2046FFF790F8C3
:10130000032011B043E6000001694A1C026108781D
:10131000704700B58FB0CDE9013100210591054935
:101320007944CDE9031011466846FFF71BF90FB069
:1013300000BD0000E5FFFFFF10B5436913B1AFF337
:10134000008001E0FFF77DF8012010BD127800F168
:1013500024010A7000224A700122EDE711684FF063
:10136000FF32E9E7074B70B50D467B44FFF7D1FF2D
:101370000446284600F090F810B14FF0FF3070BDE1
:10138000204670BD892901000FB4002300B589B043
:101390000CA900910B99CB60204B7B440693204B0A
:1013A0007B44079304236FF00042CDE901321D4ACC
:1013B0007A446B4608920246002027F053FC09B09D
:1013C0005DF814FB70B506464FF0FF3015460C462D
:1013D000324686B00091CDE90101694600200490B3
:1013E00004A8FFF7D1FF03460498211825B108B1DE
:1013F0000A4600E022462A6000280DD0002B02DDBC
:101400000098884208D03246081B69460094CDE90E
:10141000010404A8FFF7B8FF06B070BD6306000022
:101420007B060000BB0500002DE9F04791460F4602
:1014300080460446002614F8015B2DB100F046FA00
:101440000068405DC007F6D12B2D02D02D2D18D09D
:10145000641E4A463946204600F0F2FA27B1396840
:10146000A14201D1C7F800804FF0020471050BD5ED
:101470004042002803DDFFF7D1FC0460A007BDE86F
:10148000F08746F48066E4E70028F8DAFFF7C6FC48
:1014900004606FF00040F2E7007B00F080007047CE
:1014A00070B50D4601461446D36850692A4607F0C8
:1014B00057FB002807DA411C07D0E16820F0004004
:1014C00041F48041E160281A70BD204600F082F9A5
:1014D0004FF0FF3070BDC1680022026021F48051DE
:1014E00041F0400111F4C06FC16001D082607047CB
:1014F00002694168891AC269891A816070472DE9B9
:10150000F0470446C06840F48000E060010312D553
:1015100020F40020E060810606D4E26A61688A4215
:1015200000D80A46511A216040F40010E06094F897
:101530002500BDE8F08720F40010E060800602D5A9
:10154000204600F09EF9E06842F281014FF0FF3939
:101550000140012903D0204600F03CF9B6E02168A3
:10156000002600290ADAC94340F480502160C4E90A
:1015700002606068411C61600078DAE744F2400173
:1015800008420CD020F4A04040F040002660E0600B
:1015900021696068401AE169401AA06096E02169FB
:1015A00091B9C00310D4E06915F0FCFB2061B0B123
:1015B000E06840F4006010F4407FE06002D140F445
:1015C0008070E06020696060E068D4F814A0C10613
:1015D0001AD5C0030ED5204600F030F914E004F10E
:1015E000240020610120E061E06820F4407040F4B4
:1015F0008060E6E721696068401AA16901445046AD
:1016000007F0CDFA0028A6DBE068C0032AD56168A0
:10161000E06A884200D808462169451AE069471BFC
:101620001BD02046D4F8188000F008F908EB05011B
:101630005046C4F8188007F0B2FA00288BDBE06847
:1016400040F40030E060000202D5A0692844A061A7
:10165000E1692069C91B45180DE0204600F0EEF84D
:10166000E769F5E725696168D4E90607491BE56282
:1016700008446560A061E06820F0100010F4C06FBD
:10168000E06002D0204600F041FCE06840F4805069
:10169000C4E90260000205D52069E06260606FF075
:1016A000010046E7224639462846FFF7F9FE411C6D
:1016B0000CD02918E16258B1401E2060681C60609F
:1016C000E06840F40030E060287832E7484630E7D0
:1016D00065602046FFF7FFFEF8E700002DE9F041C6
:1016E000044616460D464769007B80072ED03846D3
:1016F00007F0E2F950BB3EB3012E02D0022E25D1F5
:1017000004E0204600F045FB05441DE0384607F0A4
:10171000CFF9E168002841F01001E16005DA2046C8
:1017200000F058F80120BDE8F081C9030BD56268CC
:10173000E16A914200D81146A26911442269891ACE
:10174000814200DD08460544002D01DA0220EAE767
:10175000E16A6068E268814206D29103E06203D5E3
:1017600022F4003141F01002A6690027AE4213DCDA
:10177000E16A814201D90B4600E0034603EB060C07
:101780002369ACEB030CAC4506DD814201D98C46E4
:1017900000E084469C4505D1A760276042F0200008
:1017A000A5620DE0AD1BE669AE1B8142A66000D9C3
:1017B0000846C01A281A20605819606022F02000DC
:1017C00003490840E060002084F84870ABE700005F
:1017D000BFCFD7FFC16821F4001141F08001C16083
:1017E00000218160016070472DE9F0478146144671
:1017F0000E464FF0FF383248D5685769054209D088
:101800003846A16907F0CBF9002811DB2C48C0430A
:101810000540E5602B4632464946384607F0CDF98B
:10182000A16920F00042B21A11440028A16103D03E
:101830002046FFF7CFFF4046BDE8F08770B504466D
:101840000569C06A6168884200D80846E16821F4E9
:101850002011E160C90312D5A84208D02246411BDD
:101860002846FFF7C1FF10B14FF0FF3070BD0020D8
:10187000E562C4E90150E06820F48030E0600020B7
:1018800070BD10B50446C06820F02000E060A16A79
:10189000A06988420DD02046FFF7D0FFE06820F411
:1018A000405040F01000E060A06AA0612069E06252
:1018B000606044F24001E0688843E06010BD0000D1
:1018C00010000200004870478C89002010B500F01D
:1018D00005F8001D10BD00BF216F020000487047D1
:1018E000AC89002030B5B0F10A024FEA900E71F1D8
:1018F00000034EEA817EB0EB0E0061EB91014FEAEE
:10190000101E4EEA017E10EB0E0041EB11114FEA62
:10191000102E4EEA016E10EB0E0041EB11214FEA42
:10192000104E4EEA014E10EB0E0041EB11414018F3
:1019300041F100014FEAD00040EA41704FEAD10185
:1019400010EB80054FEA810444EA907444EB0104F3
:101950006D1944EB0404521BA3414FF0000348BF30
:101960000A3200D530BD401C41F1000130BD10B538
:101970000446FFF7ABFF0068005D00F0010010BDFA
:101980002DE9F0411F46044603260168072A01F4A9
:10199000006004DB08B116A505E016A503E008B158
:1019A00015A500E015A521F010002060A069C01E5B
:1019B000A0610FB1401EA0612046FEF71BFD4FB194
:1019C000D4E9012138469047206A401C2062C01C9F
:1019D000206206E0206AFAE7D4E9012115F8010B3C
:1019E0009047761EF8D22046FEF71AFDBDE8F0813A
:1019F0004E414E006E616E00494E4600696E6600B3
:101A0000426842B1016811F8013B23B1521EC0E99E
:101A10000012184670470121C160881E7047426855
:101A20005AB1C368016843B983688B4205D0491E27
:101A3000521CC0E90012002070474FF0FF30704781
:101A40002DE9F05F824615468B4600270AF1010416
:101A5000B9460078302801D09DB113E014F8010B8D
:101A60000127782803D0582801D045B10AE00DB1EC
:101A7000102D07D1002714F8010B102502E00825CE
:101A800000E00A250026B0460EE005FB080005FB35
:101A900006F101271FFA80F801EB1046B6F5803FEA
:101AA00000D3B94614F8010B294600F070FA00285B
:101AB000EBDABBF1000F05D00FB1641E00E0544615
:101AC000CBF80040B9F1000F06D0FFF7A7F90221CB
:101AD0000160C81EBDE8F09F48EA0640FAE7000032
:101AE0002DE9F047814616468AB0334878440DC840
:101AF0008DE80D0030487844801C03AC0DC884E8A4
:101B00000D0041F69B300844372190FBF1F290FB29
:101B1000F1F5A5F1800501FB12041B3C02D56442DE
:101B2000012000E00020DFF890A080460027FA4462
:101B3000AAF1BE0A0DE0E00709D03246684607EB7D
:101B400047010AEB810101F01AFA8DE807006410E1
:101B50007F1C002CEFD1184F7F44AC3F18E0E80702
:101B600014D007EB04100DF1180A90E80E008AE873
:101B70000E00C068F04201D198190890324606A9BB
:101B800003A801F0FCF903AB83E807006D10641CA7
:101B9000002DE4D132466946B8F1000F03A802D007
:101BA00001F0C5F901E001F0EAF9C9E90001C9F85D
:101BB00008200AB0BDE8F087D48002002DE9F04784
:101BC00005460C46C86820F4201040F48000C86028
:101BD000800602D50846FFF754FEE06841F2820114
:101BE0004FF0FF390140022903D02046FFF7F2FDF4
:101BF000B5E000F42041B1F5004F0FD1C00306D588
:101C00006168E06A884200D80846606006E02069A2
:101C1000E0626060606906F04BFFA061A06800228E
:101C2000EEB200280DDAE1688B050AD4C043A0604B
:101C300041F490302260E0606068411C6160067091
:101C4000A5E0E0689046226040F40050E060206922
:101C500068BB606906F030FF012704F12405A0B1DC
:101C6000A08910F4407F08D0E06915F09BF820614E
:101C700018B1E06840F4006016E0E7612561E068B3
:101C800020F4407040F480600EE0E06915F08AF8BE
:101C900000282061F1D0E06840F4006010F4407F3B
:101CA000E06002D140F48070E06020696060E0682C
:101CB00025696FF0010AC1051FD56168E06A884295
:101CC00000D80846411B04D022462846FFF78CFD69
:101CD000F0BBE068010203D5E562C4E9015854E0B5
:101CE000691CE1626160E16940F48030491EC4E929
:101CF000021030462E70BDE8F087010202D500F4D4
:101D000080320AE06068411C61600670E0680A2E5B
:101D100040F48030E06006D00022E16A60688142D1
:101D200003D90B4602E00122F7E70346A7895B1BB4
:101D30007F0503D4E7699F4200DDE2B1814200D80C
:101D40000146E5620F1AC4E90158002B09DD00E0E5
:101D500005E0224619462846FFF746FD08B14846E9
:101D6000C9E747B1A069E5626560C01BA061E06892
:101D700040F01000E060E068000208D56168A069EA
:101D8000E562491B08446560A0615046B3E73046F0
:101D9000B1E710B50146C268900703D0900607D599
:101DA000886A0AE0FFF73AF801210160881E10BD39
:101DB0008B69486818440B69C01A91F848301BB108
:101DC00091F84910401A10BD1103FCD50028FADD26
:101DD000401E10BD10B542485421FEF7B5FE4148E3
:101DE0005421FEF7B1FE40485421FEF7ADFE3F49B5
:101DF0003B483C4A3F4B08603D490A603A491960FC
:101E0000531C0365481C1065012008653B48344A93
:101E100039A17844FEF774FC20B9384878440A3870
:101E200000F071FB37482F4A35A17844FEF768FC73
:101E300020B9344878440A3800F065FB32482A4A11
:101E40002FA17844FEF75CFC20B92F4878440A386B
:101E500000F059FB40232248DC000021224600F01C
:101E600029FB20B125487844543800F04CFB1D482C
:101E700022464023002100F01DFB20B12148784478
:101E8000543800F040FB184822461023002100F08F
:101E900011FB002806D01C487844BDE81040563895
:101EA00000F031BB10BD104870B5006D20F001048A
:101EB0000B48FEF79BFC0B48FEF798FC0A48FEF720
:101EC00095FC09E0206D20F001052046FEF78EFC10
:101ED000204611F01DFF2C46002CF3D170BD0000F0
:101EE00090880020E4880020388900200C0300201E
:101EF000100300201403002072000000CF7C0200B9
:101F000077000000BD7C0200AC7C020070B5054685
:101F100040F202260A4C0FE094F85000C00708D0A7
:101F2000AC4206D0E06836EA000002D1204600F05C
:101F30008FFA206D20F00104002CEDD170BD00005F
:101F4000908800207546FFF7BDFCAE460500694647
:101F5000534620F00700854618B020B5FEF7B2F9C9
:101F6000BDE820404FF000064FF000074FF000089A
:101F70004FF0000B21F00701AC46ACE8C009ACE81B
:101F8000C009ACE8C009ACE8C0098D4670473A28E2
:101F900000D2303820F02002412A01D3A2F13700CC
:101FA000884201D34FF0FF30704700002DE9FF4F0A
:101FB000064689B00878FF2806D0491C2D2805D090
:101FC00000244FF0000908E000200CE00124F8E7AD
:101FD00009EB8903491C00EB43090878FF28F7D176
:101FE00014B1C9F100008146107800252C46AA469C
:101FF00029462D2801D02B2804D1521C2D2813D07E
:10200000002082468B461078FF280FD04FF0000C3E
:102010000A21521CA5FB017804FB018105FB0C1170
:10202000C5194BEB0104EEE70120EAE70021084661
:102030004FF00000BAF1000F02D000EB8000400822
:10204000C0F38158B8F1010F01DD4FF0FF380C9853
:1020500009EB000755EA040009D04FF0020917F513
:10206000FA7F0BDA4FEACA70C6E900B012E04FEA15
:10207000CA70C6E900B00DB0BDE8F08FB7F5FA7FC1
:102080000DDDF0487844D0E90010C6E9001040EAC0
:10209000CA707060FEF7C2FEC0F80090EBE7391E10
:1020A00002DAC8F1000200E0424600DA794206A8EE
:1020B000FFF716FD06AB93E8070003AB83E80700C4
:1020C00044F23E005BEA04010090584604D144F219
:1020D0001E012C465D460091210C0904014306D1E6
:1020E0000099240444EA15442D041039009104F0A9
:1020F0007F41014306D10099240244EA15642D0270
:102100000839009104F07041014306D1009924017F
:1021100044EA15742D01091F009104F04041014368
:1021200006D10099A40044EA9574AD00891E00917F
:1021300004F00041084304D100986D196441401E29
:10214000009042466846002FCDE9014503A902DD13
:1021500000F029FF01E000F0FEFEBAF1000F044696
:102160000D4601D084F0004440F2FF7724F0004097
:10217000284303D0C4F30A50B84212D1FEF74EFEF2
:10218000C0F80090C4F30A50B8420AD1AE4878446F
:10219000D0E90010C6E9001004F000410843706067
:1021A00069E7C6E9005466E72DE9FF4F1F464FF087
:1021B000000A4FF0FF38454691B0D7E90146CDF807
:1021C0003CA0FFF78BFBC0680168405C1090B969C8
:1021D00012986D1C8847396A814688470028F6D1D5
:1021E000B9F1FF3F0AD0002E24F4D06411DDB9F11B
:1021F0002B0F08D0B9F12D0F0BD102E0404615B0DE
:102200003AE744F48064B96912986D1C8847761ED9
:102210008146600504A901D52D2000E02B20002E69
:1022200001F1010B0DF130088DF810003FDDB9F11F
:10223000690F08D0B9F1490F05D0B9F16E0F02D07E
:10224000B9F14E0F1CD13B4601A8009580E8500221
:10225000DDE912126FF0020026F008FDC11CCED19C
:102260000EE0B96912986D1C884781461398761E56
:1022700044F4007405600F98401C002E0F9016DD8A
:10228000B9F1300FEDD0B9F1780F02D0B9F1580F94
:102290000DD10F9801280AD13B46CDE90054DDE964
:1022A0001212001F029626F0DFFCC11CA7D1109964
:1022B00089453ED144F0800406E01399681CAAF1D8
:1022C000010A44F400740860B9696D1C1298761E06
:1022D000884730288146F0D02BE01099894505D1F8
:1022E000200603D4761E44F0800418E0484605F02A
:1022F00069FB08B3761E0DF123018B4544F400748D
:1023000008D2A9F130000BF8010B200607D5AAF17D
:10231000010003E0200602D40AF101008246A00574
:1023200002D51399681C0860B96912986D1C88471A
:102330008146002ED1DC53E0002E51DDB9F1650F4E
:1023400002D0B9F1450F4BD1A00549D5B9696D1C33
:102350001298761E24F440748847002E81460CDDC6
:102360002B2804D0B9F12D0F07D144F48074B9693A
:1023700012986D1C8847761E8146E00501D52D21F7
:1023800000E02B2108F8011BCDF8008021E0761E2B
:102390000DF13901884544F400740CD2A9F13000E4
:1023A00010F0FF0088F8000002D10099884509D993
:1023B00008F1010806E0E00501D5244801E042F2F9
:1023C0000F708246B96912986D1C88478146139830
:1023D0000560002E04DD484605F0F4FA0028D6D149
:1023E000F96912988847FF2053468BF8000088F857
:1023F000000000200A900B9004AA0CA90AA8FFF77D
:10240000D5FDA00502D46FF00100F8E614F0240F0A
:102410000AD0E00714D13868DDE90A12031D3B60D9
:102420000068C0E900120BE00AA9684605F036FA18
:10243000E00705D13868009A011D39600068026024
:102440002846DCE68C8C0200828B0200F1D8FFFF6C
:1024500070B50446C068810713D0800601D5A56A0F
:1024600004E0A169606808442169451A2046FFF725
:10247000E5F90022064629462046FFF72FF93046A7
:1024800070BD002070BD70B510B1BDE87040DFE7D1
:102490000025074C6E1E07E02046FFF7D9FF00B16C
:1024A0003546206D20F00104002CF5D1284670BD82
:1024B0009088002070B5C468A50713D0650211D4B8
:1024C000B2F5807F09D0B2F5007F06D0B2F5806FFB
:1024D00008D1012300F1240106E05D1E6FF07F4664
:1024E000B54201D3012070BD0161C361416024F494
:1024F00070611143C160002070BD0446AFF30080DD
:102500002046FDF7B1FE10B500F00AF8BDE8104016
:10251000AFF30080002801D006F0C8BA7047000071
:1025200010B5014602A000F03BFA012010BD0000EA
:1025300053494752545245443A2052656469726582
:1025400063743A2063616E2774206F70656E3A2061
:10255000000000002DE9FF4F1F464FF03C0987B0F7
:102560004FF00042DDE9141001F10108DDF858A038
:1025700002EA40500390002004908346054604463A
:102580000590B969461E08988847AAF1010A029089
:10259000BAF1000F37DD02982E2815D01021FFF771
:1025A000F6FC00282ADB4FF0010B0499014316D0FA
:1025B000B9F1000F0BDB4A46C11700F00AFA0543D8
:1025C0000C43A9F1040905E00120059007E008B1DA
:1025D00045F0010501200490059800B9361DB96940
:1025E000089808F101088847BBF1000FAAF1010A19
:1025F0000290CDD00999C1F80080C9E702987028EF
:1026000008D0502806D0F96908988847BBF1000F18
:1026100014D04FE0002002900120BBF1000F049085
:1026200009D0B969089808F101088847AAF1010999
:10263000B9F1000F07DCF969089888476FF00100CD
:102640000BB0BDE8F08F2B2804D02D280CD14FF013
:10265000FF300490B969089808F101088847A9F18A
:102660000109B9F1000FE6DD411CE4D00A21FFF7B2
:102670008EFC0028DFDB029908F1010801EB8101E3
:1026800000EB41000290B969089888470A21FFF7DA
:102690007EFC099AA9F10109B9F1000FC2F8008086
:1026A00001DD0028E7DAF96908988847049902985B
:1026B00000FB016655EA040004D004F04041090023
:1026C00002D006E0039898E0A40044EA9574AD00B7
:1026D000B61E04F00041080002D16D196441761E57
:1026E000159810F0240F03D04FF00B095C4803E05D
:1026F0004FF028096FF07D008246564507DAAAEBB5
:1027000006018944B9F1410F01DD4FF04109012073
:102710000021A9F1010200F05CF9024628400B46B5
:102720002140084301D0012100E00021501E029108
:1027300043F1FF3128402140084301D0012000E04F
:1027400000200299834651EA0B014FD00021084630
:102750004FF00000039900F4400039B100EB800015
:102760004FF4400100EBD07001EA600080150128B1
:1027700002DD4FF0FF3000E013D0401C36D002984D
:1027800060B3BBF1000F0CD14A460120002100F0DC
:1027900020F928402140084301D0012000E000201A
:1027A000E0B101204A46002100F013F90346401928
:1027B0000A4661412D1A8C4111D3B9F1400F09DD50
:1027C000159810F0240F02D0AAF1340603E0AAF104
:1027D000170600E0761C00254FF0004406E05B1E63
:1027E00042F1FF3220EA030521EA0204CAF10100A6
:1027F000B04206DA1B49039808430190002000907C
:102800000EE0039AC4F3D321E80A0A43164940EACA
:1028100044500A433146CDE90002684605F0B0F85D
:10282000159810F0240F0BD01598C00715D13868F3
:10283000DDE90012031D3B600068C0E900120CE0F6
:1028400002A8694605F02AF81598C00705D138682E
:10285000029A011D3960006802604046F0E60000FF
:1028600002FCFFFF0000F07F0000F03F2DE9FF4F6A
:1028700092461D4685B04FF00041DDE9124BDDE97F
:1028800014727F1E01EA4B50414940F0FF4940EA73
:102890000108002122F020004928049102D04E288E
:1028A00028D04CE03BA0012607C88DE80700A969A5
:1028B0000698641C88477F1E014606D41DF8060052
:1028C00018B121F0200181420BD0E96906988847B0
:1028D000032E34D0082E32D06FF0010009B0BDE8CD
:1028E000F08F761C032E01D0082EE0D1601CCAF8B0
:1028F0000000DCE7A9690698641C88477F1E2AD47B
:1029000020F02000412826D1A9690698641C884738
:102910007F1E20D420F020004E281CD1A9690698E3
:10292000641C88477F1E48F4002849F48009CAF8CF
:10293000004001D4282806D0E969069888475FEA54
:10294000CB7012D022E0A9690698641C88477F1ECC
:1029500001D4002803DAE96906988847BCE72928EA
:10296000F1D1641CCAF80040E9E71BF0240F07D03E
:1029700028680499031D2B600068C0E9001805E071
:102980002868021D2A600068C0F800902046A5E76C
:102990000000F07F494E46494E495459000000005E
:1029A00070B505460C460A2000E06D1C06F02FF9B4
:1029B00035B128780028F8D102E0641C06F027F928
:1029C00014B120780028F8D1BDE870400A2006F044
:1029D0001EB9B2F120030AD5C2F1200301FA02F1B7
:1029E00020FA03F300FA02F041EA0301704700FA0B
:1029F00003F14FF0000070475FEA400C08BF91F010
:102A0000000F4FEA8C234FEAC12243EA51514FEAAB
:102A10001C5018BF00F5F0404FEA300018BF41F0DD
:102A200000415FEA6C5C00F02980BCF1FF3F08BF09
:102A300040F080407047130C06BF12044FF0100C9A
:102A40004FF0000C130E04BF12020CF1080C130F10
:102A500004BF12010CF1040C930F04BF92000CF19F
:102A6000020CD30F04BF52000CF1010C11464FF0C1
:102A70000002A0F11F00A0EB0C00704711F0004F06
:102A800008BF704731F000413FF4D5AF0B0C06BFD3
:102A900009044FF0100C4FF0000C0B0E04BF09029C
:102AA0000CF1080C0B0F04BF09010CF1040C8B0F87
:102AB00004BF89000CF1020CCB0F04BF49000CF1DC
:102AC000010CCCF12003A0EB0C0022FA03F302FA74
:102AD0000CF241EA030100F10100704720F07F4C45
:102AE00080EA030023F07F47ACEB070303F57C5338
:102AF00000F0004003F1FF032DE980494FEA154B38
:102B000009B44FEA144325EA0B4E24EA03480FF2B6
:102B1000042606EB132749083E785FEA320203FBDE
:102B20000667C7F5000707FB06F64FEA54374FEA7A
:102B3000D64606F1020607FB066CCCF1005C4FEAB4
:102B40001C472CEA074C07FB06F40CFB06F504EBCC
:102B500015464FEA961634BF00204FF000404FEA6A
:102B6000D13706FB07FC4FEA1C4C0CFB0BF7D21BC2
:102B700003FB0CF761EB07010CFB0EF7B0EB074012
:102B800072EB17420CFB08F734BFA2EB0742B2EB23
:102B9000074261EB17414FEA0C444FEA910706FBED
:102BA00007FC4FEA1C4C0CFB0BF7B0EBC74072EB79
:102BB000573203FB0CF734BFA2EBC742B2EBC7425C
:102BC00061EB57310CFB0EF7B0EBC70072EB57729D
:102BD0000CFB08F734BFA2EBC702B2EBC70261EBF4
:102BE0005771039F4FEA816141EA921104EBCC04D3
:102BF0004FEAD1374FEA826206FB07FC42EA9012A5
:102C00004FEA80604FEA1C4C0CFB0BF7D21B03FB16
:102C10000CF761EB07010CFB0EF7B0EB074072EB12
:102C200017420CFB08F734BFA2EB0742B2EB074296
:102C300061EB17414FEA8C554FEA910704EB9C2456
:102C400006FB07FC4FEA1C4C0CFB0BF7B0EBC74034
:102C500072EB573203FB0CF734BFA2EBC742B2EB67
:102C6000C74261EB57310CFB0EF7B0EBC70072EBBC
:102C700057720CFB08F734BFA2EBC702B2EBC702D6
:102C800061EB577115EB4C254FEA816141EA9211D6
:102C90004FEA82624FEAD13742EA901206FB07FC04
:102CA00044F100044FEA80604FEA1C4C0CFB0BF728
:102CB000D21B03FB0CF761EB07010CFB0EF7B0EB2B
:102CC000074072EB17420CFB08F734BFA2EB074238
:102CD000B2EB074261EB174115EB1C154FEA81314E
:102CE00041EA92414FEA823242EA90424FEA803012
:102CF0004FEA0C7644F1000448EA03434EEA0B48DD
:102D00004FF0000EB2EB080C71EB030724BF6246D4
:102D100039464EEB0E0E4FF0000B00185241494160
:102D20004BEB0B0BB2EB080C71EB03077BF1000BC9
:102D300024BF624639464EEB0E0E4FF0000B0018D2
:102D4000524149414BEB0B0BB2EB080C71EB030703
:102D50007BF1000B24BF624639464EEB0E0E51EA62
:102D6000020718BF46F0010616EB0E7655F1000279
:102D700054F1000103D5BDE88901BDE80088BDE834
:102D80008901BDE80048B619524141EB0101A3F1A8
:102D90000103704780807F7E7D7C7B7A79787776AF
:102DA00076757473727171706F6E6E6D6C6C6B6A28
:102DB0006A696868676666656464636362616160C6
:102DC000605F5F5E5E5D5D5C5C5B5B5A5A59595843
:102DD00058575756565555555454535352525251AD
:102DE000515050504F4F4F4E4E4D4D4D4C4C4C4B03
:102DF0004B4B4A4A4A49494948484847474747464A
:102E00004646454545444444444343434342424285
:102E10004241414146EA0646A3F570534FEA164641
:102E200046EA42564FEAD22242EA415210B54FEAF0
:102E3000D121A3F1010300F017F820F0004000F1C8
:102E4000010C00F0004701EB00501146BCF5006F8B
:102E500040EA070000D210BD02484FF0000140EAEE
:102E6000070010BD0000F07F002B26D4770021D092
:102E70001CB54FEA370703B44FF010004FF01001B4
:102E80004FF000000FBCBDE810400BF1010BBBF18F
:102E9000010F08BF5FEA170722BF12F1010211F10B
:102EA00001014FF0004143F1000300F0004043EA0C
:102EB00000007047F9D35708DAE746EA064613F1EF
:102EC000400F4FEA16461FDD13F1200FDFBF1643F8
:102ED0000A46002120335B42C8D0C3F1200746EAEE
:102EE000064602FA07F74FEA164646EA0706C3F116
:102EF000200722FA03F201FA07F721FA03F14FF053
:102F0000000342EA0702B1E746EA020646EA06463D
:102F10004FEA164646EA0106BCBF46EA0646360CAC
:102F20004FF000034FF000024FF000019EE72DE943
:102F3000C048934630B491E8380007C831EA400CE5
:102F400048BF34EA430C03D5FFF7C8FDFFF78CFFF9
:102F5000F0BCBDE800882DE9C048934630B491E844
:102F6000380007C831EA400C48BF34EA430C03D5A7
:102F7000FFF7B4FDFFF74EFFF0BCBDE800882DE978
:102F8000C048934630B491E8380007C810F0804F2D
:102F900008BF13F0804F03D100F019F8FFF764FF6A
:102FA000F0BCBDE800882DE9C048934630B491E8F4
:102FB000380007C810F0804F08BF13F0804F03D1CE
:102FC00000F005F8FFF726FFF0BCBDE8008820F010
:102FD0007F4780EA030023F07F4C07EB0C03A3F547
:102FE0007C5300F00040A3F1FE0392F0000F00F0CC
:102FF000B38095F0000F00F077802DE901494FEA8A
:1030000011404FEA144621EA004800FB06FC24EA7E
:10301000064708FB06F607FB08F800FB07F718EB66
:1030200006484CEB164C4FEA124B18EB07484FEA98
:1030300015464CEB174022EA0B4E0BFB06FC25EA2B
:1030400006470EFB06F607FB0EFE0BFB07F71EEB13
:10305000064E4CEB164C4FF000061EEB074E4CEBA9
:10306000174B18EB0B0840F1000018EB0E0B58EB58
:10307000000840F100008F1A4FF000013CBFC94327
:10308000661B14BFB5EB040C00213CBFC943F61B03
:103090004FEA17444EEA8E0E27EA04454FEA1C47D2
:1030A00004FB07622CEA074C05FB07F70CFB05F64F
:1030B00004FB0CFC16EB074642EB174216EB0C46E2
:1030C00042EB1C421BEB060658EB0202414146EA6A
:1030D0009E0601D5BDE80189B619524141EB0101B7
:1030E000A3F10103BDE801894FEA14454FEA1147F6
:1030F00024EA054621EA074C05FB07F406FB07F71F
:103100000CFB06F105FB0CFC11EB074144EB1744EB
:103110004FEA124711EB0C4144EB1C4422EA074CE6
:1031200005FB07F206FB07F70CFB06F605FB0CFC9C
:1031300016EB074642EB174216EB0C4642EB1C45DA
:103140006A1854F1000148BF7047B619524141EB6B
:103150000101A3F10103704795F0000F37D04FEA4A
:1031600011424FEA144721EA024624EA074C02FBC7
:1031700007F106FB07F70CFB06F402FB0CFC14EB53
:10318000074441EB17414FEA154714EB0C4441EB60
:103190001C4125EA074C02FB07F506FB07F70CFB71
:1031A00006F602FB0CFC16EB074645EB174516EB43
:1031B0000C4645EB1C42121951F1000148BF704703
:1031C000B619524141EB0101A3F1010370474FEAE7
:1031D00014454FEA114724EA054621EA074C05FB4E
:1031E00007F106FB07F70CFB06F24FF0000605FBA4
:1031F0000CFC12EB074241EB174112EB0C4251EB76
:103200001C4148BF7047921841EB0101A3F1010333
:10321000704700BFFEE7000010B519F0BBFA034885
:1032200009F07EFC19F0D8FA10BD00009C150020B2
:1032300010B519F0AFFA034809F072FC19F0CCFA96
:1032400010BD0000F015002010B5044604F07040D9
:1032500010B10948204008B904B104E040F20E2141
:1032600006A005F0B7FD04F0805010B112480460CC
:1032700001E01248446010BD0000F0EF2E2E5C4CBF
:1032800069627261726965735C53544D33324631C1
:1032900030785F5374645065726970685F44726916
:1032A0007665725C7372635C73746D333266313051
:1032B000785F646D612E63000404024000000240E8
:1032C00070B504460D46244884422AD02248143062
:1032D000844226D020482830844222D01E483C30E8
:1032E00084421ED01C48503084421AD01A486430A0
:1032F000844216D018487830844212D0174884424D
:103300000FD01648143084420BD014482830844221
:1033100007D012483C30844203D0104850308442D9
:1033200000D104E040F229110DA005F053FD0DB1CC
:10333000012D00D104E04FF4957109A005F04AFD7C
:1033400025B1206840F00100206004E020684FF6BD
:10335000FE710840206070BD080002400804024071
:103360002E2E5C4C69627261726965735C53544DB8
:103370003332463130785F537464506572697068D7
:103380005F4472697665725C7372635C73746D33EB
:1033900032663130785F646D612E630070B58CB039
:1033A0000546EC6BEE6C012240F22441206803F0EC
:1033B00073FE0121084602F057FF0121022002F0AE
:1033C00053FFA06800F03EF82068001D01903068AF
:1033D000029000200390A86CC0F38F20049000207E
:1033E00005908020069000200790089009904FF4E7
:1033F00000500A9000200B9001A9A06800F0EEF99F
:10340000E068FFF721FF01220221A06800F070F9B7
:1034100001224021206803F0BDFC0121A068FFF7D4
:103420004FFF207C8DF8000000208DF80100012066
:103430008DF802008DF80300684602F03FF80CB0EA
:1034400070BD000010B504466A4884422AD069481D
:103450001430844226D067482830844222D0654800
:103460003C3084421ED06348503084421AD06148B8
:103470006430844216D05F487830844212D05E486F
:1034800084420FD05C48143084420BD05A48283014
:10349000844207D058483C30844203D056485030CC
:1034A000844200D103E06F2154A005F093FC206812
:1034B0004FF6FE7108402060002020606060A06030
:1034C000E0604C48844208D14A480838406840F0DF
:1034D0000F004849083948608AE046481430844261
:1034E00008D144480838406840F0F00041490839A4
:1034F00048607DE03F482830844208D13D48083884
:10350000406840F470603B490839486070E03948D1
:103510003C30844208D137480838406840F4704055
:1035200034490839486063E032485030844208D159
:1035300030480838406840F470202E490839486007
:1035400056E02C486430844208D12A480838406844
:1035500040F4700027490839486049E02548783030
:10356000844208D123480838406840F070602149FF
:10357000083948603CE02048844206D1001F0068BA
:1035800040F00F00211F086032E01B4814308442D5
:1035900008D11948001F006840F0F0001649091FC3
:1035A000086025E014482830844208D11248001FE2
:1035B000006840F470601049091F086018E00E4868
:1035C0003C30844208D10C48001F006840F4704031
:1035D0000949091F08600BE007485030844207D1B1
:1035E0000548001F006840F470200349091F086067
:1035F00010BD000008000240080402402E2E5C4C62
:1036000069627261726965735C53544D333246313D
:1036100030785F5374645065726970685F44726992
:103620007665725C7372635C73746D3332663130CD
:10363000785F646D612E630010B504461B488442B8
:103640002AD01A481430844226D0184828308442A0
:1036500022D016483C3084421ED014485030844258
:103660001AD012486430844216D010487830844210
:1036700012D00F4884420FD00D48143084420BD032
:103680000B482830844207D009483C30844203D09C
:1036900007485030844200D104E04FF4BB7105A0CC
:1036A00005F098FB606880B210BD00000800024081
:1036B000080402402E2E5C4C696272617269657367
:1036C0005C53544D3332463130785F5374645065E7
:1036D000726970685F4472697665725C7372635C6C
:1036E00073746D3332663130785F646D612E6300C0
:1036F00070B504460D461646274884422AD026480F
:103700001430844226D024482830844222D02248D3
:103710003C3084421ED02048503084421AD01E488B
:103720006430844216D01C487830844212D01B4842
:1037300084420FD01948143084420BD017482830E7
:10374000844207D015483C30844203D0134850309F
:10375000844200D104E040F2491111A005F03AFB87
:1037600025F00E0008B905B104E04FF4A5710CA0D6
:1037700005F030FB0EB1012E00D104E040F24B11F8
:1037800007A005F027FB1EB120682843206002E057
:103790002068A843206070BD080002400804024071
:1037A0002E2E5C4C69627261726965735C53544D74
:1037B0003332463130785F53746450657269706893
:1037C0005F4472697665725C7372635C73746D33A7
:1037D00032663130785F646D612E630070B50546E6
:1037E0000C4600265E4885422AD05D48143085424A
:1037F00026D05B482830854222D059483C3085424B
:103800001ED05748503085421AD055486430854202
:1038100016D053487830854212D0524885420FD096
:103820005048143085420BD04E482830854207D08E
:103830004C483C30854203D04A485030854200D144
:1038400003E0CF2148A005F0C5FAA068102801D0F8
:10385000A06800B903E0D02143A005F0BBFAE068FE
:1038600020B1E068B0F5803F00D203E0D1213EA056
:1038700005F0B0FA2069402801D0206900B903E0C2
:10388000D22139A005F0A6FA6069802801D06069CC
:1038900000B903E0D32134A005F09CFAA06938B147
:1038A000A069B0F5807F03D0A069B0F5007F00D19A
:1038B00003E0D4212CA005F08DFAE06938B1E0696D
:1038C000B0F5806F03D0E069B0F5006F00D103E080
:1038D000D52125A005F07EFA206A202801D0206A93
:1038E00000B903E0D62120A005F074FA606AB0F5B3
:1038F000405F09D0606AB0F5005F05D0606AB0F53E
:10390000805F01D0606A00B903E0D72116A005F0FE
:1039100061FAA06AB0F5804F01D0A06A00B903E057
:10392000D82111A005F056FA2E6847F6F0708643AC
:10393000216AA06808432169084361690843A169B5
:103940000843E1690843616A0843A16A08430643E2
:103950002E60E06868602068A8606068E86070BDFC
:1039600008000240080402402E2E5C4C696272611D
:10397000726965735C53544D3332463130785F530E
:1039800074645065726970685F4472697665725CD0
:103990007372635C73746D3332663130785F646D5B
:1039A000612E630070B504460D461B4884422AD040
:1039B00019481430844226D017482830844222D037
:1039C00015483C3084421ED01348503084421AD0EF
:1039D00011486430844216D00F487830844212D0A7
:1039E0000E4884420FD00D48143084420BD00B484F
:1039F0002830844207D009483C30844203D007482D
:103A00005030844200D104E04FF4B27104A005F0BC
:103A1000E1F9656070BD0000080002400804024042
:103A20002E2E5C4C69627261726965735C53544DF1
:103A30003332463130785F53746450657269706810
:103A40005F4472697665725C7372635C73746D3324
:103A500032663130785F646D612E6300704700001C
:103A60000EB56A460A21002002F05AFE694602A0FD
:103A700018F032FF0EBD000072656164206461744D
:103A800065206F6E206164647265737320307830D6
:103A900030303030303A25730A0000000EB507A2EE
:103AA00007CA8DE807006A460A21002003F03CFEA1
:103AB000694605A018F010FF0EBD000059754E654F
:103AC0006E6720415053000077726974652064610D
:103AD0007465206F6E206164647265737320307842
:103AE0003030303030303A25730A000008B50121FB
:103AF000082002F089FC0120ADF8000010208DF8AC
:103B0000030003208DF802006946154801F0A2F970
:103B10000220ADF8000014208DF8030003208DF87A
:103B2000020069460E4801F095F94FF48060ADF847
:103B3000000010208DF8030003208DF80200694674
:103B4000074801F087F9002106A019F021FC084977
:103B500008600846006810B106A018F0BDFE08BD58
:103B6000000C0140454550524F4D5F6C6F636B0038
:103B700050000020496E697469616C697A6520455E
:103B80004550524F4D207375636365737366756C52
:103B9000210A000010B504460648204008B904B1C7
:103BA00004E040F24B7104A005F014F90C484461A4
:103BB00010BD00000018FEFF2E2E5C636F6D706F4D
:103BC0006E656E74735C6E65745C65746865726E48
:103BD00065745C6574684073746D33322E630000E5
:103BE0000090024070B504460D461048204008B9C8
:103BF00004B104E040F2DA710DA005F0EBF80DB16C
:103C0000012D00D104E040F2DB7109A005F0E2F8DB
:103C10002DB11148C06920430F49C86104E00E4826
:103C2000C069A0430C49C86170BD00000018FEFFC8
:103C30002E2E5C636F6D706F6E656E74735C6E6557
:103C4000745C65746865726E65745C6574684073F5
:103C5000746D33322E6300000090024010B50446AC
:103C60000CB1012C00D104E040F2B17108A005F0C4
:103C7000B1F834B11048806940F002000E49886103
:103C800005E00D48806920F002000B49886110BDF5
:103C90002E2E5C636F6D706F6E656E74735C6E65F7
:103CA000745C65746865726E65745C657468407395
:103CB000746D33322E6300000090024030B50C4624
:103CC00013460021104D286000BF18E000EB0112E0
:103CD0004FF00045156044F2F0555560C1EB4115B9
:103CE00005EB811504EB051595605D1E8D4204D929
:103CF00000EB01151035D56000E0D060491C9942F9
:103D0000E4D3024DE86030BDB001002000900240D5
:103D100010B504460CB1012C00D104E040F29A71B8
:103D200008A005F057F834B11048806940F40050FD
:103D30000E49886105E00D48806920F400500B4968
:103D4000886110BD2E2E5C636F6D706F6E656E7432
:103D5000735C6E65745C65746865726E65745C65D1
:103D600074684073746D33322E630000009002401B
:103D700030B50C46134600210F4D286000BF15E0FA
:103D800000EB01124FF480151560C1EB411505EBF6
:103D9000811504EB051595605D1E8D4204D900EB7D
:103DA00001151035D56000E0D060491C9942E7D379
:103DB000024D286130BD0000AC010020009002409F
:103DC00010B50121880302F095FA00214FF48040DC
:103DD00002F090FA10BD01B581B00020009001986A
:103DE000009002E00098401E009000980028F9D151
:103DF0000CBD00000348806940F4801001498861CF
:103E0000704700000090024000200449096801F05A
:103E1000010109B1012000E000207047009002403C
:103E200010B518F0B7FC1D48446904F0400028B1F3
:103E30001B480AF019FD4020FFF7ACFE04F001001A
:103E400020B122F059FF0120FFF7A4FE04F48030D6
:103E500018B14FF480301149486104F4004018B1A2
:103E60004FF400400D49486104F0100010B11020DB
:103E70000A49486104F0800020B100F08BFD8020E9
:103E80000649486104F0040020B100F089FD0420D7
:103E90000249486118F0A0FC10BD000000900240EB
:103EA000C83D00202DE9F04188B004460F464FF090
:103EB0000008002500200790FC4E01902068012892
:103EC00001D0206800B903E03F21F9A004F082FF8F
:103ED000606818B16068B0F5000F00D103E04021C0
:103EE000F3A004F077FFA06818B1A068B0F5800FC8
:103EF00000D103E04121EEA004F06CFFE068D8B1EE
:103F0000E068B0F5003F17D0E068B0F5802F13D01F
:103F1000E068B0F5C02F0FD0E068B0F5002F0BD0EF
:103F2000E068B0F5202F07D0E068B0F5402F03D04F
:103F3000E068B0F5602F00D103E04221DCA004F07E
:103F400049FF206918B12069B0F5803F00D103E036
:103F50004321D7A004F03EFF606918B16069B0F555
:103F6000804F00D103E04421D1A004F033FFA069C9
:103F700018B1A069B0F5005F00D103E04521CCA0E5
:103F800004F028FFE069B0F5805F01D0E06900B976
:103F900003E04621C6A004F01DFF206AB0F5006FC3
:103FA00001D0206A00B903E04721C1A004F012FF4C
:103FB000606AB0F5806F01D0606A00B903E0482103
:103FC000BBA004F007FFA06A18B1A06AB0F5007F9B
:103FD00000D103E04921B6A004F0FCFEE06A80288D
:103FE00001D0E06A00B903E04A21B1A004F0F2FE7A
:103FF000206B40B1206B202805D0206B402802D0D8
:10400000206B602800D103E04B21A9A004F0E2FE60
:10401000606B102801D0606B00B903E04C21A4A0B4
:1040200004F0D8FEA06BB0F1004F01D0A06B00B936
:1040300003E04D219EA004F0CDFEE06BB0F5007FC3
:1040400005D0E06BB0F5407F01D0E06B00B903E034
:104050004E2197A004F0BEFE206C402805D0206CB5
:10406000802802D0206CC02800D103E04F2190A00E
:1040700004F0B0FE606C10B1606C202800D103E049
:1040800050218BA004F0A6FEA06C10B1A06C0828F3
:1040900000D103E0512186A004F09CFEE06C0128D1
:1040A00001D0E06C00B903E0522181A004F092FE3F
:1040B00040F20441206D884207D0206D042804D0CE
:1040C000206D10B1206D102800D103E0532178A09D
:1040D00004F080FE40F20241606D884204D0606DC1
:1040E000022801D0606D00B903E0542170A004F0F3
:1040F00071FE206EB0F5803F00D203E055216CA028
:1041000004F068FE606E10B1606E802800D103E09C
:10411000562167A004F05EFEA06E40B1A06E10288C
:1041200005D0A06E202802D0A06E302800D103E078
:1041300057215FA004F04EFEE06E082801D0E06E2B
:1041400000B903E058215AA004F044FE206F04286F
:1041500001D0206F00B903E0592155A004F03AFEC8
:10416000606F022801D0606F00B903E05A2150A0AF
:1041700004F030FEA06FB0F5803F01D0A06F00B911
:1041800003E05B214AA004F025FEE06FB0F5803F1C
:1041900000D203E05C2146A004F01CFED4F88000AD
:1041A00020B1D4F88000B0F1806F00D103E05E212F
:1041B0003FA004F00FFED4F88400B0F1007F02D0DD
:1041C000D4F8840000B903E05F2139A004F002FEB6
:1041D000D4F8880020B1D4F88800B0F1807F00D1F5
:1041E00003E0602132A004F0F5FDD4F88C00B0F5B6
:1041F000001F02D0D4F88C0000B903E061212CA08C
:1042000004F0E8FDD4F8900010B3D4F89000B0F5B5
:10421000804F1DD0D4F89000B0F5004F18D0D4F8DE
:104220009000B0F5404F13D0D4F89000B0F5803F27
:104230000ED0D4F89000B0F5A03F09D0D4F890008B
:10424000B0F5C03F04D0D4F89000B0F5E03F00D105
:1042500003E0622116A004F0BDFDD4F8940080288C
:1042600002D0D4F8940000B903E0632110A004F058
:10427000B1FDD4F89800402802D0D4F8980000B9D5
:1042800003E064210AA004F0A5FDD4F89C0058B115
:10429000D4F89C00082807D0D4F89C00102803D03C
:1042A000D4F89C00182817D11BE000000087930366
:1042B0002E2E5C636F6D706F6E656E74735C6E65D1
:1042C000745C65746865726E65745C65746840736F
:1042D000746D33322E6300006521AFF22C0004F0C0
:1042E00079FDD4F8A000042802D0D4F8A00000B9C9
:1042F00004E06621AFF2480004F06CFDD4F8A4009D
:10430000B0F1007F02D0D4F8A40000B904E0672126
:10431000AFF2640004F05EFDD4F8A800B0F5803F71
:1043200002D0D4F8A80000B904E06821AFF2800000
:1043300004F050FDD4F8AC00B0F5003F36D0D4F80E
:10434000AC00B0F5802F31D0D4F8AC00B0F5002F20
:104350002CD0D4F8AC00B0F5801F27D0D4F8AC0036
:10436000B0F5001F22D0D4F8AC00B0F5800F1DD0FE
:10437000D4F8AC00B0F1817F18D0D4F8AC00B0F123
:10438000827F13D0D4F8AC00B0F1847F0ED0D4F883
:10439000AC00B0F1887F09D0D4F8AC00B0F1907FC8
:1043A00004D0D4F8AC00B0F1A07F00D104E06921C2
:1043B000AFF2041004F00EFDD4F8B000B0F5807F29
:1043C00036D0D4F8B000B0F5007F31D0D4F8B000CA
:1043D000B0F5806F2CD0D4F8B000B0F5006F27D0C6
:1043E000D4F8B000B0F5805F22D0D4F8B000B0F5BA
:1043F000005F1DD0D4F8B000B0F1012F18D0AC4947
:10440000D4F8B000884213D0AA49D4F8B00088424A
:104410000ED0A949D4F8B000884209D0A749D4F8F1
:10442000B000884204D0A649D4F8B000884200D138
:1044300004E06A21AFF2881004F0CCFCD4F8B40098
:104440001F2800D804E06B21AFF29C1004F0C2FCDE
:10445000D4F8B80090B1D4F8B800B0F5804F0DD0C2
:10446000D4F8B800B0F5004F08D0D4F8B800B0F5D3
:10447000404F03D0D4F8B800022800D104E06C21EA
:10448000AFF2D41004F0A6FC8E48056925F01C0597
:1044900002A802F01FF8039E8B48864205D38B4882
:1044A000864202D245F0080509E08848864205D3D5
:1044B0008748864202D245F00C0500E000BF8148E3
:1044C00005614FF400420021384600F0DBFA18B9CC
:1044D000002008B0BDE8F0817E48FFF77CFC206832
:1044E000A0B300BF0198401C01900121384600F0A4
:1044F000F7F900F0040018B9774901988842F1D320
:1045000075490198884201D10020E2E7002001901E
:104510004FF480520021384600F0B4FA08B9002068
:10452000D7E700BF0198401C01900121384600F0F8
:10453000D7F900F0200018B9674901988842F1D3F3
:1045400065490198884202D10020C2E719E00020A5
:1045500001901F21384600F0C3F9804608F0100092
:1045600018B14FF40060206201E00020206208F0E2
:10457000040010B10020606116E04FF480406061DB
:1045800012E0206AC0F3CF006169C1F34F0140EA35
:1045900001020021384600F075FA08B9002098E7BA
:1045A0006FF07F40FFF717FC464805684B48054011
:1045B000D4E901010843E1680843216908436169BE
:1045C0000843A1690843E1690843216A0843616A15
:1045D0000843A16A0843E16A0843216B0843616B01
:1045E0000843054337480560D4E90E010843216CB0
:1045F0000843616C0843A16C0843E16C0843216DDA
:104600000843616D08432F494860A06D8860E06DE4
:10461000C860084685694FF641700540B4F86010DF
:10462000606E40EA0140A16E0843E16E0843216FCD
:104630000843616F0843054322488561D4E91E01A0
:1046400008432049C8612648856926480540D4E9C1
:1046500020010843D4F888100843D4F88C1008438C
:10466000D4F890100843D4F894100843D4F8981064
:104670000843D4F89C100843D4F8A010084305431D
:1046800017488561D4E929010843D4F8AC100843E0
:10469000D4F8B0100843D4F8B41040EA8100D4F83C
:1046A000B810084340F400000D490860012010E7ED
:1046B00000020001000400010008000100100001D8
:1046C0000020000100800240002D3101C00E1602C2
:1046D00000879303FFFF0F00FFFF04000F8120FFFF
:1046E00000900240233FDEF870B504460D462CB121
:1046F000082C03D0102C01D0182C00D104E040F27B
:10470000BD310CA004F066FB2879697940EA0126E6
:10471000124820440664E8780006A97840EA01407F
:10472000697840EA0120297840EA01060B482044D4
:10473000466470BD2E2E5C636F6D706F6E656E7417
:10474000735C6E65745C65746865726E65745C65D7
:1047500074684073746D33322E6300000080024031
:1047600010B5B0B0FFF72CFB00F020F900BFFFF749
:104770004BFB0128FBD001A800F032F90120019089
:10478000002008904FF400700B9000200C900F90C8
:1047900012901490159016904FF480600A900020AB
:1047A00021904FF00070229000112490002026905C
:1047B000279004202990C0052A9040122B90800158
:1047C0002C9040122D9040002F90002101A8FFF75F
:1047D00069FBC4B2012C03D101210348FFF702FA9F
:1047E000204630B010BD00004100010010B5044665
:1047F0000CB1012C00D104E040F2153108A004F006
:10480000E9FA34B11048006840F004000E4908602D
:1048100005E00D48006820F004000B49086010BD59
:104820002E2E5C636F6D706F6E656E74735C6E655B
:10483000745C65746865726E65745C6574684073F9
:10484000746D33322E6300000080024010B50446C0
:104850000CB1012C00D104E040F2FE2108A004F0CC
:10486000B9FA34B11048006840F008000E490860F9
:1048700005E00D48006820F008000B49086010BDF5
:104880002E2E5C636F6D706F6E656E74735C6E65FB
:10489000745C65746865726E65745C657468407399
:1048A000746D33322E6300000080024008B5002191
:1048B0004FF0006000F0ACFE4FF4A06000F06EFE20
:1048C0003D208DF8000002208DF8010000208DF8B9
:1048D000020001208DF80300684600F0EFFD08BDDE
:1048E000F8B505460E460024002000901F2D00DC80
:1048F00004E040F27A211BA004F06CFA1F2E00DCC9
:1049000004E040F27B2117A004F064FA1F48046918
:1049100004F01C044FF4784000EAC52004434FF42F
:10492000F86000EA8610044324F0020444F0010415
:104930001648046100BF0098401C009013480469A9
:1049400004F0010018B1124900988842F3D31049CD
:104950000098884201D10020F8BD0C48406980B21F
:10496000FAE700002E2E5C636F6D706F6E656E74DB
:10497000735C6E65745C65746865726E65745C65A5
:1049800074684073746D33322E63000000800240FF
:10499000FFFF04000020014988607047009002403A
:1049A00000200149486070470090024003480068B9
:1049B00040F001000149086070470000009002408B
:1049C00010B50120FFF742FFFFF714FA0120FFF7AF
:1049D0000DFF0120FFF79CF90120FFF73FF910BD03
:1049E0000021016041608160C160016141618161BC
:1049F000C161016241628162C1620163416381639D
:104A0000C163402101642021416400218164C164AB
:104A1000016541658165C1650166802141660021AE
:104A20008166C166016741678167C1674FF0806138
:104A3000C0F880104910C0F884104910C0F88810E0
:104A4000C910C0F88C100021C0F89010C0F8941064
:104A5000C0F89810C0F89C10C0F8A0104FF000717A
:104A6000C0F8A4100021C0F8A8104FF40031C0F81D
:104A7000AC104912C0F8B0100021C0F8B410C0F852
:104A8000B8107047F8B505460E46174600240020BA
:104A900000901F2D00DC04E040F2A9211AA004F0D0
:104AA00099F91F2E00DC04E040F2AA2116A004F0C0
:104AB00091F91F48046904F01C044FF4784000EA9F
:104AC000C52004434FF4F86000EA8610044344F024
:104AD000020444F0010416484761046100BF0098D5
:104AE000401C00901248046904F0010018B11149FB
:104AF00000988842F3D30F490098884201D10020E2
:104B0000F8BD0120FCE700002E2E5C636F6D706F16
:104B10006E656E74735C6E65745C65746865726EE8
:104B200065745C6574684073746D33322E63000085
:104B300000800240FFFF040010B501201AF0A4FC21
:104B40004FF40071034800F071FA4FF4007000F068
:104B500003F810BD000C014010B50446200D0005FF
:104B600008B904B103E0FC2102A004F033F91148B4
:104B7000046010BD2E2E5C4C6962726172696573AF
:104B80005C53544D3332463130785F537464506512
:104B9000726970685F4472697665725C7372635C97
:104BA00073746D3332663130785F657874692E6363
:104BB000000000001404014010B501F0F9FD02A04E
:104BC00017F08AFE10BD0000657261736520466CA7
:104BD00061736820416C6C0A0000000010B5044647
:104BE000204601F009FE214601A017F075FE10BD18
:104BF00065726173652064617465206F6E20616405
:104C00006472657373203078253036780A000000AE
:104C100010B5002001F0F0FD01A017F05DFE10BD01
:104C200065726173652064617465206F6E206164D4
:104C300064726573732030783030303030300A0061
:104C40000EB56A460A21002001F030FE694602A036
:104C500017F042FE0EBD000072656164206461744D
:104C600065206F6E206164647265737320307830E4
:104C700030303030303A25730A0000000EB507A2FC
:104C800007CA8DE807006A460A21002001F084FE69
:104C9000694605A017F020FE0EBD000059754E654F
:104CA0006E6720415053000077726974652064611B
:104CB0007465206F6E206164647265737320307850
:104CC0003030303030303A25730A000008B5022009
:104CD0008DF8020004208DF803000002ADF80000FA
:104CE0006946124800F0B6F818208DF803004FF41A
:104CF0000070ADF8000069460C4800F0ABF80420E5
:104D00008DF803004002ADF800006946084800F045
:104D1000A1F818208DF803004FF48060ADF8000072
:104D20006946034800F096F808BD000000080140FD
:104D30000010014008B503208DF8020018208DF8FE
:104D400003000220ADF800006946274800F082F811
:104D50000420ADF800006946244800F07BF84FF4C9
:104D60000060ADF800006946214800F073F84FF488
:104D70008050ADF8000069461D4800F06BF84FF414
:104D80000050ADF800006946194800F063F80420AF
:104D90008DF803008020ADF800006946134800F04C
:104DA00059F81020ADF8000069460F4800F052F89D
:104DB0002020ADF8000069460B4800F04BF81020A9
:104DC0008DF803008001ADF800006946084800F046
:104DD00041F84FF48061064800F0ACF94FF480616F
:104DE000034800F0FFF908BD001001400008014031
:104DF000000C014010B504460CB1012C00D104E0B8
:104E00004FF41E7102A003F0E5FF1148046010BDCD
:104E10002E2E5C4C69627261726965735C53544DED
:104E20003332463130785F5374645065726970680C
:104E30005F4472697665725C7372635C73746D3320
:104E400032663130785F6770696F2E630000000052
:104E5000DC0020422DE9F05F05460C464FF00009CA
:104E6000CA4600260027B046B3465948854211D0AD
:104E7000584885420ED0584885420BD05748854245
:104E800008D05748854205D05648854202D056483A
:104E9000854200D103E0B22154A003F09BFFE078EB
:104EA000A0B1E078042811D0E07828280ED0E0786E
:104EB00048280BD0E078142808D0E078102805D0D6
:104EC000E0781C2802D0E078182800D103E0B32154
:104ED00046A003F07FFF002010B9208800B103E056
:104EE000B42142A003F076FFE07800F00F09E078EB
:104EF00000F0100080B1A078012805D0A078022829
:104F000002D0A078032800D103E0BB2137A003F032
:104F100061FFA07840EA0909207838B3D5F800800D
:104F200000261FE0012000FA06F7208800EA070AA1
:104F3000BA4516D1B7000F2000FA07FB28EA0B0884
:104F400009FA07F040EA0808E078282803D1012090
:104F5000B040686105E0E078482802D10120B04007
:104F60002861761C082EDDD3C5F800802088FF2834
:104F70002BDDD5F80480002623E006F1080001218E
:104F800001FA00F7208800EA070ABA4518D1B700ED
:104F90000F2000FA07FB28EA0B0809FA07F040EA9D
:104FA0000808E078282803D106F1080081406961EB
:104FB000E078482804D106F10800012181402961E8
:104FC000761C082ED9D3C5F80480BDE8F09F0000F8
:104FD00000080140000C0140001001400014014095
:104FE00000180140001C0140002001402E2E5C4CA6
:104FF00069627261726965735C53544D3332463134
:1050000030785F5374645065726970685F44726988
:105010007665725C7372635C73746D3332663130C3
:10502000785F6770696F2E630000000070B50546F9
:105030000C4600262848854211D0284885420ED0CB
:10504000274885420BD02748854208D0264885420C
:1050500005D02648854202D02548854200D104E08B
:105060004FF48F7123A003F0B5FE012C25D0022C44
:1050700023D0042C21D0082C1FD0102C1DD0202C84
:105080001BD0402C19D0802C17D0B4F5807F14D0C1
:10509000B4F5007F11D0B4F5806F0ED0B4F5006F79
:1050A0000BD0B4F5805F08D0B4F5005F05D0B4F53F
:1050B000804F02D0B4F5004F00D104E040F21F1140
:1050C0000CA003F087FEA868204008B1012600E08C
:1050D0000026304670BD000000080140000C014071
:1050E000001001400014014000180140001C014064
:1050F000002001402E2E5C4C6962726172696573FA
:105100005C53544D3332463130785F53746450658C
:10511000726970685F4472697665725C7372635C11
:1051200073746D3332663130785F6770696F2E63E8
:105130000000000070B504460D461348844211D0AB
:10514000124884420ED0124884420BD01148844247
:1051500008D01148844205D01048844202D010483B
:10516000844200D104E040F279110EA003F032FE37
:10517000002008B905B104E04FF4BD7109A003F0A7
:1051800029FE656170BD000000080140000C01406F
:10519000001001400014014000180140001C0140B3
:1051A000002001402E2E5C4C696272617269657349
:1051B0005C53544D3332463130785F5374645065DC
:1051C000726970685F4472697665725C7372635C61
:1051D00073746D3332663130785F6770696F2E6338
:1051E0000000000070B504460D461348844211D0FB
:1051F000124884420ED0124884420BD01148844297
:1052000008D01148844205D01048844202D010488A
:10521000844200D104E040F269110EA003F0DAFDEF
:10522000002008B905B104E04FF4B57109A003F0FE
:10523000D1FD256170BD000000080140000C014057
:10524000001001400014014000180140001C014002
:10525000002001402E2E5C4C696272617269657398
:105260005C53544D3332463130785F53746450652B
:10527000726970685F4472697665725C7372635CB0
:1052800073746D3332663130785F6770696F2E6387
:105290000000000010B501210C48FFF74BFF022170
:1052A0000A48FFF747FF02210848FFF743FF0F2096
:1052B00000F00EF801210548FFF794FF0F2000F0E1
:1052C00007F801210148FFF735FF10BD000C014030
:1052D000002100E0491C8142FCD3704710B5002436
:1052E00001211148FFF77EFF0F20FFF7F1FF022198
:1052F0000D48FFF777FF01E0601CC4B202210A48A5
:10530000FFF794FE00F0010008B1FF2CF4DB02214E
:105310000548FFF70FFF01210348FFF70BFF0F20A0
:10532000FFF7D6FF10BD0000000C014070B500254E
:10533000002601211948FFF7FDFE0F20FFF7C8FFE7
:1053400002211648FFF74EFF0F20FFF7C1FF022191
:105350001248FFF747FF00241BE001210F48FFF729
:1053600041FF0F20FFF7B4FF02210C48FFF75EFE5C
:1053700000F001060F20FFF7ABFF46EA4500C5B27B
:1053800001210648FFF7D6FE0F20FFF7A1FF601CA2
:10539000C4B2082CE1DB284670BD0000000C0140BF
:1053A00070B5044602211A48FFF7C4FE002521E02B
:1053B00001211748FFF7BEFE0F20FFF789FFE00924
:1053C00020B102211248FFF70DFF03E0022110482F
:1053D000FFF7B0FE0F20FFF77BFF01210C48FFF71E
:1053E00001FF0F20FFF774FF0F20FFF771FF60062A
:1053F000040E6D1C082DDBD301210548FFF79AFE32
:1054000002210348FFF7EEFE0F20FFF761FF70BD9A
:10541000000C014010B502210C48FFF78BFE022161
:105420000A48FFF7DFFE01210848FFF7DBFE0F20E7
:10543000FFF74EFF02210548FFF77CFE0F20FFF724
:1054400047FF01210148FFF775FE10BD000C014028
:1054500010B502210A48FFF76DFE02210848FFF748
:1054600069FE0F20FFF734FF01210548FFF7BAFE60
:105470000F20FFF72DFF02210148FFF7B3FE10BDFB
:10548000000C014000BFFEE7704710B500214FF04F
:10549000006000F0BDF810BD38B5044620798DF8E5
:1054A000000000208DF801008DF8020001208DF829
:1054B0000300684600F002F838BD00002DE9F04115
:1054C0000446002500270F26E07810B1E078012877
:1054D00000D103E0752121A003F07CFC6078102846
:1054E00000DA03E076211DA003F074FCA0781028F8
:1054F00000DA03E0772119A003F06CFCE07800B338
:105500002348006800F4E060C0F5E060050AC5F1DA
:105510000407EE40607800FA07F5A07830400543B4
:105520002D011C4822788554207800F01F010120AD
:10553000884021784911890001F1E021C1F800017A
:1055400009E0207800F01F010120884012492278EC
:10555000521141F82200BDE8F08100002E2E5C4C73
:1055600069627261726965735C53544D33324631BE
:1055700030785F5374645065726970685F44726913
:105580007665725C7372635C6D6973632E63000091
:105590000CED00E000E400E080E100E010B504461E
:1055A000B4F5E06F0BD0B4F5C06F08D0B4F5A06FC0
:1055B00005D0B4F5806F02D0B4F5407F00D103E090
:1055C000632104A003F006FC0F4820430F49086044
:1055D00010BD00002E2E5C4C6962726172696573A9
:1055E0005C53544D3332463130785F5374645065A8
:1055F000726970685F4472697665725C7372635C2D
:105600006D6973632E6300000000FA050CED00E085
:1056100070B504460D46B4F1005F02D0B4F1006FDE
:1056200000D103E09F2109A003F0D4FB1448854278
:1056300000D203E0A02105A003F0CCFB114905EA4C
:10564000010020431049086070BD00002E2E5C4C04
:1056500069627261726965735C53544D33324631CD
:1056600030785F5374645065726970685F44726922
:105670007665725C7372635C6D6973632E630000A0
:10568000FFFF0F0080FFFF1F08ED00E000BF0A488A
:10569000006810F8080C0849096811F8041C08444F
:1056A0000549096801F8080C03480068001F024911
:1056B000086000BF704700001802002000BF0A48C1
:1056C000006850F8080C0849096851F8041C08449F
:1056D0000549096841F8080C03480068001F0249A1
:1056E000086000BF704700001802002000BF0A4891
:1056F000006830F8080C0849096831F8041C0844AF
:1057000000B20549096821F8080C03480068001F29
:105710000149086000BF70471802002000BF0A4816
:10572000006810F8080C0849096811F8041C0840C2
:105730000549096801F8080C03480068001F024980
:10574000086000BF704700001802002000BF0A4830
:10575000006850F8080C0849096851F8041C084012
:105760000549096841F8080C03480068001F024910
:10577000086000BF704700001802002000BF0A4800
:10578000006830F9080C0849096831F9041C084020
:105790000549096821F8080C03480068001F024900
:1057A000086000BF7047000018020020044800682D
:1057B00010F8040CC0430249096801F8040C704752
:1057C000180200200448006850F8040CC043024945
:1057D000096841F8040C704718020020044800686A
:1057E00030F9040CC0430249096821F8040C7047E1
:1057F0001802002010B5A4B0DF48006800781390AC
:10580000DD480068401CDC49086000201290DB483D
:105810000068001FD949086011E0D8480068026894
:105820001398401E1299401A14A941F82020D34819
:105830000068001FD14908601298401C1290DDE9F1
:1058400012018842E9D3CD4800680068119013988E
:1058500011286ED2DFE800F0090E141D29374759D0
:105860006E849CB6D2F4F2F1F000002011998847C2
:10587000109074E114980F901199884710906EE180
:1058800015980F9014980E90119A0F9990471090B8
:1058900065E116980F9015980E9014980D90119B35
:1058A000DDE90E129847109059E117980F9016985D
:1058B0000E9015980D9014980C90119C0DA90EC97E
:1058C000A04710904BE11898009017980F901698E9
:1058D0000E9015980D9014980C90119C0DA90EC95E
:1058E000A04710903BE1DDE91801CDE900011798D0
:1058F0000F9016980E9015980D9014980C90119C7E
:105900000DA90EC9A047109029E1DDE919211898C9
:10591000CDE90121009017980F9016980E901598D8
:105920000D9014980C90119C0DA90EC9A0471090D1
:1059300015E111E1DDE9193218991B98CDE9013221
:105940000091039017980F9016980E9015980D904F
:1059500014980C90119C0DA90EC9A0471090FEE060
:10596000DDE91923DDE91B10CDE90123CDE90310A1
:105970001898009017980F9016980E9015980D9003
:1059800014980C90119C0DA90EC9A0471090E6E048
:10599000DDE91A23DDE91C10CDE90223CDE904106D
:1059A000DDE91801CDE9000117980F9016980E90C7
:1059B00015980D9014980C90119C0DA90EC9A04734
:1059C0001090CCE0DDE91C321B991E98CDE9043221
:1059D00003910690DDE919211898CDE90121009085
:1059E00017980F9016980E9015980D9014980C908B
:1059F000119C0DA90EC9A0471090B0E0DDE91C2351
:105A0000DDE91E10CDE90423CDE90610DDE91932E8
:105A100018991B98CDE901320091039017980F90C7
:105A200016980E9015980D9014980C90119C0DA935
:105A30000EC9A047109092E068E043E020E0FFE745
:105A4000DDE91E321D992098CDE9063205910890B6
:105A5000DDE91923DDE91B01CDE90123CDE90301CE
:105A60001898009017980F9016980E9015980D9012
:105A700014980C90119C0DA90EC9A04710906EE0CF
:105A8000DDE91E13DDE92002CDE90613CDE90802A8
:105A9000DDE91A23DDE91C01CDE90223CDE904018A
:105AA000DDE91801CDE9000117980F9016980E90C6
:105AB00015980D9014980C90119C0DA90EC9A04733
:105AC00010904CE0DDE92031229A1F98CDE9083191
:105AD0000A920790DDE91B23DDE91D01CDE90323CF
