:020000040800F2
:1000000028C1002089020008194F00086D0300086C
:10001000154F0008512E0008F17000080000000084
:100020000000000000000000000000007D660008E5
:100030009936000800000000F7020008A1670008D8
:10004000A3020008A3020008A3020008A3020008FC
:10005000A3020008A3020008A3020008A3020008EC
:10006000A3020008A3020008A3020008A3020008DC
:10007000A3020008A3020008A3020008552E0008EE
:10008000A3020008A3020008A3020008A3020008BC
:10009000A3020008A3020008A3020008A945000863
:1000A000A3020008A3020008A3020008A30200089C
:1000B000A3020008A3020008A3020008A30200088C
:1000C000A3020008A3020008A3020008A30200087C
:1000D000A30200083D680008A3020008A30200086C
:1000E000A3020008A3020008A30200080000000009
:1000F0000000000000000000000000000000000000
:100100000000000000000000A3020008A302000895
:100110001D680008A3020008A3020008A30200084B
:10012000A3020008A30200086D2E0008A302000825
:10013000A3020008413A0008A3020008A302000835
:10014000A3020008A3020008A3020008A3020008FB
:1001500000F002F800F088F80AA090E8000C824451
:100160008344AAF10107DA4501D100F07DF8AFF22E
:10017000090EBAE80F0013F0010F18BFFB1A43F085
:10018000010318478CCD0200ACCD02000A444FF0A9
:10019000000C10F8013B13F0070408BF10F8014BE6
:1001A0001D1108BF10F8015B641E05D010F8016B2B
:1001B000641E01F8016BF9D113F0080F1EBF10F88F
:1001C000014BAD1C0C1B09D16D1E58BF01F801CBB2
:1001D000FAD505E014F8016B01F8016B6D1EF9D535
:1001E0009142D6D37047000000230024002500264A
:1001F000103A28BF78C1FBD8520728BF30C148BF8A
:100200000B60704766292AF0C68565292AF0C385E8
:1002100003681B0A28BF41F08001642900F03E8179
:10022000782900F0B581E42900F07481632901F098
:10023000C882732901F0CD82002070471FB501F0FC
:100240000DFE04000020002129F028FD401C606004
:100250000020002129F00CFDE06002F0C5F81FBD70
:1002600010B502F02AF910BD02F076F91146FFF739
:10027000E5FF15F09BFE02F0EAF903B4FFF7F0FF8B
:1002800003BC08F0E9F90000094880470948004725
:10029000FEE7FEE7FEE7FEE7FEE7FEE7FEE7FEE736
:1002A000FEE7FEE704480549054A064B7047000093
:1002B000B16700085101000828BB002028C10020B8
:1002C00028BD002028BD0020EFF3108072B67047D3
:1002D00080F310887047314A1368012B04D04FF027
:1002E000010313602E4A10602E4A11602E484FF011
:1002F000805101607047EFF3108272B627480168A1
:1003000091B14FF0000101602548016829B1EFF378
:10031000098121E9F00F0068016022490968096834
:10032000B1E8F00F81F3098882F310884EF0040ED3
:1003300070471C4908601A494FF0000008601749CF
:100340004FF00100086019484FF47F01D0F80020F9
:1003500041EA0201016014484FF0805101601448E5
:100360000068006880F3088862B670471EF0040FCA
:1003700014BFEFF30880EFF3098020E9F00F40F895
:1003800004ED14BF80F3088880F3098800B51CF0E1
:10039000FDFC5DF804EB4EF0040E7047A801002050
:1003A000A0010020A401002004ED00E020ED00E009
:1003B00008ED00E070477047704700000FB4044933
:1003C00010B503AA029801F009FA10BC5DF814FBFD
:1003D0001CBA00200FB41CB5074B06AA7B44694623
:1003E0000090059801F0CBF90020694601F0DAF998
:1003F0001CBC5DF814FB0000C513000070B504467A
:1004000085690068C10601D5302600E02026C007B6
:1004100007D070BDD4E9012130469047206A401CC6
:1004200020626D1EF6D570BD70B5044685690078F2
:10043000C00707D170BDD4E9012120209047206A70
:10044000401C20626D1EF6D570BD70B50C46054689
:10045000012A05D02878800600D5EA69002302E049
:10046000012305E05B1C934202D2E05C0028F9D135
:10047000A869E618C01AA861286A184428622846A4
:10048000FFF7BCFF04E0D5E9012114F8010B904708
:10049000B442F8D32846FFF7C7FF70BD2DE9F041FD
:1004A0000646002410687529314616A510D0AFF312
:1004B0000080002802DA404213A507E031688A076D
:1004C00001D512A502E0490704D511A5012401E0D8
:1004D000AFF3008000210A2206F1240709E0B0FBF7
:1004E000F2FCB0FBF2F302FB1C00303078541846EB
:1004F000491C0028F3D123462A463046BDE8F04186
:1005000000F0D1BE000000002D0000002B00000014
:10051000200000002DE9F0418046D21D22F00702A4
:100520000025D2E90002F52915A614D0011E72F1AA
:10053000000106DA0023D0EB030063EB020211A6F0
:1005400008E0D8F800108B0701D50FA602E0490794
:1005500001D50EA601251146002408F1240704E068
:1005600000F05CFE30323A55641C50EA0102F7D1CB
:100570002B46324621464046BDE8F04100F093BE8E
:10058000000000002D0000002B00000020000000F3
:1005900070B504460D4621461068AFF300802188EF
:1005A000090502D50F4A7A4402E00E4A7A440E3217
:1005B000002104F1240305E000F00F060009965D18
:1005C0005E54491C0028F7D120780023000704D589
:1005D000702D02D009B1022311322046BDE87040CF
:1005E00000F061BEF6B502002DE9F05F89460446D1
:1005F0004FF0000ADFF874B1FB44C0F820A0204699
:10060000E1688847002874D0252806D0D4E9012164
:100610009047206A401C2062F1E700265F46204692
:10062000E16888472028054607DB312D05D2781977
:1006300010F8200C08B10643F1E7B00701D526F009
:100640000406C4F81CA00027C4F818A02A2D09D05D
:10065000284606F08DFF38B304EB8708303DC8F814
:10066000185019E059F8041B204604EB87029161E9
:10067000E1688847012F054618D1E069002820DA93
:1006800026F020061DE0D8F8180000EB800005EBEE
:1006900040003038C8F818002046E1688847054611
:1006A00006F066FF0028EED1012F0AD02E2D08D1CA
:1006B0002046E16888477F1C0546022F46F0200649
:1006C000C4DBA069002803DA404246F00106A061BD
:1006D000F00701D026F010066C2D0BD0682D09D044
:1006E0004C2D39D06A2D35D0742D35D07A2D33D09C
:1006F00016E038E0E1682F4620468847B8420546B4
:1007000009D16C2F26D04FF48060E1680643204663
:100710008847054604E06C2F1AD04FF480700643DA
:100720000DB3A5F14100192802D8203546F4006622
:100730004A462946204626604E46FFF763FD80B1B3
:1007400001280BD0F61D26F0070000F1080956E736
:100750004020E4E78020D8E70020D6E706F104092E
:100760004DE7284652E7206ABDE8F09FCCB502006D
:100770000FB400B58DB010A9099000910B904FF007
:10078000FF300A9000200C900648784406900648F6
:1007900078446A4607900F9909A801F045F80DB012
:1007A0005DF814FBBB100000D31000002DE9FF5FC3
:1007B0001D464FF0FF3B91464FF000085F46D5E9DC
:1007C0000146A96901987F1C8847296A82468847A3
:1007D0000028F6D1BAF1FF3F0CD0002E24F4C064FB
:1007E00019DD600614D5BAF12B0F09D0BAF12D0F1F
:1007F0000ED103E0584604B0BDE8F09F44F4806495
:10080000A96901987F1C8847761E8246002E02DD6A
:10081000BAF1300F03D0B9F1000F26D032E0A96948
:10082000761E01987F1C44F400748847002E82468F
:1008300005DDBAF1780F06D0BAF1580F03D0B9F13F
:10084000000F10D01EE0B9F1000F02D0B9F1100F67
:1008500018D1A969761E01987F1C24F4007488477A
:100860008246102002E0082000E00A20814609E0CC
:10087000A96908FB0908761E01987F1C44F40074DE
:1008800088478246002E05DD4946504600F0B8FFF5
:100890000028EDDAE96901988847A00502D46FF0D5
:1008A0000100A8E7E00725D1600613D5600502D551
:1008B000C8F1000000E0404629680A1D2A60096866
:1008C000220501D5087015E0220701D5088011E046
:1008D00008600FE02868011D29600068210502D525
:1008E00080F8008006E0210702D5A0F8008001E032
:1008F000C0F8008038467EE72DE9FF5F4FF0000822
:100900009946144646469169D2E901A7DDF838B008
:1009100001988847054659EA0B0005D009E0A1690E
:100920000198761C88470546216A28468847002892
:10093000F5D1681C03D05FEACA7005D015E04FF00E
:10094000FF3004B0BDE8F09F2068011D2160D0F8A1
:1009500000800AE05FEACA7001D108F8015BA16972
:10096000761C01987F1E88470546002F1ADD681CFB
:1009700018D0B9F1000F0DD0E81705EBD060421187
:1009800020F01F0059F822102A1A0120904001423D
:10099000E0D107E0BBF1000FDCD12846216A88478F
:1009A0000028D7D0E16901988847BBF1000F07D133
:1009B000002E05DD5FEACA7002D1002188F8001020
:1009C000A068B84203DDBBF1000F03D017B16FF090
:1009D0000100B6E73046B4E770B5064600F01AFCF1
:1009E0000468054630460A22002100F04DFF2C60C5
:1009F00070BD2DE9F04117460D4604460646012913
:100A000013DD38460FF000F8411C0CD0C0B20A28A4
:100A100004F8010B02D06D1E012DF2DC00202070C5
:100A20003046BDE8F081B44201D10020F9E73846F4
:100A300000F062FF0028F1D00026EFE72DE9F04139
:100A4000044616460D464769007B80072ED038467F
:100A500007F008FE50BB3EB3012E02D0022E25D176
:100A600004E0204601F054F905441DE0384607F043
:100A7000F5FDE168002841F01001E16005DA20464B
:100A800001F068F90120BDE8F081C9030BD5626867
:100A9000E16A914200D81146A26911442269891A7B
:100AA000814200DD08460544002D01DA0220EAE714
:100AB000E16A6068E268814206D29103E06203D590
:100AC00022F4003141F01002A6690027AE4213DC87
:100AD000E16A814201D90B4600E0034603EB060CB4
:100AE0002369ACEB030CAC4506DD814201D98C4691
:100AF00000E084469C4505D1A760276042F02000B5
:100B0000A5620DE0AD1BE669AE1B8142A66000D96F
:100B10000846C01A281A20605819606022F0200088
:100B200003490840E060002084F84870ABE700000B
:100B3000BFCFD7FF2DE9F0410C46074616461046B9
:100B400000F06EF82078611C61280AD0722802D06B
:100B500077283CD102E00125002405E00225042489
:100B600002E0082448F2020511F8010B2B2806D0F8
:100B7000622809D011F8010C74280AD00BE045F066
:100B8000030544F00204EFE745F0040544F00104D6
:100B9000EAE744F010043846214607F067FD411C9F
:100BA00015D00021316171604FF40071F560F16181
:100BB0007061200704D5304602220021FFF73EFF76
:100BC000306D40F0010030653046BDE8F081002016
:100BD000FBE72DE9F0410D460646104C206DC1079C
:100BE00004D0410804D020F00104F7E722460EE0CB
:100BF000542015F0F6F907000ED0206D47F00101E2
:100C0000084354212065384600F09AF93A462946AF
:100C10003046BDE8F0418DE70020D6E7C8B9002096
:100C20002DE9F04704464FF000094FF0FF37C56843
:100C3000D4E90486A80707D0204601F0BFF8304663
:100C400007F000FD002802DA3846BDE8F0872805E5
:100C500002D5404611F06EFB4C21204600F070F9A1
:100C6000206D20F0010020654846EEE740EA0103D0
:100C700010B59B070FD1042A0DD310C808C9121F45
:100C80009C42F8D020BA19BA884201D9012010BD7F
:100C90004FF0FF3010BD1AB1D30703D0521C07E04C
:100CA000002010BD10F8013B11F8014B1B1B07D1B0
:100CB00010F8013B11F8014B1B1B01D1921EF1D121
:100CC000184610BD40EA0103024630B59B0710D11B
:100CD0004FF0013400E008C208C91D1B9D4315EA0E
:100CE000C41FF8D013F0FF0102F8011B0DD01B0A3E
:100CF000F8E711F8013B002B02F8013B05D011F891
:100D0000013B002B02F8013BF3D130BD0022CBB2F6
:100D100010F8011B994200D1421E0029F8D110465B
:100D2000704710B5431C02E010F8011B71B1810738
:100D3000FAD14FF0013202C88C1A8C4314EAC21166
:100D4000F9D0C01A0A0603D0C01E10BDC01A10BDCB
:100D50000A0401D0801E10BD0902FCD0401E10BD47
:100D600040EA010370B59B072ED14FF00136042AEB
:100D70002AD308C810C99D1B9D43121F15EAC6152A
:100D800017D0D8B2E1B2401A50EA056110D198B23A
:100D9000A1B2401A50EA05410AD123F07F4024F065
:100DA0007F41401A50EA052102D1180EA0EB1460D1
:100DB00070BDA342DBD018BA21BA884201D9012004
:100DC00070BD4FF0FF3070BD0AB9002070BD10F843
:100DD000013B11F8014B63B1A3420AD1521E08D066
:100DE00010F8013B11F8014B1BB1A34201D1521E77
:100DF000EDD1181B70BD421E12F8013F002BFBD134
:100E000011F8013B002B02F8013BF9D17047032A8E
:100E100040F2308010F0030C00F0158011F8013B17
:100E2000BCF1020F624498BF11F801CB00F8013BFE
:100E300038BF11F8013BA2F1040298BF00F801CBC2
:100E400038BF00F8013B11F0030300F02580083A99
:100E5000C0F0088051F8043B083A51F804CBA0E8F0
:100E60000810F5E7121D5CBF51F8043B40F8043B45
:100E7000AFF30080D20724BF11F8013B11F801CB7A
:100E800048BF11F8012B24BF00F8013B00F801CB4B
:100E900048BF00F8012B704710B5203AC0F00B8016
:100EA000B1E81850203AA0E81850B1E81850A0E86E
:100EB0001850BFF4F5AF5FEA027C24BFB1E81850C8
:100EC000A0E8185044BF18C918C0BDE810405FEA38
:100ED000827C24BF51F8043B40F8043B08BF7047B4
:100EE000D20728BF31F8023B48BF11F8012B28BFB9
:100EF00020F8023B48BF00F8012B70474FF000027A
:100F00000429C0F0128010F0030C00F01B80CCF11B
:100F1000040CBCF1020F18BF00F8012BA8BF20F889
:100F2000022BA1EB0C0100F00DB85FEAC17C24BFDD
:100F300000F8012B00F8012B48BF00F8012B704787
:100F40004FF0000200B5134694469646203922BF62
:100F5000A0E80C50A0E80C50B1F12001BFF4F7AFAD
:100F6000090728BFA0E80C5048BF0CC05DF804EB8F
:100F7000890028BF40F8042B08BF704748BF20F8FD
:100F8000022B11F0804F18BF00F8012B704710B5ED
:100F9000044610F0030F08BF11F0030F40F0158056
:100FA0004FF0013E121FC0F20E8051F8043BA3EB3C
:100FB0000E0C2CEA030C1CEACE1C08BF40F8043BC4
:100FC000F0D0A1F1040102F10402521E08DB11F875
:100FD000013B002B00F8013BF7D11146FFF78EFFD4
:100FE000204610BD4FF0013C50F8042B51F8043B53
:100FF0009A4221D1A2EB0C03934313EACC1317D1ED
:1010000050F8042B51F8043B9A4215D1A2EB0C0383
:10101000934313EACC130BD150F8042B51F8043B43
:101020009A4209D1A2EB0C03934313EACC13DBD011
:101030004FF00000704700BFD01A01BAB1FA81F139
:1010400001F0180122FA01F0CB40C1F12001DBB21E
:10105000C0B2C01A2CFA01F3D11A914311EAC3119C
:10106000E6D1704710B503681C1404EB21449BB211
:1010700089B2194494FBF2F302FB134394FBF2F49C
:1010800001EB034393FBF2F102FB113193FBF2F30B
:1010900001E05B1E11440029FBDB016003EB04400F
:1010A00010BD2DE9F04704464FF0FF3A86B00068C6
:1010B000029060680390A0680490E0680190206945
:1010C0000090656905F18040B0F1004F7DD83C2269
:1010D000002102A8FFF7C6FF3C22014603A8FFF744
:1010E000C1FF1822014604A8FFF7BCFF411E40F2D1
:1010F000B55201A8FFF7B6FF0C220646684600214C
:10110000FFF7B0FF00EB860028443E4D00267D44EB
:101110000FE09A1A491CCDE90012022902D00C29CD
:1011200007D104E0810704D0521C019201E0401C69
:1011300000960099019B6A5C9A42EADD012906D17A
:101140001C2B04D1810702D00221CDE90016A0F1A9
:1011500046018B2940D20199009B00220F4602E0F4
:10116000AE5C521C31449A42FADB012B02DD82074D
:1011700000D0491E40F2B55540F26D16C21700EB83
:10118000927292106A4300F0030505FB0622850760
:101190000A4400D1521E049D02EB4206DDF80C8089
:1011A000A94605EBC605184EC5EB0515DDF808C0C8
:1011B00008EB850535442E14ADB2C6EB0616C5EB1B
:1011C0000515B6000CEB850500E005E006EB1546BD
:1011D00066F31F45360C03D0504606B0BDE8F087D5
:1011E000C4E904307F1C0720521CC4E9029792FB1B
:1011F000F0F3E4E806C800FB132084E80304284663
:10120000EBE70000C7AA0200A039CEFD7047704787
:101210007047000000487047C4BA002030B5B0F1F4
:101220000A024FEA900E71F100034EEA817EB0EBA4
:101230000E0061EB91014FEA101E4EEA017E10EBA9
:101240000E0041EB11114FEA102E4EEA016E10EB29
:101250000E0041EB11214FEA104E4EEA014E10EB09
:101260000E0041EB1141401841F100014FEAD0005E
:1012700040EA41704FEAD10110EB80054FEA81044A
:1012800044EA907444EB01046D1944EB0404521BCE
:10129000A3414FF0000348BF0A3200D530BD401CC7
:1012A00041F1000130BD2DE9F0470D4699469246C7
:1012B000044600F124080168880604D5E06921F09D
:1012C0001001216000E00120A84201DD471B00E081
:1012D0000027A1697A1902EB0900081AA061207899
:1012E000C00602D42046FFF789F8002608E0D4E9BA
:1012F00001211AF806009047206A401C761C2062E3
:101300004E45F4DB2078C0060AD52046FFF776F874
:1013100006E0D4E9012130209047206A401C206279
:10132000381EA7F10107F4DC07E0D4E9012118F821
:1013300005009047206A401C2062281EA5F1010587
:10134000F3DC2046FFF770F82078000602D5022073
:10135000BDE8F0870120FBE770472DE9FF4F0C4601
:101360001E464FF0FF378BB0D2E90001DDF86080F8
:101370000A908A46C1F30A5505B93D460021084640
:101380004FF00000BAF1000F00F4400005DA00EB66
:1013900080004FF4400101EA50004FEA9059B9F142
:1013A000010F00DDB9460A9850EA4A000ED044F613
:1013B0001050A5F2FF3545432F14B8F1000F1ED091
:1013C0007542291E1EDDC9F100021CE0B8F1010FB3
:1013D0004FF0000001D0302103E0F24305E021543A
:1013E000401CB042FBDB30460022002121540B9907
:1013F000C1F80880C1E900200FB0BDE8F08FBD1B27
:101400006D1CDEE74A4600DA694206A800F07EFF5E
:1014100006AB93E8070003AB83E8070050460A9940
:1014200001F05BF98DE80700A0F500501F3800902F
:101430000398002D09DD42F21F014A46084403A922
:101440000390684601F0BAFB08E0A0F500504A4658
:101450001F3803A90390684601F0C4FB8DE807001C
:101460000004000C03D04FF0FF30410800E01046AC
:10147000B8F1000F03D00022009215461EE0751E41
:1014800005D4FFF7CBFE303262556D1EF9D5B34659
:101490000122084302D000227F1C04E0207830287B
:1014A00001D100227F1E002A099786D01DE0112D50
:1014B00007DAFFF7B3FE303262556D1C50EA0102C5
:1014C000F5D1084302D00098C8B10EE00021681E93
:1014D00005E0235C625C63542254401E491C814237
:1014E000F7DBAB46A81B401E0990002004F80B0058
:1014F0000B98099AC0F80880C0E9002B7CE71126F8
:101500004FF0000859E72DE9F04F88460446D21DF8
:1015100022F0070191B0D1E90001CDE90A0105F0FF
:10152000D5FF02460B98C00F01D02D2007E02068A0
:10153000810701D52B2002E0202101EAC000032A07
:10154000099001D0072A05DB03464146204600F0FA
:1015500093FC0BE12078800601D5E06900E00620CD
:10156000B8F1650F814606D0B8F1660F18D0B8F112
:10157000670F70D131E00020B9F1110F009001DB4D
:10158000112301E009F101030AAA01A90CA8FFF740
:10159000E4FEDDE90C70002609F10105834647E011
:1015A00001204B4600904FF000470AAA01A90CA861
:1015B000FFF7D3FEDDE90DB00C995D46002610B9AA
:1015C00009F101000D18B9EB050003D4C0F1FF3695
:1015D00009F10105A5EB09002BE0B9F1010F01DAD2
:1015E0004FF001090020B9F1110F0090484601DDCC
:1015F000112300E003460AAA01A90CA8FFF7ADFEDB
:10160000DDE90C704D4600268346207800070AD499
:10161000AB4500DA5D4601A8012D04DD411911F842
:10162000011C302907D04F4502DA17F1040F04DA04
:10163000012082460FE06D1EEEE7002F02DCED1B5D
:101640003E4403E0781CA84200DD7D1CB81B00F17D
:10165000010A4FF000472078000703D4AA4501DBB8
:101660004FF0FF3A0021B7F1004F0DF143088DF81C
:10167000431024D002202B23002F01DA7F422D2398
:101680000A21021EA0F1010000DC5FB197FBF1FC12
:1016900097FBF1F201FB1C7C17460CF1300C08F8AB
:1016A00001CDEEE7A8F1010003702188090501D5FD
:1016B000452100E06521A0F1010800F8011C09980E
:1016C0000FA9A1EB0807FF1D00B10120411901EB93
:1016D000EA70A1693844081A401EA0612078C0064B
:1016E00002D42046FEF78AFE099828B1D4E90121E8
:1016F0009047206A401C20622078C00622D52046F0
:10170000FEF77CFE1EE0002E04DBB34502DD01A8DF
:10171000805D00E03020D4E901219047206A401C20
:101720002062761CAAF101005FEA000A0AD100F0EB
:1017300095FBC0680168405CD4E901219047206AAC
:10174000401C2062281EA5F10105DCDC07E0D4E97D
:10175000012118F8010B9047206A401C2062381EB6
:10176000A7F10107F3DC2046FEF75EFE032011B06F
:1017700043E6000001694A1C02610878704700B521
:101780008FB0CDE901310021059105497944CDE9BA
:10179000031011466846FEF727FF0FB000BD00009A
:1017A000E5FFFFFF0A6802F8010B0A60704710B5F9
:1017B000436913B1AFF3008001E0FEF746FE01205C
:1017C00010BD127800F124010A7000224A70012233
:1017D000EDE711684FF0FF32E9E70000074B70B505
:1017E0000D467B44FFF7CBFF0446284600F084F803
:1017F00010B14FF0FF3070BD204670BD350B0100B9
:101800003A2800D2303820F02002412A01D3A2F138
:101810003700884201D34FF0FF307047026811440F
:101820001378016018467047D160054979445161C9
:1018300004497944116200211161114600F05CBB3A
:10184000EDFFFFFF2F060000426842B1016811F86A
:10185000013B23B1521EC0E9001218467047012116
:10186000C160881E704742685AB1C368016843B9B5
:1018700083688B4205D0491E521CC0E9001200202B
:1018800070474FF0FF3070472DE9F04791460F4603
:1018900080460446002614F8015B2DB100F0D6FA0C
:1018A0000068405DC007F6D12B2D02D02D2D18D039
:1018B000641E4A463946204600F0D8FC27B13968F4
:1018C000A14201D1C7F800804FF0020471050BD589
:1018D0004042002803DDFFF79DFC0460A007BDE83F
:1018E000F08746F48066E4E70028F8DAFFF792FC18
:1018F00004606FF00040F2E7007B00F0800070476A
:1019000070B50D4601461446D36850692A4606F064
:10191000FDFE002807DA411C07D0E16820F00040F6
:1019200041F48041E160281A70BD204600F012FAAF
:101930004FF0FF3070BDC1680022026021F4805179
:1019400041F0400111F4C06FC16001D08260704766
:1019500002694168891AC269891A816070472DE954
:10196000F0470446C06840F48000E060010312D5EF
:1019700020F40020E060810606D4E26A61688A42B1
:1019800000D80A46511A216040F40010E06094F833
:101990002500BDE8F08720F40010E060800602D545
:1019A000204600F02EFAE06842F281014FF0FF3944
:1019B0000140012903D0204600F0CCF9B6E02168AF
:1019C000002600290ADAC94340F480502160C4E9A6
:1019D00002606068411C61600078DAE744F240010F
:1019E00008420CD020F4A04040F040002660E060A7
:1019F00021696068401AE169401AA06096E0216997
:101A000091B9C00310D4E06914F0EBFA2061B0B1D1
:101A1000E06840F4006010F4407FE06002D140F4E0
:101A20008070E06020696060E068D4F814A0C106AE
:101A30001AD5C0030ED5204600F0C0F914E004F119
:101A4000240020610120E061E06820F4407040F44F
:101A50008060E6E721696068401AA1690144504648
:101A600006F073FE0028A6DBE068C0032AD5616893
:101A7000E06A884200D808462169451AE069471B98
:101A80001BD02046D4F8188000F098F908EB050127
:101A90005046C4F8188006F058FE00288BDBE0683A
:101AA00040F40030E060000202D5A0692844A06143
:101AB000E1692069C91B45180DE0204600F07EF958
:101AC000E769F5E725696168D4E90607491BE5621E
:101AD00008446560A061E06820F0100010F4C06F59
:101AE000E06002D0204600F01BFDE06840F480502A
:101AF000C4E90260000205D52069E06260606FF011
:101B0000010046E7224639462846FFF7F9FE411C08
:101B10000CD02918E16258B1401E2060681C60603A
:101B2000E06840F40030E060287832E7484630E76B
:101B300065602046FFF7FFFEF8E72DE9F047054610
:101B40000C46C86820F4201040F48000C86080066D
:101B500002D5084600F055F9E06841F282014FF0E5
:101B6000FF390140022903D0204600F0F3F8B5E028
:101B700000F42041B1F5004F0FD1C00306D56168D4
:101B8000E06A884200D80846606006E02069E062AA
:101B90006060606906F062FDA061A0680022EEB29C
:101BA00000280DDAE1688B050AD4C043A06041F437
:101BB00090302260E0606068411C61600670A5E0C2
:101BC000E0689046226040F40050E060206968BB05
:101BD000606906F047FD012704F12405A0B1A08942
:101BE00010F4407F08D0E06914F0FBF9206118B1CF
:101BF000E06840F4006016E0E7612561E06820F4E9
:101C0000407040F480600EE0E06914F0EAF90028CA
:101C10002061F1D0E06840F4006010F4407FE060A3
:101C200002D140F48070E06020696060E06825695E
:101C30006FF0010AC1051FD56168E06A884200D8CB
:101C40000846411B04D02246284600F08DF8F0BB20
:101C5000E068010203D5E562C4E9015854E0691C5B
:101C6000E1626160E16940F48030491EC4E902101C
:101C700030462E70BDE8F087010202D500F48032B4
:101C80000AE06068411C61600670E0680A2E40F45A
:101C90008030E06006D00022E16A6068814203D9AA
:101CA0000B4602E00122F7E70346A7895B1B7F058D
:101CB00003D4E7699F4200DDE2B1814200D80146CA
:101CC000E5620F1AC4E90158002B09DD00E005E0C8
:101CD00022461946284600F047F808B14846C9E7A9
:101CE00047B1A069E5626560C01BA061E06840F093
:101CF0001000E060E068000208D56168A069E56254
:101D0000491B08446560A0615046B3E73046B1E71F
:101D100010B50146C268900703D0900607D5886ABF
:101D20000AE0FFF777FA01210160881E10BD8B6978
:101D3000486818440B69C01A91F848301BB191F8F3
:101D40004910401A10BD1103FCD50028FADD401ED1
:101D500010BD0000C16821F4001141F08001C16094
:101D600000218160016070472DE9F04781461446EB
:101D70000E464FF0FF383248D5685769054209D002
:101D80003846A16906F0E1FC002811DB2C48C0436D
:101D90000540E5602B4632464946384606F0E3FCEE
:101DA000A16920F00042B21A11440028A16103D0B9
:101DB0002046FFF7CFFF4046BDE8F08770B50446E8
:101DC0000569C06A6168884200D80846E16821F464
:101DD0002011E160C90312D5A84208D02246411B58
:101DE0002846FFF7C1FF10B14FF0FF3070BD002053
:101DF000E562C4E90150E06820F48030E060002032
:101E000070BD10B50446C06820F02000E060A16AF3
:101E1000A06988420DD02046FFF7D0FFE06820F48B
:101E2000405040F01000E060A06AA0612069E062CC
:101E3000606044F24001E0688843E06010BD00004B
:101E40001000020000487047C4BA002010B500F02E
:101E500005F8001D10BD00BF457E02000048704718
:101E6000E4BA002010B50446FFF7F0FF0068005DFB
:101E700000F0010010BD00002DE9F0411F460446AE
:101E800003260168072A01F4006004DB08B116A5E7
:101E900005E016A503E008B115A500E015A521F0A1
:101EA00010002060A069C01EA0610FB1401EA0619B
:101EB0002046FEF7A3FA4FB1D4E9012138469047F6
:101EC000206A401C2062C01C206206E0206AFAE7FB
:101ED000D4E9012115F8010B9047761EF8D220466F
:101EE000FEF7A2FABDE8F0814E414E006E616E0031
:101EF000494E4600696E66002DE9F34F4FF0000A27
:101F00000C4656468DB001200C9001F10C000B9050
:101F100062690B980121904705002DD0252D2CD00A
:101F2000216A8847C0B162690B9801219047216AF4
:101F300088470028F7D16269411E0B98904700E05E
:101F4000761CA1690D988847216A88470028F7D137
:101F5000E1690D988847DBE7A1690D988847A84299
:101F6000074601D1761CD3E7E1690D9888477F1CAD
:101F700002D1BAF1000F6FD06BE162690B980027B4
:101F80003D46394690472A2804D162690B980121C1
:101F900090470125DFF8D08262690B9801219047B4
:101FA000A0F130010A290AD24745E5DC07EB870199
:101FB00000EB4107303FDFD445F01005ECE7E906C0
:101FC00001D46FF000476C280AD04C2814D0682840
:101FD00015D06A280DD074281CD07A281AD01DE09C
:101FE00062690B98012190476C2802D045F00405E6
:101FF00014E045F002050DE045F020050AE06269B5
:102000000B9801219047682802D045F0080505E0AB
:1020100045F4006562690B9801219047C4E90157B6
:1020200065283DD019DC58287AD00CDC452837D0FB
:1020300004DC252826D041289ED131E046282FD027
:10204000472899D12CE05B2877D0612828D06328D5
:102050007CD0642823D15AE0F6E06F2848D008DC11
:1020600066281DD067281BD0692821D06E2816D17C
:1020700027E0702845D0732868D0752847D0782885
:102080000DD14DE0A1690D988847252805463FF4FC
:1020900069AFE1690D9888476D1C3FF46AAFD8E0DD
:1020A0000D9923466A466FF00100AFF30080C5E04A
:1020B00045F0400023464FF000026060A80736D488
:1020C0003EE0E8077FF447AF2068011D216000680B
:1020D000290501D506701BE7290701D5068017E7FA
:1020E000A90703D5F117C0E9006111E706600FE702
:1020F00045F0400023464FF008026060A80716D460
:102100001EE040F60E0125EA0100606016E045F091
:10211000400023464FF00A026060A80707D40FE092
:1021200045F040006060A80708D5234610220D99AD
:102130006FF00100AFF3008080E007E0102223463B
:102140000D996FF00100FEF731FB77E04FF00009C9
:1021500063284F46C8464B46CB4602D05B2806D084
:1021600038E0E80601D40120A060012732E062696E
:10217000D4F80CB00B98012190475E2807D14FF09E
:10218000010949466269D4F80CB00B98904721695F
:1021900039B900210A4603AB43F82120491C08291C
:1021A000FADBD8B3216949B308F1010862690B98D9
:1021B000012190475D28F4D1B9F1000F09D000202A
:1021C00003A951F82020D24341F82020401C0828C0
:1021D000F7DB03AB2069002820794FEA40701ED05E
:1021E0005B462246CDF80080CDE901970D99002885
:1021F0006FF0010020DAAFF300801FE0C11703AADF
:1022000000EBD1614B1121F01F0102EB8302411A57
:1022100013680120884003431360C7E719E00D9954
:10222000224600286FF00100009702DAAFF3008029
:1022300004E0FEF761FB01E0AFF3008000280ADA5A
:10224000401C06D10C9820B14FF0FF300FB0BDE814
:10225000F08F5046FAE7E90701D10AF1010A064476
:1022600000200C9054E60000CCCCCC0C2DE9F05FA3
:10227000824615468B4600270AF10104B9460078CC
:10228000302801D09DB113E014F8010B0127782804
:1022900003D0582801D045B10AE00DB1102D07D167
:1022A000002714F8010B102502E0082500E00A259C
:1022B0000026B0460EE005FB080005FB06F10127ED
:1022C0001FFA80F801EB1046B6F5803F00D3B946FF
:1022D00014F8010B2946FFF793FA0028EBDABBF15B
:1022E000000F05D00FB1641E00E05446CBF800404B
:1022F000B9F1000F06D0FEF78DFF02210160C81E64
:10230000BDE8F09F48EA0640FAE700002DE9F047F3
:10231000814616468AB0334878440DC88DE80D00D2
:1023200030487844801C03AC0DC884E80D0041F6A9
:102330009B300844372190FBF1F290FBF1F5A5F1B9
:10234000800501FB12041B3C02D56442012000E021
:102350000020DFF890A080460027FA44AAF1BE0AC8
:102360000DE0E00709D03246684607EB47010AEB6B
:10237000810100F037FC8DE8070064107F1C002C01
:10238000EFD1184F7F44AC3F18E0E80714D007EBBB
:1023900004100DF1180A90E80E008AE80E00C068DB
:1023A000F04201D198190890324606A903A800F01E
:1023B00019FC03AB83E807006D10641C002DE4D109
:1023C00032466946B8F1000F03A802D000F0F6FBD0
:1023D00001E000F007FCC9E90001C9F808200AB0D3
:1023E000BDE8F0874899020010B542485421FEF735
:1023F000A7FD41485421FEF7A3FD40485421FEF7B4
:102400009FFD3F493B483C4A3F4B08603D490A60BD
:102410003A491960531C0365481C10650120086582
:102420003B48344A39A17844FEF784FB20B9384848
:1024300078440A3800F011F937482F4A35A178441A
:10244000FEF778FB20B9344878440A3800F005F9E3
:1024500032482A4A2FA17844FEF76CFB20B92F4856
:1024600078440A3800F0F9F840232248DC000021C3
:10247000224600F0C9F820B125487844543800F0CD
:10248000ECF81D4822464023002100F0BDF820B1A1
:1024900021487844543800F0E0F8184822461023C8
:1024A000002100F0B1F8002806D01C487844BDE8AF
:1024B0001040563800F0D1B810BD104870B5006D0E
:1024C00020F001040B48FEF7ABFB0B48FEF7A8FB1E
:1024D0000A48FEF7A5FB09E0206D20F00105204623
:1024E000FEF79EFB20460FF025FF2C46002CF3D173
:1024F00070BD0000C8B900201CBA002070BA0020CE
:102500000C030020100300201403002072000000C0
:102510002F970200770000001D9702000C97020021
:1025200070B5054640F202260A4C0FE094F85000C0
:10253000C00708D0AC4206D0E06836EA000002D1FD
:10254000204600F02FF8206D20F00104002CEDD182
:1025500070BD0000C8B900207546FFF773FCAE4699
:1025600005006946534620F00700854618B020B59F
:10257000FDF798FEBDE820404FF000064FF0000741
:102580004FF000084FF0000B21F00701AC46ACE81B
:10259000C009ACE8C009ACE8C009ACE8C0098D4688
:1025A0007047000070B50446C068810713D08006EC
:1025B00001D5A56A04E0A169606808442169451A4B
:1025C0002046FFF7FBFB0022064629462046FEF781
:1025D00035FA304670BD002070BD70B510B1BDE851
:1025E0007040DFE70025074C6E1E07E02046FFF72E
:1025F000D9FF00B13546206D20F00104002CF5D143
:10260000284670BDC8B9002070B5C468A50713D0AE
:10261000650211D4B2F5807F09D0B2F5007F06D0F3
:10262000B2F5806F08D1012300F1240106E05D1EA0
:102630006FF07F46B54201D3012070BD0161C361D7
:10264000416024F470611143C160002070BD0446F4
:10265000AFF300802046FDF710FE10B500F00AF839
:10266000BDE81040AFF30080002801D005F0F4BFB2
:102670007047000010B5014602A000F015F80120D7
:1026800010BD000053494752545245443A20526508
:102690006469726563743A2063616E2774206F7099
:1026A000656E3A200000000070B505460C460A2011
:1026B00000E06D1C06F081F835B128780028F8D1CB
:1026C00002E0641C06F079F814B120780028F8D1F3
:1026D000BDE870400A2006F070B85FEA400C08BF01
:1026E00091F0000F4FEA8C234FEAC12243EA515187
:1026F0004FEA1C5018BF00F5F0404FEA300018BFF9
:1027000041F000415FEA6C5C00F02980BCF1FF3FC2
:1027100008BF40F080407047130C06BF12044FF012
:10272000100C4FF0000C130E04BF12020CF1080C39
:10273000130F04BF12010CF1040C930F04BF92009D
:102740000CF1020CD30F04BF52000CF1010C114626
:102750004FF00002A0F11F00A0EB0C00704711F039
:10276000004F08BF704731F000413FF4D5AF0B0C6C
:1027700006BF09044FF0100C4FF0000C0B0E04BF05
:1027800009020CF1080C0B0F04BF09010CF1040C39
:102790008B0F04BF89000CF1020CCB0F04BF490062
:1027A0000CF1010CCCF12003A0EB0C0022FA03F396
:1027B00002FA0CF241EA030100F10100704720F037
:1027C0007F4C80EA030023F07F47ACEB070303F55F
:1027D0007C5300F0004003F1FF032DE980494FEAEC
:1027E000154B09B44FEA144325EA0B4E24EA03487B
:1027F0000FF2042606EB132749083E785FEA3202FF
:1028000003FB0667C7F5000707FB06F64FEA5437D8
:102810004FEAD64606F1020607FB066CCCF1005CD7
:102820004FEA1C472CEA074C07FB06F40CFB06F5A5
:1028300004EB15464FEA961634BF00204FF00040D7
:102840004FEAD13706FB07FC4FEA1C4C0CFB0BF799
:10285000D21B03FB0CF761EB07010CFB0EF7B0EB8F
:10286000074072EB17420CFB08F734BFA2EB07429C
:10287000B2EB074261EB17414FEA0C444FEA910774
:1028800006FB07FC4FEA1C4C0CFB0BF7B0EBC740F8
:1028900072EB573203FB0CF734BFA2EBC742B2EB2B
:1028A000C74261EB57310CFB0EF7B0EBC70072EB80
:1028B00057720CFB08F734BFA2EBC702B2EBC7029A
:1028C00061EB5771039F4FEA816141EA921104EB7A
:1028D000CC044FEAD1374FEA826206FB07FC42EA9A
:1028E00090124FEA80604FEA1C4C0CFB0BF7D21B96
:1028F00003FB0CF761EB07010CFB0EF7B0EB074095
:1029000072EB17420CFB08F734BFA2EB0742B2EBA5
:10291000074261EB17414FEA8C554FEA910704EBF0
:102920009C2406FB07FC4FEA1C4C0CFB0BF7B0EB9E
:10293000C74072EB573203FB0CF734BFA2EBC74220
:10294000B2EBC74261EB57310CFB0EF7B0EBC7009F
:1029500072EB57720CFB08F734BFA2EBC702B2EB65
:10296000C70261EB577115EB4C254FEA816141EAD3
:1029700092114FEA82624FEAD13742EA901206FB87
:1029800007FC44F100044FEA80604FEA1C4C0CFB4A
:102990000BF7D21B03FB0CF761EB07010CFB0EF7E7
:1029A000B0EB074072EB17420CFB08F734BFA2EB09
:1029B0000742B2EB074261EB174115EB1C154FEADA
:1029C000813141EA92414FEA823242EA90424FEA33
:1029D00080304FEA0C7644F1000448EA03434EEAA3
:1029E0000B484FF0000EB2EB080C71EB030724BF4D
:1029F000624639464EEB0E0E4FF0000B0018524166
:102A000049414BEB0B0BB2EB080C71EB03077BF16D
:102A1000000B24BF624639464EEB0E0E4FF0000B02
:102A20000018524149414BEB0B0BB2EB080C71EB18
:102A300003077BF1000B24BF624639464EEB0E0EB6
:102A400051EA020718BF46F0010616EB0E7655F163
:102A5000000254F1000103D5BDE88901BDE80088FA
:102A6000BDE88901BDE80048B619524141EB0101BA
:102A7000A3F10103704780807F7E7D7C7B7A79782B
:102A8000777676757473727171706F6E6E6D6C6C33
:102A90006B6A6A69686867666665646463636261D5
:102AA0006160605F5F5E5E5D5D5C5C5B5B5A5A5956
:102AB00059585857575656555555545453535252C2
:102AC0005251515050504F4F4F4E4E4D4D4D4C4C1A
:102AD0004C4B4B4B4A4A4A49494948484847474763
:102AE00047464646454545444444444343434342A0
:102AF000424242414141002B26D4770021D01CB5EF
:102B00004FEA370703B44FF010004FF010014FF0B9
:102B100000000FBCBDE810400BF1010BBBF1010F31
:102B200008BF5FEA170722BF12F1010211F101018C
:102B30004FF0004143F1000300F0004043EA000081
:102B40007047F9D35708DAE746EA064613F1400F13
:102B50004FEA16461FDD13F1200FDFBF16430A466A
:102B6000002120335B42C8D0C3F1200746EA064665
:102B700002FA07F74FEA164646EA0706C3F12007AE
:102B800022FA03F201FA07F721FA03F14FF00003EA
:102B900042EA0702B1E746EA020646EA06464FEA7B
:102BA000164646EA0106BCBF46EA0646360C4FF01A
:102BB00000034FF000024FF000019EE72DE9C048EE
:102BC000934630B491E8380007C831EA400C48BF5A
:102BD00034EA430C03D5FFF7F2FDFFF78CFFF0BC9E
:102BE000BDE800882DE9C048934630B491E838002C
:102BF00007C810F0804F08BF13F0804F03D100F0DA
:102C000005F8FFF778FFF0BCBDE8008820F07F47AB
:102C100080EA030023F07F4C07EB0C03A3F57C5301
:102C200000F00040A3F1FE0392F0000F00F0B3802B
:102C300095F0000F00F077802DE901494FEA11402F
:102C40004FEA144621EA004800FB06FC24EA064746
:102C500008FB06F607FB08F800FB07F718EB064829
:102C60004CEB164C4FEA124B18EB07484FEA15464F
:102C70004CEB174022EA0B4E0BFB06FC25EA0647FD
:102C80000EFB06F607FB0EFE0BFB07F71EEB064ED0
:102C90004CEB164C4FF000061EEB074E4CEB174B5F
:102CA00018EB0B0840F1000018EB0E0B58EB000876
:102CB00040F100008F1A4FF000013CBFC943661B72
:102CC00014BFB5EB040C00213CBFC943F61B4FEA0F
:102CD00017444EEA8E0E27EA04454FEA1C4704FBD0
:102CE00007622CEA074C05FB07F70CFB05F604FB13
:102CF0000CFC16EB074642EB174216EB0C4642EB78
:102D00001C421BEB060658EB0202414146EA9E06B6
:102D100001D5BDE80189B619524141EB0101A3F18A
:102D20000103BDE801894FEA14454FEA114724EA3F
:102D3000054621EA074C05FB07F406FB07F70CFBE9
:102D400006F105FB0CFC11EB074144EB17444FEA7D
:102D5000124711EB0C4144EB1C4422EA074C05FBE3
:102D600007F206FB07F70CFB06F605FB0CFC16EB5F
:102D7000074642EB174216EB0C4642EB1C456A181D
:102D800054F1000148BF7047B619524141EB0101AF
:102D9000A3F10103704795F0000F37D04FEA1142BD
:102DA0004FEA144721EA024624EA074C02FB07F1E6
:102DB00006FB07F70CFB06F402FB0CFC14EB0744C4
:102DC00041EB17414FEA154714EB0C4441EB1C4112
:102DD00025EA074C02FB07F506FB07F70CFB06F696
:102DE00002FB0CFC16EB074645EB174516EB0C46B1
:102DF00045EB1C42121951F1000148BF7047B6194A
:102E0000524141EB0101A3F1010370474FEA144520
:102E10004FEA114724EA054621EA074C05FB07F172
:102E200006FB07F70CFB06F24FF0000605FB0CFC57
:102E300012EB074241EB174112EB0C4251EB1C41E4
:102E400048BF7047921841EB0101A3F1010370479D
:102E500000BFFEE710B51AF0DBFB034808F058F995
:102E60001AF0F8FB10BD00001C36002010B51AF057
:102E7000CFFB034808F04CF91AF0ECFB10BD000042
:102E80007036002010B5044604F0704010B10948B7
:102E9000204008B904B104E040F20E2106A005F07C
:102EA000AFFD04F0805010B11248046001E01248F8
:102EB000446010BD0000F0EF2E2E5C4C6962726120
:102EC000726965735C53544D3332463130785F53C9
:102ED00074645065726970685F4472697665725C8B
:102EE0007372635C73746D3332663130785F646D16
:102EF000612E6300040402400000024070B50446E5
:102F00000D46244884422AD022481430844226D0D8
:102F100020482830844222D01E483C3084421ED0B3
:102F20001C48503084421AD01A486430844216D06B
:102F300018487830844212D0174884420FD016487F
:102F4000143084420BD014482830844207D01248F1
:102F50003C30844203D010485030844200D104E019
:102F600040F229110DA005F04BFD0DB1012D00D14E
:102F700004E04FF4957109A005F042FD25B12068E9
:102F800040F00100206004E020684FF6FE71084028
:102F9000206070BD08000240080402402E2E5C4CE8
:102FA00069627261726965735C53544D33324631A4
:102FB00030785F5374645065726970685F447269F9
:102FC0007665725C7372635C73746D333266313034
:102FD000785F646D612E630070B58CB00546EC6B54
:102FE000EE6C012240F22441206803F087FE0121AB
:102FF000084602F057FE0121022002F053FEA068AD
:1030000000F03EF82068001D01903068029000201A
:103010000390A86CC0F38F200490002005908020BE
:10302000069000200790089009904FF400500A90F5
:1030300000200B9001A9A06800F0EEF9E068FFF70E
:1030400021FF01220221A06800F070F90122402135
:10305000206803F0D1FC0121A068FFF74FFF207C1E
:103060008DF8000000208DF8010001208DF802008D
:103070008DF80300684601F079FF0CB070BD0000C8
:1030800010B504466A4884422AD069481430844204
:1030900026D067482830844222D065483C3084429C
:1030A0001ED06348503084421AD061486430844254
:1030B00016D05F487830844212D05E4884420FD0E8
:1030C0005C48143084420BD05A482830844207D0E0
:1030D00058483C30844203D056485030844200D196
:1030E00003E06F2154A005F08BFC20684FF6FE71C1
:1030F00008402060002020606060A060E0604C48D4
:10310000844208D14A480838406840F00F004849D6
:10311000083948608AE046481430844208D144485F
:103120000838406840F0F0004149083948607DE0C7
:103130003F482830844208D13D480838406840F470
:1031400070603B490839486070E039483C3084423F
:1031500008D137480838406840F47040344908398D
:10316000486063E032485030844208D13048083823
:10317000406840F470202E490839486056E02C48D9
:103180006430844208D12A480838406840F470000E
:1031900027490839486049E025487830844208D1F9
:1031A00023480838406840F0706021490839486079
:1031B0003CE02048844206D1001F006840F00F0028
:1031C000211F086032E01B481430844208D119489E
:1031D000001F006840F0F0001649091F086025E054
:1031E00014482830844208D11248001F006840F477
:1031F00070601049091F086018E00E483C30844296
:1032000008D10C48001F006840F470400949091FAC
:1032100008600BE007485030844207D10548001F82
:10322000006840F470200349091F086010BD0000C9
:1032300008000240080402402E2E5C4C6962726154
:10324000726965735C53544D3332463130785F5345
:1032500074645065726970685F4472697665725C07
:103260007372635C73746D3332663130785F646D92
:10327000612E630010B504461B4884422AD01A48C8
:103280001430844226D018482830844222D0164870
:103290003C3084421ED01448503084421AD0124828
:1032A0006430844216D010487830844212D00F48DF
:1032B00084420FD00D48143084420BD00B48283084
:1032C000844207D009483C30844203D0074850303C
:1032D000844200D104E04FF4BB7105A005F090FBDF
:1032E000606880B210BD000008000240080402407F
:1032F0002E2E5C4C69627261726965735C53544D29
:103300003332463130785F53746450657269706847
:103310005F4472697665725C7372635C73746D335B
:1033200032663130785F646D612E630070B504469B
:103330000D461646274884422AD026481430844237
:1033400026D024482830844222D022483C3084426F
:103350001ED02048503084421AD01E486430844227
:1033600016D01C487830844212D01B4884420FD0BB
:103370001948143084420BD017482830844207D0B3
:1033800015483C30844203D013485030844200D169
:1033900004E040F2491111A005F032FB25F00E00C7
:1033A00008B905B104E04FF4A5710CA005F028FBA5
:1033B0000EB1012E00D104E040F24B1107A005F040
:1033C0001FFB1EB120682843206002E02068A8434C
:1033D000206070BD08000240080402402E2E5C4CA4
:1033E00069627261726965735C53544D3332463160
:1033F00030785F5374645065726970685F447269B5
:103400007665725C7372635C73746D3332663130EF
:10341000785F646D612E630070B505460C4600262A
:103420005E4885422AD05D481430854226D05B48EC
:103430002830854222D059483C3085421ED057481A
:10344000503085421AD055486430854216D05348D2
:103450007830854212D0524885420FD050481430FF
:1034600085420BD04E482830854207D04C483C302E
:10347000854203D04A485030854200D103E0CF2135
:1034800048A005F0BDFAA068102801D0A06800B9D6
:1034900003E0D02143A005F0B3FAE06820B1E06872
:1034A000B0F5803F00D203E0D1213EA005F0A8FA9C
:1034B0002069402801D0206900B903E0D22139A059
:1034C00005F09EFA6069802801D0606900B903E0C8
:1034D000D32134A005F094FAA06938B1A069B0F501
:1034E000807F03D0A069B0F5007F00D103E0D42134
:1034F0002CA005F085FAE06938B1E069B0F5806F7D
:1035000003D0E069B0F5006F00D103E0D52125A01C
:1035100005F076FA206A202801D0206A00B903E07D
:10352000D62120A005F06CFA606AB0F5405F09D0A2
:10353000606AB0F5005F05D0606AB0F5805F01D0C9
:10354000606A00B903E0D72116A005F059FAA06A15
:10355000B0F5804F01D0A06A00B903E0D82111A0D6
:1035600005F04EFA2E6847F6F0708643216AA0688F
:1035700008432169084361690843A1690843E16977
:103580000843616A0843A16A084306432E60E06865
:1035900068602068A8606068E86070BD080002404C
:1035A000080402402E2E5C4C696272617269657378
:1035B0005C53544D3332463130785F5374645065F8
:1035C000726970685F4472697665725C7372635C7D
:1035D00073746D3332663130785F646D612E6300D1
:1035E00070B504460D461B4884422AD01948143051
:1035F000844226D017482830844222D015483C30D7
:1036000084421ED01348503084421AD0114864308E
:10361000844216D00F487830844212D00E4884423B
:103620000FD00D48143084420BD00B482830844210
:1036300007D009483C30844203D0074850308442C8
:1036400000D104E04FF4B27104A005F0D9F965602F
:1036500070BD000008000240080402402E2E5C4CA1
:1036600069627261726965735C53544D33324631DD
:1036700030785F5374645065726970685F44726932
:103680007665725C7372635C73746D33326631306D
:10369000785F646D612E6300704700000EB56A4666
:1036A0000A21002002F06EFE694602A01AF052F8CC
:1036B0000EBD0000726561642064617465206F6EE8
:1036C000206164647265737320307830303030303C
:1036D000303A25730A0000000EB507A207CA8DE82C
:1036E00007006A460A21002003F05AFE694605A039
:1036F0001AF030F80EBD000059754E656E67204116
:103700005053000077726974652064617465206F9E
:103710006E206164647265737320307830303030AD
:1037200030303A25730A000008B50121082002F064
:1037300089FB0120ADF8000010208DF80300032064
:103740008DF802006946154801F0CCF80220ADF86A
:10375000000014208DF8030003208DF80200694654
:103760000E4801F0BFF84FF48060ADF80000102063
:103770008DF8030003208DF802006946074801F028
:10378000B1F8002106A01AF041FD0849086008467A
:10379000006810B106A019F0DDFF08BD000C014063
:1037A000454550524F4D5F6C6F636B0054000020D5
:1037B000496E697469616C697A6520454550524F5C
:1037C0004D207375636365737366756C210A000021
:1037D00010B504460648204008B904B104E040F2A0
:1037E0004F7104A005F00CF90C48446110BD0000B5
:1037F0000018FEFF2E2E5C636F6D706F6E656E7429
:10380000735C6E65745C65746865726E65745C7318
:10381000746D33325F6574682E630000009002405F
:1038200070B504460D461048204008B904B104E0C4
:1038300040F2DE710DA005F0E3F80DB1012D00D1CD
:1038400004E040F2DF7109A005F0DAF82DB111486B
:10385000C06920430F49C86104E00E48C069A04315
:103860000C49C86170BD00000018FEFF2E2E5C637D
:103870006F6D706F6E656E74735C6E65745C65748D
:103880006865726E65745C73746D33325F657468FD
:103890002E6300000090024010B504460CB1012CCC
:1038A00000D104E040F2B57108A005F0A9F834B1E8
:1038B0001048806940F002000E49886105E00D481B
:1038C000806920F002000B49886110BD2E2E5C63D8
:1038D0006F6D706F6E656E74735C6E65745C65742D
:1038E0006865726E65745C73746D33325F6574689D
:1038F0002E6300000090024030B50C4613460021B4
:10390000104D286000BF18E000EB01124FF0004599
:10391000156044F2F0555560C1EB411505EB81157A
:1039200004EB051595605D1E8D4204D900EB011571
:103930001035D56000E0D060491C9942E4D3024DB7
:10394000E86030BDB80100200090024010B5044688
:103950000CB1012C00D104E040F29E7108A005F0EA
:103960004FF834B11048806940F400500E49886126
:1039700005E00D48806920F400500B49886110BDB6
:103980002E2E5C636F6D706F6E656E74735C6E650A
:10399000745C65746865726E65745C73746D3332E3
:1039A0005F6574682E6300000090024030B50C46DD
:1039B000134600210F4D286000BF15E000EB0112F7
:1039C0004FF480151560C1EB411505EB811504EB33
:1039D000051595605D1E8D4204D900EB011510356B
:1039E000D56000E0D060491C9942E7D3024D2861C0
:1039F00030BD0000B40100200090024010B501214C
:103A0000880302F095F900214FF4804002F090F90C
:103A100010BD00000348806940F4801001498861AE
:103A2000704700000090024000200449096801F03E
:103A3000010109B1012000E0002070470090024020
:103A400010B519F0E5FD1D48446904F0400028B1A7
:103A50001B4809F021FA4020FFF7BAFE04F00100EC
:103A600028B118481BF042FA0120FFF7B1FE04F418
:103A7000803018B14FF480301049486104F40040A0
:103A800018B14FF400400D49486104F0100010B126
:103A900010200A49486104F0800020B100F0B2FC17
:103AA00080200649486104F0040020B100F0B0FC19
:103AB00004200249486119F0CDFD10BD009002407C
:103AC0005C5F0020D45F002070B588B004460025FC
:103AD00000200790FC4E01902068012801D020684A
:103AE00000B903E09521F9A004F08AFF606818B1DD
:103AF0006068B0F5000F00D103E09621F3A004F058
:103B00007FFFA06818B1A068B0F5800F00D103E076
:103B10009721EEA004F074FFE068D8B1E068B0F53A
:103B2000003F17D0E068B0F5802F13D0E068B0F503
:103B3000C02F0FD0E068B0F5002F0BD0E068B0F5D3
:103B4000202F07D0E068B0F5402F03D0E068B0F533
:103B5000602F00D103E09821DCA004F051FF206920
:103B600018B12069B0F5803F00D103E09921D7A0BA
:103B700004F046FF606918B16069B0F5804F00D16C
:103B800003E09A21D1A004F03BFFA06918B1A0691D
:103B9000B0F5005F00D103E09B21CCA004F030FF22
:103BA000E069B0F5805F01D0E06900B903E09C21D5
:103BB000C6A004F025FF206AB0F5006F01D0206A8E
:103BC00000B903E09D21C1A004F01AFF606AB0F5BE
:103BD000806F01D0606A00B903E09E21BBA004F0B1
:103BE0000FFFA06A18B1A06AB0F5007F00D103E012
:103BF0009F21B6A004F004FFE06A802801D0E06AAB
:103C000000B903E0A021B1A004F0FAFE206B40B19E
:103C1000206B202805D0206B402802D0206B602824
:103C200000D103E0A121A9A004F0EAFE606B1028F6
:103C300001D0606B00B903E0A221A4A004F0E0FE73
:103C4000A06BB0F1004F01D0A06B00B903E0A3213D
:103C50009EA004F0D5FEE06BB0F5007F05D0E06BD0
:103C6000B0F5407F01D0E06B00B903E0A42197A03C
:103C700004F0C6FE206C402805D0206C802802D0BD
:103C8000206CC02800D103E0A52190A004F0B8FE6C
:103C9000606C10B1606C202800D103E0A6218BA0DD
:103CA00004F0AEFEA06C10B1A06C082800D103E0B7
:103CB000A72186A004F0A4FEE06C012801D0E06CEE
:103CC00000B903E0A82181A004F09AFE40F204416B
:103CD000206D884207D0206D042804D0206D10B1DB
:103CE000206D102800D103E0A92178A004F088FEFF
:103CF00040F20241606D884204D0606D022801D01C
:103D0000606D00B903E0AA2170A004F079FE206E76
:103D1000B0F5803F00D203E0AB216CA004F070FE50
:103D2000606E10B1606E802800D103E0AC2167A006
:103D300004F066FEA06E40B1A06E102805D0A06E03
:103D4000202802D0A06E302800D103E0AD215FA072
:103D500004F056FEE06E082801D0E06E00B903E0E2
:103D6000AE215AA004F04CFE206F042801D0206F31
:103D700000B903E0AF2155A004F042FE606F0228B5
:103D800001D0606F00B903E0B02150A004F038FE0C
:103D9000A06FB0F5803F01D0A06F00B903E0B12162
:103DA0004AA004F02DFEE06FB0F5803F00D203E0A2
:103DB000B22146A004F024FED4F8800020B1D4F84B
:103DC0008000B0F1806F00D103E0B4213FA004F087
:103DD00017FED4F88400B0F1007F02D0D4F884003C
:103DE00000B903E0B52139A004F00AFED4F8880038
:103DF00020B1D4F88800B0F1807F00D103E0B62173
:103E000032A004F0FDFDD4F88C00B0F5001F02D004
:103E1000D4F88C0000B903E0B7212CA004F0F0FD29
:103E2000D4F8900010B3D4F89000B0F5804F1DD0B6
:103E3000D4F89000B0F5004F18D0D4F89000B0F549
:103E4000404F13D0D4F89000B0F5803F0ED0D4F896
:103E50009000B0F5A03F09D0D4F89000B0F5C03F75
:103E600004D0D4F89000B0F5E03F00D103E0B821D1
:103E700016A004F0C5FDD4F89400802802D0D4F830
:103E8000940000B903E0B92110A004F0B9FDD4F802
:103E90009800402802D0D4F8980000B903E0BA2175
:103EA0000AA004F0ADFDD4F89C0058B1D4F89C00F1
:103EB000082807D0D4F89C00102803D0D4F89C0020
:103EC000182817D11BE00000008793032E2E5C6397
:103ED0006F6D706F6E656E74735C6E65745C657427
:103EE0006865726E65745C73746D33325F65746897
:103EF0002E630000BB21AFF22C0004F081FDD4F84A
:103F0000A000042802D0D4F8A00000B904E0BC212D
:103F1000AFF2480004F074FDD4F8A400B0F1007FC3
:103F200002D0D4F8A40000B904E0BD21AFF26400CF
:103F300004F066FDD4F8A800B0F5803F02D0D4F8B4
:103F4000A80000B904E0BE21AFF2800004F058FDE3
:103F5000D4F8AC00B0F5003F36D0D4F8AC00B0F5E2
:103F6000802F31D0D4F8AC00B0F5002F2CD0D4F88D
:103F7000AC00B0F5801F27D0D4F8AC00B0F5001F1E
:103F800022D0D4F8AC00B0F5800F1DD0D4F8AC002E
:103F9000B0F1817F18D0D4F8AC00B0F1827F13D09B
:103FA000D4F8AC00B0F1847F0ED0D4F8AC00B0F1FE
:103FB000887F09D0D4F8AC00B0F1907F04D0D4F859
:103FC000AC00B0F1A07F00D104E0BF21AFF204103B
:103FD00004F016FDD4F8B000B0F5807F36D0D4F8E8
:103FE000B000B0F5007F31D0D4F8B000B0F5806FEC
:103FF0002CD0D4F8B000B0F5006F27D0D4F8B000C2
:10400000B0F5805F22D0D4F8B000B0F5005F1DD0CD
:10401000D4F8B000B0F1012F18D07349D4F8B00033
:10402000884213D07149D4F8B00088420ED070494C
:10403000D4F8B000884209D06E49D4F8B000884264
:1040400004D06D49D4F8B000884200D104E0C0210A
:10405000AFF2881004F0D4FCD4F8B4001F2800D8C4
:1040600004E0C121AFF29C1004F0CAFCD4F8B800FF
:1040700090B1D4F8B800B0F5804F0DD0D4F8B800A6
:10408000B0F5004F08D0D4F8B800B0F5404F03D0D9
:10409000D4F8B800022800D104E0C221AFF2D41055
:1040A00004F0AEFC5548056925F01C0502A801F096
:1040B0002DFF039E5248864205D35248864202D2C3
:1040C00045F0080509E04F48864205D34E48864230
:1040D00002D245F00C0500E000BF484805610568C4
:1040E0004A480540D4E901010843E16808432169D1
:1040F000084361690843A1690843E1690843216AEB
:104100000843616A0843A16A0843E16A0843216BD6
:104110000843616B0843054338480560D4E90E0144
:104120000843216C0843616C0843A16C0843E16CAF
:104130000843216D0843616D084330494860A06D14
:104140008860E06DC860084685694FF6417005409B
:10415000B4F86010606E40EA0140A16E0843E16E61
:104160000843216F0843616F084305432348856175
:10417000D4E91E0108432149C861254885692548BD
:104180000540D4E920010843D4F888100843D4F846
:104190008C100843D4F890100843D4F894100843C6
:1041A000D4F898100843D4F89C100843D4F8A01011
:1041B0000843054316488561D4E929010843D4F82A
:1041C000AC100843D4F8B0100843D4F8B41040EA57
:1041D0008100D4F8B810084340F400000C4908608E
:1041E000012008B070BD00000002000100040001C1
:1041F00000080001001000010020000100800240C2
:10420000002D3101C00E1602008793030F8120FF9D
:1042100000900240233FDEF870B504460D462CB1F5
:10422000082C03D0102C01D0182C00D104E040F24F
:10423000C1310CA004F0E4FB2879697940EA012639
:10424000124820440664E8780006A97840EA014054
:10425000697840EA0120297840EA01060B482044A9
:10426000466470BD2E2E5C636F6D706F6E656E74EC
:10427000735C6E65745C65746865726E65745C739E
:10428000746D33325F6574682E63000000800240F5
:1042900010B504460CB1012C00D104E040F21931F4
:1042A00008A004F0ADFB34B11048006840F00400F1
:1042B0000E49086005E00D48006820F004000B4935
:1042C000086010BD2E2E5C636F6D706F6E656E742E
:1042D000735C6E65745C65746865726E65745C733E
:1042E000746D33325F6574682E6300000080024095
:1042F00010B504460CB1012C00D104E040F20231AB
:1043000008A004F07DFB34B11048006840F00800BC
:104310000E49086005E00D48006820F008000B49D0
:10432000086010BD2E2E5C636F6D706F6E656E74CD
:10433000735C6E65745C65746865726E65745C73DD
:10434000746D33325F6574682E6300000080024034
:10435000F8B505460E460024002000901F2D00DC15
:1043600004E04FF41F711BA004F04AFB1F2E00DC79
:1043700004E040F27D2117A004F042FB1F480469CD
:1043800004F01C044FF4784000EAC52004434FF4C5
:10439000F86000EA8610044324F0020444F00104AB
:1043A0001648046100BF0098401C0090134804693F
:1043B00004F0010018B1124900988842F3D3104963
:1043C0000098884201D10020F8BD0C48406980B2B5
:1043D000FAE700002E2E5C636F6D706F6E656E7471
:1043E000735C6E65745C65746865726E65745C732D
:1043F000746D33325F6574682E6300000080024084
:10440000FFFF0400002001498860704700900240CF
:10441000002001494860704700900240034800684E
:1044200040F0010001490860704700000090024020
:1044300010B50120FFF75CFFFFF7ECFA0120FFF752
:1044400027FF0120FFF782FA0120FFF725FA10BDB0
:104450000021016041608160C16001614161816151
:10446000C161016241628162C16201634163816332
:10447000C163402101642021416400218164C16441
:10448000016541658165C165016680214166002144
:104490008166C166016741678167C1674FF08061CE
:1044A000C0F880104910C0F884104910C0F8881076
:1044B000C910C0F88C100021C0F89010C0F89410FA
:1044C000C0F89810C0F89C10C0F8A0104FF0007110
:1044D000C0F8A4100021C0F8A8104FF40031C0F8B3
:1044E000AC104912C0F8B0100021C0F8B410C0F8E8
:1044F000B8107047F8B505460E4617460024002050
:1045000000901F2D00DC04E04FF42B711AA004F082
:1045100077FA1F2E00DC04E040F2AD2116A004F073
:104520006FFA1F48046904F01C044FF4784000EA55
:10453000C52004434FF4F86000EA8610044344F0B9
:10454000020444F0010416484761046100BF00986A
:10455000401C00901248046904F0010018B1114990
:1045600000988842F3D30F490098884201D1002077
:10457000F8BD0120FCE700002E2E5C636F6D706FAC
:104580006E656E74735C6E65745C65746865726E7E
:1045900065745C73746D33325F6574682E630000FC
:1045A00000800240FFFF040010B501201BF0D6FE82
:1045B0004FF40071034800F081FA4FF4007000F0EE
:1045C00003F810BD000C014010B50446200D000595
:1045D00008B904B103E0FC2102A004F011FA11486B
:1045E000046010BD2E2E5C4C696272617269657345
:1045F0005C53544D3332463130785F5374645065A8
:10460000726970685F4472697665725C7372635C2C
:1046100073746D3332663130785F657874692E63F8
:10462000000000001404014010B501F0F3FE02A0E8
:1046300019F090F810BD0000657261736520466C3A
:1046400061736820416C6C0A0000000010B50446DC
:10465000204601F003FF214601A019F07BF810BDB0
:1046600065726173652064617465206F6E2061649A
:104670006472657373203078253036780A00000044
:1046800010B5002001F0EAFE01A019F063F810BD9A
:1046900065726173652064617465206F6E2061646A
:1046A00064726573732030783030303030300A00F7
:1046B0000EB56A460A21002001F02AFF694602A0D1
:1046C00019F048F80EBD00007265616420646174E1
:1046D00065206F6E2061646472657373203078307A
:1046E00030303030303A25730A0000000EB507A292
:1046F00007CA8DE807006A460A21002001F07EFF04
:10470000694605A019F026F80EBD000059754E65E2
:104710006E672041505300007772697465206461B0
:104720007465206F6E2061646472657373203078E5
:104730003030303030303A25730A000008B502209E
:104740008DF8020004208DF803000002ADF800008F
:104750006946124800F0C6F818208DF803004FF49F
:104760000070ADF8000069460C4800F0BBF804206A
:104770008DF803004002ADF800006946084800F0DB
:10478000B1F818208DF803004FF48060ADF80000F8
:104790006946034800F0A6F808BD00000008014083
:1047A0000010014008B5012000F06CF803208DF8DE
:1047B000020018208DF803000220ADF800006946C1
:1047C0002D4800F08FF80420ADF8000069462B4812
:1047D00000F088F818208DF803004FF40060ADF861
:1047E00000006946264800F07DF84FF48050ADF88F
:1047F00000006946224800F075F84FF40050ADF80B
:10480000000069461E4800F06DF804208DF8030092
:104810008020ADF800006946184800F063F81020C9
:10482000ADF800006946144800F05CF82020ADF8AF
:1048300000006946104800F055F84FF4004001F0C0
:10484000F7FC012001F0C6FC00BF3D2001F026FC72
:104850000028FAD00B2001F081FC4FF48070ADF8F5
:10486000000003208DF8020018208DF8030069462F
:10487000024800F037F808BD001001400008014070
:10488000000C014010B504460CB1012C00D104E02D
:104890004FF41E7102A004F0B3F81148046010BD7B
:1048A0002E2E5C4C69627261726965735C53544D63
:1048B0003332463130785F53746450657269706882
:1048C0005F4472697665725C7372635C73746D3396
:1048D00032663130785F6770696F2E6300000000C8
:1048E000DC0020422DE9F05F05460C464FF0000940
:1048F000CA4600260027B046B3465948854211D023
:10490000584885420ED0584885420BD057488542BA
:1049100008D05748854205D05648854202D05648AF
:10492000854200D103E0B22154A004F069F8E07898
:10493000A0B1E078042811D0E07828280ED0E078E3
:1049400048280BD0E078142808D0E078102805D04B
:10495000E0781C2802D0E078182800D103E0B321C9
:1049600046A004F04DF8002010B9208800B103E003
:10497000B42142A004F044F8E07800F00F09E07898
:1049800000F0100080B1A078012805D0A07802289E
:1049900002D0A078032800D103E0BB2137A004F0A7
:1049A0002FF8A07840EA0909207838B3D5F80080BC
:1049B00000261FE0012000FA06F7208800EA070A17
:1049C000BA4516D1B7000F2000FA07FB28EA0B08FA
:1049D00009FA07F040EA0808E078282803D1012006
:1049E000B040686105E0E078482802D10120B0407D
:1049F0002861761C082EDDD3C5F800802088FF28AA
:104A00002BDDD5F80480002623E006F10800012103
:104A100001FA00F7208800EA070ABA4518D1B70062
:104A20000F2000FA07FB28EA0B0809FA07F040EA12
:104A30000808E078282803D106F108008140696160
:104A4000E078482804D106F108000121814029615D
:104A5000761C082ED9D3C5F80480BDE8F09F00006D
:104A600000080140000C014000100140001401400A
:104A700000180140001C0140002001402E2E5C4C1B
:104A800069627261726965735C53544D33324631A9
:104A900030785F5374645065726970685F447269FE
:104AA0007665725C7372635C73746D333266313039
:104AB000785F6770696F2E630000000070B505466F
:104AC0000C4600262848854211D0284885420ED041
:104AD000274885420BD02748854208D02648854282
:104AE00005D02648854202D02548854200D104E001
:104AF0004FF48F7123A003F083FF012C25D0022CEB
:104B000023D0042C21D0082C1FD0102C1DD0202CF9
:104B10001BD0402C19D0802C17D0B4F5807F14D036
:104B2000B4F5007F11D0B4F5806F0ED0B4F5006FEE
:104B30000BD0B4F5805F08D0B4F5005F05D0B4F5B4
:104B4000804F02D0B4F5004F00D104E040F21F11B5
:104B50000CA003F055FFA868204008B1012600E032
:104B60000026304670BD000000080140000C0140E6
:104B7000001001400014014000180140001C0140D9
:104B8000002001402E2E5C4C69627261726965736F
:104B90005C53544D3332463130785F537464506502
:104BA000726970685F4472697665725C7372635C87
:104BB00073746D3332663130785F6770696F2E635E
:104BC0000000000070B504460D461348844211D021
:104BD000124884420ED0124884420BD011488442BD
:104BE00008D01148844205D01048844202D01048B1
:104BF000844200D104E040F279110EA003F000FFDE
:104C0000002008B905B104E04FF4BD7109A003F01C
:104C1000F7FE656170BD000000080140000C014016
:104C2000001001400014014000180140001C014028
:104C3000002001402E2E5C4C6962726172696573BE
:104C40005C53544D3332463130785F537464506551
:104C5000726970685F4472697665725C7372635CD6
:104C600073746D3332663130785F6770696F2E63AD
:104C70000000000070B504460D461348844211D070
:104C8000124884420ED0124884420BD0114884420C
:104C900008D01148844205D01048844202D0104800
:104CA000844200D104E040F269110EA003F0A8FE96
:104CB000002008B905B104E04FF4B57109A003F074
:104CC0009FFE256170BD000000080140000C0140FE
:104CD000001001400014014000180140001C014078
:104CE000002001402E2E5C4C69627261726965730E
:104CF0005C53544D3332463130785F5374645065A1
:104D0000726970685F4472697665725C7372635C25
:104D100073746D3332663130785F6770696F2E63FC
:104D20000000000010B501210C48FFF74BFF0221E5
:104D30000A48FFF747FF02210848FFF743FF0F200B
:104D400000F00EF801210548FFF794FF0F2000F056
:104D500007F801210148FFF735FF10BD000C0140A5
:104D6000002100E0491C8142FCD3704710B50024AB
:104D700001211148FFF77EFF0F20FFF7F1FF02210D
:104D80000D48FFF777FF01E0601CC4B202210A481A
:104D9000FFF794FE00F0010008B1FF2CF4DB0221C4
:104DA0000548FFF70FFF01210348FFF70BFF0F2016
:104DB000FFF7D6FF10BD0000000C014070B50025C4
:104DC000002601211948FFF7FDFE0F20FFF7C8FF5D
:104DD00002211648FFF74EFF0F20FFF7C1FF022107
:104DE0001248FFF747FF00241BE001210F48FFF79F
:104DF00041FF0F20FFF7B4FF02210C48FFF75EFED2
:104E000000F001060F20FFF7ABFF46EA4500C5B2F0
:104E100001210648FFF7D6FE0F20FFF7A1FF601C17
:104E2000C4B2082CE1DB284670BD0000000C014034
:104E300070B5044602211A48FFF7C4FE002521E0A0
:104E400001211748FFF7BEFE0F20FFF789FFE00999
:104E500020B102211248FFF70DFF03E002211048A4
:104E6000FFF7B0FE0F20FFF77BFF01210C48FFF793
:104E700001FF0F20FFF774FF0F20FFF771FF60069F
:104E8000040E6D1C082DDBD301210548FFF79AFEA7
:104E900002210348FFF7EEFE0F20FFF761FF70BD10
:104EA000000C014010B502210C48FFF78BFE0221D7
:104EB0000A48FFF7DFFE01210848FFF7DBFE0F205D
:104EC000FFF74EFF02210548FFF77CFE0F20FFF79A
:104ED00047FF01210148FFF775FE10BD000C01409E
:104EE00010B502210A48FFF76DFE02210848FFF7BE
:104EF00069FE0F20FFF734FF01210548FFF7BAFED6
:104F00000F20FFF72DFF02210148FFF7B3FE10BD70
:104F1000000C014000BFFEE7704710B500214FF0C4
:104F2000006000F093F810BD38B5044620798DF884
:104F3000000000208DF801008DF8020001208DF89E
:104F40000300684600F012F838BD08B53D208DF822
:104F5000000000208DF801008DF8020001208DF87E
:104F60000300684600F002F808BD00002DE9F0419A
:104F70000446002500270F26E07810B1E0780128CC
:104F800000D103E0752121A003F03AFD60781028DC
:104F900000DA03E076211DA003F032FDA07810288E
:104FA00000DA03E0772119A003F02AFDE07800B3CE
:104FB0002348006800F4E060C0F5E060050AC5F130
:104FC0000407EE40607800FA07F5A078304005430A
:104FD0002D011C4822788554207800F01F01012003
:104FE000884021784911890001F1E021C1F80001D0
:104FF00009E0207800F01F01012088401249227842
:10500000521141F82200BDE8F08100002E2E5C4CC8
:1050100069627261726965735C53544D3332463113
:1050200030785F5374645065726970685F44726968
:105030007665725C7372635C6D6973632E630000E6
:105040000CED00E000E400E080E100E070B5044613
:105050000D46B4F1005F02D0B4F1006F00D103E05F
:105060009F2109A003F0CCFC1448854200D203E044
:10507000A02105A003F0C4FC114905EA010020436A
:105080001049086070BD00002E2E5C4C6962726190
:10509000726965735C53544D3332463130785F53D7
:1050A00074645065726970685F4472697665725C99
:1050B0007372635C6D6973632E630000FFFF0F0002
:1050C00080FFFF1F08ED00E000BF0A48006810F8ED
:1050D000080C0849096811F8041C084405490968C6
:1050E00001F8080C03480068001F0249086000BF6F
:1050F000704700001C02002000BF0A48006850F8FA
:10510000080C0849096851F8041C08440549096855
:1051100041F8080C03480068001F0249086000BFFE
:10512000704700001C02002000BF0A48006830F8E9
:10513000080C0849096831F8041C084400B2054904
:10514000096821F8080C03480068001F014908603D
:1051500000BF70471C02002000BF0A48006810F81A
:10516000080C0849096811F8041C08400549096839
:1051700001F8080C03480068001F0249086000BFDE
:10518000704700001C02002000BF0A48006850F869
:10519000080C0849096851F8041C084005490968C9
:1051A00041F8080C03480068001F0249086000BF6E
:1051B000704700001C02002000BF0A48006830F958
:1051C000080C0849096831F9041C084005490968B8
:1051D00021F8080C03480068001F0249086000BF5E
:1051E000704700001C0200200448006810F8040CFE
:1051F000C0430249096801F8040C70471C020020F2
:105200000448006850F8040CC0430249096841F89A
:10521000040C70471C0200200448006830F9040C9C
:10522000C0430249096821F8040C70471C020020A1
:1052300010B5A4B0DF48006800781390DD4800681E
:10524000401CDC49086000201290DB480068001F09
:10525000D949086011E0D848006802681398401ED8
:105260001299401A14A941F82020D3480068001F61
:10527000D14908601298401C1290DDE91201884261
:10528000E9D3CD48006800681190139811286ED2B8
:10529000DFE800F0090E141D293747596E849CB6CB
:1052A000D2F4F2F1F000002011998847109074E1D7
:1052B00014980F901199884710906EE115980F90EF
:1052C00014980E90119A0F999047109065E11698D6
:1052D0000F9015980E9014980D90119BDDE90E1209
:1052E0009847109059E117980F9016980E901598BE
:1052F0000D9014980C90119C0DA90EC9A047109008
:105300004BE11898009017980F9016980E901598EA
:105310000D9014980C90119C0DA90EC9A0471090E7
:105320003BE1DDE91801CDE9000117980F901698CF
:105330000E9015980D9014980C90119C0DA90EC903
:10534000A047109029E1DDE919211898CDE9012144
:10535000009017980F9016980E9015980D9014982D
:105360000C90119C0DA90EC9A047109015E111E1F8
:10537000DDE9193218991B98CDE9013200910390AB
:1053800017980F9016980E9015980D9014980C90F1
:10539000119C0DA90EC9A0471090FEE0DDE919236C
:1053A000DDE91B10CDE90123CDE903101898009029
:1053B00017980F9016980E9015980D9014980C90C1
:1053C000119C0DA90EC9A0471090E6E0DDE91A2353
:1053D000DDE91C10CDE90223CDE90410DDE9180157
:1053E000CDE9000117980F9016980E9015980D9022
:1053F00014980C90119C0DA90EC9A0471090CCE0F8
:10540000DDE91C321B991E98CDE904320391069008
:10541000DDE919211898CDE90121009017980F9026
:1054200016980E9015980D9014980C90119C0DA93B
:105430000EC9A0471090B0E0DDE91C23DDE91E1085
:10544000CDE90423CDE90610DDE9193218991B983E
:10545000CDE901320091039017980F9016980E90A5
:1054600015980D9014980C90119C0DA90EC9A04789
:10547000109092E068E043E020E0FFE7DDE91E32B3
:105480001D992098CDE9063205910890DDE9192390
:10549000DDE91B01CDE90123CDE903011898009056
:1054A00017980F9016980E9015980D9014980C90D0
:1054B000119C0DA90EC9A04710906EE0DDE91E13E6
:1054C000DDE92002CDE90613CDE90802DDE91A2362
:1054D000DDE91C01CDE90223CDE90401DDE9180174
:1054E000CDE9000117980F9016980E9015980D9021
:1054F00014980C90119C0DA90EC9A04710904CE077
:10550000DDE92031229A1F98CDE908310A920790EF
:10551000DDE91B23DDE91D01CDE90323CDE905010B
:10552000DDE919211898CDE90121009017980F9015
:1055300016980E9015980D9014980C90119C0DA92A
:105540000EC9A047109028E0DDE921322099239868
:10555000CDE9093208910B90DDE91D321C991F98A5
:10556000CDE9053204910790DDE91823DDE91A1031
:10557000CDE90023CDE9021017980F9016980E90F0
:1055800015980D9014980C90119C0DA90EC9A04768
:10559000109002E00020109000BF00BF0649109854
:1055A0000968086004480068001D0349086024B0C9
:1055B00010BD0000200200201C02002000BF0A488D
:1055C000006810F8080C0849096811F8041C90FBE1
:1055D000F1F00549096801F8080C03480068001F4C
:1055E0000149086000BF70471C02002000BF0A4844
:1055F000006850F8080C0849096851F8041C90FB31
:10560000F1F00549096841F8080C03480068001FDB
:105610000149086000BF70471C02002000BF0B4812
:10562000006830F9080C0949096831F9041C90FB3D
:10563000F1F000B20549096821F8080C0348006838
:10564000001F0249086000BF704700001C020020D4
:10565000084800680078084909680870064800682A
:10566000001D0549086003480068401C01490860A6
:1056700070470000200200201C0200200F48006834
:1056800000780E490968497840EA01200B49096809
:10569000897840EA014009490968C97840EA01600F
:1056A00007490968086006480068001D0449086049
:1056B00002480068001D0149086070472002002070
:1056C0001C0200201049096809780F4A12685278B4
:1056D00041EA02210C4A1268927841EA02410A4AE0
:1056E0001268D27841EA02600178084A12681170A3
:1056F00006490968091D054A116003490968091D21
:10570000014A116070470000200200201C020020A6
:105710000449096851F8040C0178024A126802F839
:10572000041C70471C0200201049096809780F4AC0
:105730001268527841EA02210C4A1268927841EAD2
:1057400002410A4A1268D27841EA0260084A0168B6
:105750001268116006490968091D054A116003496C
:105760000968091D014A11607047000020020020ED
:105770001C0200200449096851F8040C024A01681F
:10578000126842F8041C70471C0200201049096886
:1057900009780F4A1268527841EA02210C4A1268CD
:1057A000927841EA02410A4A1268D27841EA0260DC
:1057B0000188084A1268118006490968091D054ACE
:1057C000116003490968091D014A11607047000012
:1057D000200200201C0200200449096851F8040C32
:1057E0000188024A126822F8041C70471C0200203B
:1057F0000B48006800780A490968497840EA0120A6
:1058000000B208490968088006480068001D05497B
:10581000086003480068801C014908607047000068
:10582000200200201C02002000BF0B48006810F876
:10583000080C0949096811F8041C90FBF1F201FBFE
:1058400012000549096801F8080C03480068001FA8
:105850000149086000BF70471C02002000BF0B48D0
:10586000006850F8080C0949096851F8041C90FBBD
:10587000F1F201FB12000549096841F8080C0348E0
:105880000068001F0149086000BF70471C0200202B
:1058900000BF0B48006830F9080C0949096831F964
:1058A000041C90FBF1F201FB12000549096821F884
:1058B000080C03480068001F0149086000BF7047DA
:1058C0001C02002000BF0A48006810F8080C0849B4
:1058D000096811F8041C48430549096801F8080CD7
:1058E00003480068001F0249086000BF70470000BD
:1058F0001C02002000BF0A48006850F8080C084944
:10590000096851F8041C48430549096841F8080C26
:1059100003480068001F0249086000BF704700008C
:105920001C02002000BF0A48006830F8080C084933
:10593000096831F8041C484300B20549096821F898
:10594000080C03480068001F0149086000BF704749
:105950001C0200207047000000BF0A48006810F8D1
:10596000080C0849096811F8041C0843054909682E
:1059700001F8080C03480068001F0249086000BFD6
:10598000704700001C02002000BF0A48006850F861
:10599000080C0849096851F8041C084305490968BE
:1059A00041F8080C03480068001F0249086000BF66
:1059B000704700001C02002000BF0A48006830F950
:1059C000080C0849096831F9041C084305490968AD
:1059D00021F8080C03480068001F0249086000BF56
:1059E000704700001C02002002480068001F0149A7
:1059F000086070471C02002000BF0A48006810F8C9
:105A0000080C0849096811F8041C88400549096810
:105A100001F8080C03480068001F0249086000BF35
:105A2000704700001C02002000BF0A48006850F8C0
:105A3000080C0849096811F8041C884005490968E0
:105A400041F8080C03480068001F0249086000BFC5
:105A5000704700001C02002000BF0A48006830F8B0
:105A6000080C0849096811F8041C884000B205496F
:105A7000096821F8080C03480068001F0149086004
:105A800000BF70471C02002000BF0A48006810F8E1
:105A9000080C0849096811F8041C084105490968FF
:105AA00001F8080C03480068001F0249086000BFA5
:105AB000704700001C02002000BF0A48006850F830
:105AC000080C0849096811F8041C084105490968CF
:105AD00041F8080C03480068001F0249086000BF35
