:020000040800F2
:1000000020790020190300088D490008FD0300082D
:10001000894900087B240008ED6900080000000001
:10002000000000000000000000000000795F0008F0
:10003000C52C000800000000870300089D60000830
:1000400033030008330300083303000833030008B8
:1000500033030008330300083303000833030008A8
:100060003303000833030008330300083303000898
:100070003303000833030008330300088124000819
:100080003303000833030008330300083303000878
:10009000330300083303000833030008A13D0008C0
:1000A0003303000833030008330300083303000858
:1000B0003303000833030008330300083303000848
:1000C0003303000833030008330300083303000838
:1000D00033030008396100083303000833030008C4
:1000E0003303000833030008330300080000000056
:1000F0000000000000000000000000000000000000
:100100000000000000000000330300083303000873
:1001100019610008330300083303000833030008A3
:100120003303000833030008992400083303000850
:100130003303000889300008330300083303000844
:1001400033030008330300083303000833030008B7
:1001500000F002F800F0B7F80AA090E8000C824422
:100160008344AAF10107DA4501D100F0ACF8AFF2FF
:10017000090EBAE80F0013F0010F18BFFB1A43F085
:1001800001031847E8860200088702000A444FF07E
:10019000000C10F8013B13F0070408BF10F8014BE6
:1001A0001D1108BF10F8015B641E05D010F8016B2B
:1001B000641E01F8016BF9D113F0080F1EBF10F88F
:1001C000014BAD1C0C1B09D16D1E58BF01F801CBB2
:1001D000FAD505E014F8016B01F8016B6D1EF9D535
:1001E0009142D6D37047000000230024002500264A
:1001F000103A28BF78C1FBD8520728BF30C148BF8A
:100200000B6070476E2901F07682702901F09F83A0
:10021000662926F0A783652926F0A483672926F09E
:10022000A183612926F0A08303681B0A28BF41F03F
:100230008001692900F00681642900F00381752995
:1002400000F000816F2901F02D83782901F06B8384
:10025000E92901F0C782E42901F0C482F52901F0FF
:10026000C182EF2901F02A83F82901F06A8303682B
:10027000DB0928BF41F08001632901F00185732962
:1002800001F00685E32901F01185F32901F01685B7
:10029000002070471FB500F0F8F900F0E5FF0400FA
:1002A0000020002126F032FB401C6060002000216D
:1002B00026F016FBE0600020002126F03DFB2061C7
:1002C0001FBD10B510BD01F063F91146FFF7E2FF45
:1002D00015F0CCFB01F0A6F903B4FFF7F2FF03BC65
:1002E00001F040FB0B49D1F800C04A685CF8043BC0
:1002F0001068184442F8040B8C4528BFA1F1DC0CAF
:100300008A4228BFA1F1DC02C1F800C04A6020F097
:10031000004070474872002009488047094800475C
:10032000FEE7FEE7FEE7FEE7FEE7FEE7FEE7FEE7A5
:10033000FEE7FEE704480549054A064B7047000002
:10034000AD600008510100082073002020790020D2
:100350002075002020750020EFF3108072B67047E2
:1003600080F310887047314A1368012B04D04FF096
:10037000010313602E4A10602E4A11602E484FF080
:10038000805101607047EFF3108272B62748016810
:1003900091B14FF0000101602548016829B1EFF3E8
:1003A000098121E9F00F00680160224909680968A4
:1003B000B1E8F00F81F3098882F310884EF0040E43
:1003C00070471C4908601A494FF00000086017493F
:1003D0004FF00100086019484FF47F01D0F8002069
:1003E00041EA0201016014484FF080510160144855
:1003F0000068006880F3088862B670471EF0040F3A
:1004000014BFEFF30880EFF3098020E9F00F40F804
:1004100004ED14BF80F3088880F3098800B51AF052
:1004200035F95DF804EB4EF0040E7047A001002092
:10043000980100209C01002004ED00E020ED00E088
:1004400008ED00E02DE9F04106460024106875290A
:10045000314616A510D001F013F9002802DA404207
:1004600013A507E031688A0701D512A502E0490704
:1004700004D511A5012401E001F00BF900210A22A5
:1004800006F1240709E0B0FBF2FCB0FBF2F302FB3B
:100490001C00303078541846491C0028F3D12346FC
:1004A0002A463046BDE8F04100F0D2BB0000000013
:1004B0002D0000002B000000200000002DE9F05F5F
:1004C000894604464FF0000ADFF874B1FB44C0F8D7
:1004D00020A02046E1688847002874D0252806D04F
:1004E000D4E901219047206A401C2062F1E70026F0
:1004F0005F462046E16888472028054607DB312D06
:1005000005D2781910F8200C08B10643F1E7B007BE
:1005100001D526F00406C4F81CA00027C4F818A0D2
:100520002A2D09D0284606F0FBFC38B304EB8708D7
:10053000303DC8F8185019E059F8041B204604EB68
:1005400087029161E1688847012F054618D1E0696B
:10055000002820DA26F020061DE0D8F8180000EB6D
:10056000800005EB40003038C8F818002046E168EC
:100570008847054606F0D4FC0028EED1012F0AD0AA
:100580002E2D08D12046E16888477F1C0546022FA2
:1005900046F02006C4DBA069002803DA404246F09A
:1005A0000106A061F00701D026F010066C2D0BD0DB
:1005B000682D09D04C2D39D06A2D35D0742D35D009
:1005C0007A2D33D016E038E0E1682F462046884780
:1005D000B842054609D16C2F26D04FF48060E168FF
:1005E000064320468847054604E06C2F1AD04FF496
:1005F000807006430DB3A5F14100192802D82035BB
:1006000046F400664A462946204626604E46FFF7D5
:10061000F9FD80B101280BD0F61D26F0070000F18E
:10062000080956E74020E4E78020D8E70020D6E715
:1006300006F104094DE7284652E7206ABDE8F09F1D
:10064000E172020070B5064600F0FEFA0468054645
:1006500030460A22002100F061FD2C6070BD0000D0
:100660000B4910B5A1F17C020A4CC2E937123721BF
:1006700006E000EB104342F82130074B00FB03403B
:100680000B1EA1F10101F4DC10BD0120E8E7000020
:10069000E8710020E119D666CD0D010040EA0103A2
:1006A00010B59B070FD1042A0DD310C808C9121F1B
:1006B0009C42F8D020BA19BA884201D9012010BD55
:1006C0004FF0FF3010BD1AB1D30703D0521C07E022
:1006D000002010BD10F8013B11F8014B1B1B07D186
:1006E00010F8013B11F8014B1B1B01D1921EF1D1F7
:1006F000184610BD40EA0103024630B59B0710D1F1
:100700004FF0013400E008C208C91D1B9D4315EAE3
:10071000C41FF8D013F0FF0102F8011B0DD01B0A13
:10072000F8E711F8013B002B02F8013B05D011F866
:10073000013B002B02F8013BF3D130BD0022CBB2CC
:1007400010F8011B994200D1421E0029F8D1104631
:10075000704710B5431C02E010F8011B71B181070E
:10076000FAD14FF0013202C88C1A8C4314EAC2113C
:10077000F9D0C01A0A0603D0C01E10BDC01A10BDA1
:100780000A0401D0801E10BD0902FCD0401E10BD1D
:1007900040EA010370B59B072ED14FF00136042AC1
:1007A0002AD308C810C99D1B9D43121F15EAC61500
:1007B00017D0D8B2E1B2401A50EA056110D198B210
:1007C000A1B2401A50EA05410AD123F07F4024F03B
:1007D0007F41401A50EA052102D1180EA0EB1460A7
:1007E00070BDA342DBD018BA21BA884201D90120DA
:1007F00070BD4FF0FF3070BD0AB9002070BD10F819
:10080000013B11F8014B63B1A3420AD1521E08D03B
:1008100010F8013B11F8014B1BB1A34201D1521E4C
:10082000EDD1181B70BD032A40F2308010F0030C8C
:1008300000F0158011F8013BBCF1020F624498BF33
:1008400011F801CB00F8013B38BF11F8013BA2F1D0
:10085000040298BF00F801CB38BF00F8013B11F04B
:10086000030300F02580083AC0F0088051F8043BEB
:10087000083A51F804CBA0E80810F5E7121D5CBF58
:1008800051F8043B40F8043BAFF30080D20724BF8B
:1008900011F8013B11F801CB48BF11F8012B24BF1F
:1008A00000F8013B00F801CB48BF00F8012B70476E
:1008B00010B5203AC0F00B80B1E81850203AA0E8FB
:1008C0001850B1E81850A0E81850BFF4F5AF5FEA2F
:1008D000027C24BFB1E81850A0E8185044BF18C9E2
:1008E00018C0BDE810405FEA827C24BF51F8043B89
:1008F00040F8043B08BF7047D20728BF31F8023BDD
:1009000048BF11F8012B28BF20F8023B48BF00F870
:10091000012B70474FF000020429C0F0128010F044
:10092000030C00F01B80CCF1040CBCF1020F18BFCB
:1009300000F8012BA8BF20F8022BA1EB0C0100F05E
:100940000DB85FEAC17C24BF00F8012B00F8012B31
:1009500048BF00F8012B70474FF0000200B5134666
:1009600094469646203922BFA0E80C50A0E80C50CF
:10097000B1F12001BFF4F7AF090728BFA0E80C5080
:1009800048BF0CC05DF804EB890028BF40F8042B79
:1009900008BF704748BF20F8022B11F0804F18BFE6
:1009A00000F8012B704710B5044610F0030F08BF84
:1009B00011F0030F40F015804FF0013E121FC0F2FE
:1009C0000E8051F8043BA3EB0E0C2CEA030C1CEA3E
:1009D000CE1C08BF40F8043BF0D0A1F1040102F1A5
:1009E0000402521E08DB11F8013B002B00F8013B0A
:1009F000F7D11146FFF78EFF204610BD4FF0013CA6
:100A000050F8042B51F8043B9A4221D1A2EB0C037D
:100A1000934313EACC1317D150F8042B51F8043B3D
:100A20009A4215D1A2EB0C03934313EACC130BD1DA
:100A300050F8042B51F8043B9A4209D1A2EB0C0365
:100A4000934313EACC13DBD04FF00000704700BF94
:100A5000D01A01BAB1FA81F101F0180122FA01F0BD
:100A6000CB40C1F12001DBB2C0B2C01A2CFA01F3B5
:100A7000D11A914311EAC311E6D1704710B500F0C5
:100A800005F8BDE8104000F081BB0000014900F00E
:100A900083BB00005072002010B503681C1404EBE7
:100AA00021449BB289B2194494FBF2F302FB134335
:100AB00094FBF2F401EB034393FBF2F102FB1131DF
:100AC00093FBF2F301E05B1E11440029FBDB0160A4
:100AD00003EB044010BD2DE9F04704464FF0FF3A08
:100AE00086B00068029060680390A0680490E06897
:100AF000019020690090656905F18040B0F1004FD8
:100B00007DD83C22002102A8FFF7C6FF3C22014607
:100B100003A8FFF7C1FF1822014604A8FFF7BCFF96
:100B2000411E40F2B55201A8FFF7B6FF0C2206465F
:100B300068460021FFF7B0FF00EB860028443E4DD9
:100B400000267D440FE09A1A491CCDE900120229C3
:100B500002D00C2907D104E0810704D0521C019275
:100B600001E0401C00960099019B6A5C9A42EADD14
:100B7000012906D11C2B04D1810702D00221CDE925
:100B80000016A0F146018B2940D20199009B00225A
:100B90000F4602E0AE5C521C31449A42FADB012B54
:100BA00002DD820700D0491E40F2B55540F26D16B5
:100BB000C21700EB927292106A4300F0030505FB26
:100BC000062285070A4400D1521E049D02EB42060C
:100BD000DDF80C80A94605EBC605184EC5EB0515DA
:100BE000DDF808C008EB850535442E14ADB2C6EB20
:100BF0000616C5EB0515B6000CEB850500E005E013
:100C000006EB154666F31F45360C03D0504606B07A
:100C1000BDE8F087C4E904307F1C0720521CC4E9FA
:100C2000029792FBF0F3E4E806C800FB132084E887
:100C300003042846EBE700007C6C0200A039CEFDDF
:100C4000704770477047000000487047C07200202E
:100C50002DE9F0470D4699469246044600F12408D6
:100C60000168880604D5E06921F01001216000E0E8
:100C70000120A84201DD471B00E00027A1697A1985
:100C800002EB0900081AA0612078C00602D42046B1
:100C900000F0CFFC002608E0D4E901211AF8060094
:100CA0009047206A401C761C20624E45F4DB207879
:100CB000C0060AD5204600F0BCFC06E0D4E90121BC
:100CC00030209047206A401C2062381EA7F101079F
:100CD000F4DC07E0D4E9012118F805009047206A08
:100CE000401C2062281EA5F10105F3DC204600F01F
:100CF000B6FC2078000602D50220BDE8F08701206E
:100D0000FBE770472DE9FF4F0C461E464FF0FF37BB
:100D10008BB0D2E90001DDF860800A908A46C1F309
:100D20000A5505B93D46002108464FF00000BAF1CA
:100D3000000F00F4400005DA00EB80004FF44001A2
:100D400001EA50004FEA9059B9F1010F00DDB946B0
:100D50000A9850EA4A000ED044F61050A5F2FF352A
:100D600045432F14B8F1000F1ED07542291E1EDD19
:100D7000C9F100021CE0B8F1010F4FF0000001D0F2
:100D8000302103E0F24305E02154401CB042FBDB7C
:100D900030460022002121540B99C1F80880C1E996
:100DA00000200FB0BDE8F08FBD1B6D1CDEE74A468A
:100DB00000DA694206A800F049FB06AB93E8070099
:100DC00003AB83E8070050460A9900F09BFF8DE8CB
:100DD0000700A0F500501F3800900398002D09DD92
:100DE00042F21F014A46084403A90390684601F0F5
:100DF000FAF908E0A0F500504A461F3803A903900D
:100E0000684601F004FA8DE807000004000C03D0E6
:100E10004FF0FF30410800E01046B8F1000F03D05A
:100E20000022009215461EE0751E05D400F020FA3F
:100E3000303262556D1EF9D5B3460122084302D007
:100E400000227F1C04E02078302801D100227F1E80
:100E5000002A099786D01DE0112D07DA00F008FA64
:100E6000303262556D1C50EA0102F5D1084302D0C0
:100E70000098C8B10EE00021681E05E0235C625CAA
:100E800063542254401E491C8142F7DBAB46A81B29
:100E9000401E0990002004F80B000B98099AC0F836
:100EA0000880C0E9002B7CE711264FF0000859E7C5
:100EB0002DE9F04F88460446D21D22F0070191B07B
:100EC000D1E90001CDE90A0105F0D8FF02460B98EF
:100ED000C00F01D02D2007E02068810701D52B200D
:100EE00002E0202101EAC000032A099001D0072A6C
:100EF00005DB03464146204600F018FA0BE1207856
:100F0000800601D5E06900E00620B8F1650F814652
:100F100006D0B8F1660F18D0B8F1670F70D131E084
:100F20000020B9F1110F009001DB112301E009F15C
:100F300001030AAA01A90CA8FFF7E4FEDDE90C7081
:100F4000002609F10105834647E001204B46009049
:100F50004FF000470AAA01A90CA8FFF7D3FEDDE96C
:100F60000DB00C995D46002610B909F101000D186D
:100F7000B9EB050003D4C0F1FF3609F10105A5EB7B
:100F800009002BE0B9F1010F01DA4FF0010900204F
:100F9000B9F1110F0090484601DD112300E003462E
:100FA0000AAA01A90CA8FFF7ADFEDDE90C704D46B9
:100FB00000268346207800070AD4AB4500DA5D4658
:100FC00001A8012D04DD411911F8011C302907D0B9
:100FD0004F4502DA17F1040F04DA012082460FE0D0
:100FE0006D1EEEE7002F02DCED1B3E4403E0781C93
:100FF000A84200DD7D1CB81B00F1010A4FF000473C
:101000002078000703D4AA4501DB4FF0FF3A002106
:10101000B7F1004F0DF143088DF8431024D00220A2
:101020002B23002F01DA7F422D230A21021EA0F17B
:10103000010000DC5FB197FBF1FC97FBF1F201FBD3
:101040001C7C17460CF1300C08F801CDEEE7A8F136
:10105000010003702188090501D5452100E06521C3
:10106000A0F1010800F8011C09980FA9A1EB0807DD
:10107000FF1D00B10120411901EBEA70A16938445C
:10108000081A401EA0612078C00602D4204600F055
:10109000D0FA099828B1D4E901219047206A401C70
:1010A00020622078C00622D5204600F0C2FA1EE059
:1010B000002E04DBB34502DD01A8805D00E0302096
:1010C000D4E901219047206A401C2062761CAAF1D5
:1010D00001005FEA000A0AD100F0C6F8C0680168A2
:1010E000405CD4E901219047206A401C2062281E00
:1010F000A5F10105DCDC07E0D4E9012118F8010BBA
:101100009047206A401C2062381EA7F10107F3DCDB
:10111000204600F0A4FA032011B043E62DE9F04781
:1011200091460F4680460446002614F8015B2DB117
:1011300000F092F80068405DC007F6D12B2D02D078
:101140002D2D18D0641E4A463946204600F02EF94F
:1011500027B13968A14201D1C7F800804FF00204DD
:1011600071050BD54042002803DDFFF76DFD0460DB
:10117000A007BDE8F08746F48066E4E70028F8DAC7
:10118000FFF762FD04606FF00040F2E7014900F0F4
:10119000CBB900007C72002070B50C4601680020BD
:1011A0004A1C3ED03C22B1FBF2F302FB1313B1FB0D
:1011B000F2F12360B1FBF2F302FB1313B1FBF2F186
:1011C00018226360B1FBF2F302FB1313B1FBF2F1DF
:1011D00046F2E0320A440721A360B2FBF1F301FBBF
:1011E000132140F2B553B2FBF3F5A161B2FBF3F169
:1011F00003FB15228900B2F5B77F08D39B10521E5E
:10120000B2FBF3F52944B2FBF3F503FB15220F4BB8
:10121000E261616189077B440CD03B2A0AD3521CEE
:1012200008E02C212046FFF797FB0120E0600AE050
:10123000521A401C195C9142FAD9521CC4E903208D
:101240004FF0FF302062204670BD0000A86502000C
:1012500000487047C072002010B500F005F8001D6E
:1012600010BD00BFA956020000487047E072002080
:1012700030B5B0F10A024FEA900E71F100034EEA68
:10128000817EB0EB0E0061EB91014FEA101E4EEA39
:10129000017E10EB0E0041EB11114FEA102E4EEAC9
:1012A000016E10EB0E0041EB11214FEA104E4EEA99
:1012B000014E10EB0E0041EB1141401841F10001CD
:1012C0004FEAD00040EA41704FEAD10110EB8005AF
:1012D0004FEA810444EA907444EB01046D1944EB35
:1012E0000404521BA3414FF0000348BF0A3200D54B
:1012F00030BD401C41F1000130BD000001694A1CB5
:1013000002610878704700B58FB0CDE90131002146
:10131000059105497944CDE9031011466846FFF768
:10132000CDF80FB000BD0000E5FFFFFF2DE9F04153
:101330001F46044603260168072A01F4006004DB07
:1013400008B116A505E016A503E008B115A500E053
:1013500015A521F010002060A069C01EA0610FB18A
:10136000401EA061204600F064F94FB1D4E901218C
:1013700038469047206A401C2062C01C206206E06C
:10138000206AFAE7D4E9012115F8010B9047761E8F
:10139000F8D2204600F063F9BDE8F0814E414E00DE
:1013A0006E616E00494E4600696E66002DE9F05F81
:1013B000824615468B4600270AF10104B94600789B
:1013C000302801D09DB113E014F8010B01277828D3
:1013D00003D0582801D045B10AE00DB1102D07D136
:1013E000002714F8010B102502E0082500E00A256B
:1013F0000026B0460EE005FB080005FB06F10127BC
:101400001FFA80F801EB1046B6F5803F00D3B946CD
:1014100014F8010B294600F0F7F80028EBDABBF1CD
:10142000000F05D00FB1641E00E05446CBF8004019
:10143000B9F1000F06D0FFF707FC02210160C81EBA
:10144000BDE8F09F48EA0640FAE700002DE9F047C2
:10145000814616468AB0334878440DC88DE80D00A1
:1014600030487844801C03AC0DC884E80D0041F678
:101470009B300844372190FBF1F290FBF1F5A5F188
:10148000800501FB12041B3C02D56442012000E0F0
:101490000020DFF890A080460027FA44AAF1BE0A97
:1014A0000DE0E00709D03246684607EB47010AEB3A
:1014B000810100F0ACFE8DE8070064107F1C002C59
:1014C000EFD1184F7F44AC3F18E0E80714D007EB8A
:1014D00004100DF1180A90E80E008AE80E00C068AA
:1014E000F04201D198190890324606A903A800F0ED
:1014F0008EFE03AB83E807006D10641C002DE4D161
:1015000032466946B8F1000F03A802D000F06BFE26
:1015100001E000F07CFEC9E90001C9F808200AB02A
:10152000BDE8F087F0630200F0B50D46044685B0D3
:10153000FFF79AFE006994E8C0106369016803F23E
:101540006C730A188168CDE90363CDE901C7E368CC
:1015500001440093C66A2369406A03FB0613A1692C
:1015600001FB0022284603A100F038F805B0284608
:10157000F0BD0000257320257325336420252E320D
:10158000643A252E32643A252E32642025640A00FE
:101590007546FFF75DFEAE4605006946534620F0EE
:1015A0000700854618B020B5FEF7C4FEBDE8204010
:1015B0004FF000064FF000074FF000084FF0000B0F
:1015C00021F00701AC46ACE8C009ACE8C009ACE8C2
:1015D000C009ACE8C0098D46704700000FB41CB5C7
:1015E000084B06AA7B44694600900598FFF78BFEDE
:1015F00004460020694600F092F820461CBC5DF8C5
:1016000014FB0000370100003A2800D2303820F0E7
:101610002002412A01D3A2F13700884201D34FF0C2
:10162000FF3070470446AFF300802046FEF754FEBB
:10163000704770B5044685690068C10601D530263B
:1016400000E02026C00707D070BDD4E90121304654
:101650009047206A401C20626D1EF6D570BD70B5A3
:10166000044685690078C00707D170BDD4E901211F
:1016700020209047206A401C20626D1EF6D570BD68
:1016800009684A0501D540B27047C905FCD500B2CA
:10169000704709684A0501D5C0B27047C905FCD535
:1016A00080B2704770B50C460546012A05D02878EF
:1016B000800600D5EA69002302E0012305E05B1CF7
:1016C000934202D2E05C0028F9D1A869E618C01A5A
:1016D000A861286A184428622846FFF7AAFF04E098
:1016E000D5E9012114F8010B9047B442F8D32846FC
:1016F000FFF7B5FF70BD11680268006A530501D598
:1017000008700AE0D30501D5088006E0130603D56A
:10171000C217C1E9000200E00860012070470A68B2
:1017200002F8010B0A6070472DE9FF5F15468A46F3
:101730000446DFF8AC80F8440027D8E900103E46A4
:10174000CDE9001010E03AF816106A4602A800F041
:10175000B9FA411C07D02178890603D5E269391806
:1017600091420DD80744761C2078800602D5E069A6
:10177000B84205DDAE42E6DB3AF816000028E2D1B9
:10178000A069C01BA0612046FFF753FFD8E90010F5
:10179000CDE90010002017E03AF818106A4602A8B8
:1017A00000F090FAB0F1FF3F81460BD000250DF11B
:1017B000080B05E0D4E901211BF8050090476D1CDA
:1017C0004D45F7D308F10100B0428046E4DB206AC2
:1017D000384420622046FFF742FFBDE8FF9F00002B
:1017E0002A6102002DE9F0418046D21D22F0070255
:1017F0000025D2E90002F52915A614D0011E72F1C8
:10180000000106DA0023D0EB030063EB020211A60D
:1018100008E0D8F800108B0701D50FA602E04907B1
:1018200001D50EA601251146002408F1240704E085
:10183000FFF71EFD30323A55641C50EA0102F7D121
:101840002B46324621464046BDE8F041FFF700BA3C
:10185000000000002D0000002B0000002000000010
:1018600030B4002100F1240408E002F00705D2089A
:10187000303542EA4372DB086554491C52EA0305DD
:10188000F3D10468002310A2250708D504F0200432
:101890000C4304D0C46901230CA2641EC46130BC93
:1018A000FFF7D6B910B5044621461068FFF7F1FEE0
:1018B00002462046BDE810400023D1E7D21D22F0A9
:1018C0000701D1E90023CBE7000000003000000051
:1018D000F0B40D460188090502D5214C7C4402E094
:1018E0001F4C7C440E34002100F1240608E002F075
:1018F0000F071209E75D42EA03721B097754491C7E
:1019000052EA0307F3D102780023120704D5702DA1
:1019100006D009B1022311342246F0BCFFF798B972
:1019200001231034F8E770B504460D4621461068CF
:10193000FFF7AFFE024629462046BDE8704000236F
:10194000C6E7D21D22F00703D3E90023C0E70368EE
:10195000126843F0200303600823C3610023B7E744
:101960008C5F020001491820ABBEFEE72600020092
:101970002DE9F04F04460D46D21D22F0070089B034
:10198000D0E9009248461746394605F077FA0246F4
:10199000F80F01D02D2307E02068810701D52B2304
:1019A00002E0202101EAC0038DF820300BB10120B4
:1019B00000E00020032A824601D0072A04DB2946E2
:1019C0002046FFF7B3FC3DE12078800601D40D25C9
:1019D00000E0E569C7F30A560D2D49DA00214FEA08
:1019E000175B08464FF00000002F00F4400007DAB4
:1019F00000EB80004FF4400100EBD07001EA600082
:101A00008115012901DD4FF0FF3100224FEA850CDD
:101A1000BCF1180F06D31346ACF118004FF08052FA
:101A2000C24003E04FF4801323FA0CF30CF10C0CCA
:101A3000BCF1200F04D3ACF1200C09FA0CF001E04A
:101A400007FA0CF000294FF0004801DD18B90FE04B
:101A50000ED140450CD319EB02095F4121B9404535
:101A600002D19F4329EA0209BBEB175F00D0761C25
:101A70002088000502D57B48784402E07948784404
:101A8000193808AA302302F80A30037C0AF1010150
:101A9000002E0AF1020A53546A4602DC4FF030016C
:101AA00001E04FF031014FF001088DF8001002D035
:101AB000A6F2FF3603E059EA470100D06A4E002D36
:101AC00002DC2178090704D54FF002082E218DF899
:101AD0000110C44600210BE0C7F303433F01C35C80
:101AE000491C6D1E02F80830052908F1010801DAC9
:101AF000002DF1DC00210CE000EB1973491C1B7870
:101B00006D1E082902F808304FEA091908F101088A
:101B100001DA002DF0DC2178890602D514E0A8F165
:101B20000108E04505DD02EB080111F8011C302930
:101B3000F5D0B8F1000F07DD02EB080111F8011C28
:101B40002E2901D1A8F10108002D05DD3E2102F862
:101B500008106D1E08F10108407C002E02F80800F4
:101B600008F1010804DA2D20764202F8080002E0AC
:101B70002B2002F808000A214FF47A70864208F1FF
:101B800001080BDB96FBF0F3303302F8083096FBCC
:101B9000F0F308F1010800FB136601E0642E0CDB92
:101BA000642096FBF0F3303302F8083096FBF0F334
:101BB00008F1010800FB136601E00A2E06DB96FB24
:101BC000F1F0303002F8080008F1010896FBF1F05E
:101BD00001FB1060303002F80800A16908F101082B
:101BE00008EB050202EB0A00081AA0612078C00683
:101BF00002D42046FFF71DFD216A08AE01EB0A0062
:101C0000206204E0D4E9012116F8010B9047BAF1F3
:101C1000010AF7D22078C00602D52046FFF709FD59
:101C20006E4609E016F8010B3E280FD0D4E90121D9
:101C30009047206A401C2062B8F10108F2D2204689
:101C4000FFF70DFD09B00320BDE8F08F206A28449E
:101C5000206203E0D4E90121302090476D1EEBD3D0
:101C6000F8E700002B5E020002FCFFFF10B543699D
:101C700013B1AFF3008001E0FFF714FD012010BDA8
:101C8000127800F124010A7000224A700122EDE767
:101C900011684FF0FF32E9E710B5436913B1AFF3B4
:101CA000008001E0FFF740FD012010BD128800F127
:101CB000240182840022C2840122EDE711684FF0E2
:101CC000FF32E9E770B516460C460546FFF7C4FA41
:101CD000036893F80101012806D0FF2C0FD8185D86
:101CE00068B101202C7070BDD3F80701324621463F
:101CF00003F2071303442846BDE8704018474FF02D
:101D0000FF3070BD5FEA400C08BF91F0000F4FEA52
:101D10008C234FEAC12243EA51514FEA1C5018BFAD
:101D200000F5F0404FEA300018BF41F000415FEA93
:101D30006C5C00F02980BCF1FF3F08BF40F08040A0
:101D40007047130C06BF12044FF0100C4FF0000C3C
:101D5000130E04BF12020CF1080C130F04BF120182
:101D60000CF1040C930F04BF92000CF1020CD30F82
:101D700004BF52000CF1010C11464FF00002A0F11B
:101D80001F00A0EB0C00704711F0004F08BF704718
:101D900031F000413FF4D5AF0B0C06BF09044FF002
:101DA000100C4FF0000C0B0E04BF09020CF1080CD4
:101DB0000B0F04BF09010CF1040C8B0F04BF890049
:101DC0000CF1020CCB0F04BF49000CF1010CCCF15B
:101DD0002003A0EB0C0022FA03F302FA0CF241EA12
:101DE000030100F10100704720F07F4C80EA0300FE
:101DF00023F07F47ACEB070303F57C5300F0004072
:101E000003F1FF032DE980494FEA154B09B44FEA6E
:101E1000144325EA0B4E24EA03480FF2042606EB8E
:101E2000132749083E785FEA320203FB0667C7F5CD
:101E3000000707FB06F64FEA54374FEAD64606F18D
:101E4000020607FB066CCCF1005C4FEA1C472CEA4B
:101E5000074C07FB06F40CFB06F504EB15464FEAAE
:101E6000961634BF00204FF000404FEAD13706FBF2
:101E700007FC4FEA1C4C0CFB0BF7D21B03FB0CF7C7
:101E800061EB07010CFB0EF7B0EB074072EB17425A
:101E90000CFB08F734BFA2EB0742B2EB074261EB41
:101EA00017414FEA0C444FEA910706FB07FC4FEA43
:101EB0001C4C0CFB0BF7B0EBC74072EB573203FB2B
:101EC0000CF734BFA2EBC742B2EBC74261EB57310C
:101ED0000CFB0EF7B0EBC70072EB57720CFB08F768
:101EE00034BFA2EBC702B2EBC70261EB5771039F8D
:101EF0004FEA816141EA921104EBCC044FEAD137F9
:101F00004FEA826206FB07FC42EA90124FEA8060C9
:101F10004FEA1C4C0CFB0BF7D21B03FB0CF761EBDD
:101F200007010CFB0EF7B0EB074072EB17420CFBFE
:101F300008F734BFA2EB0742B2EB074261EB17414F
:101F40004FEA8C554FEA910704EB9C2406FB07FCF3
:101F50004FEA1C4C0CFB0BF7B0EBC74072EB57324F
:101F600003FB0CF734BFA2EBC742B2EBC74261EBF5
:101F700057310CFB0EF7B0EBC70072EB57720CFB3E
:101F800008F734BFA2EBC702B2EBC70261EB57718F
:101F900015EB4C254FEA816141EA92114FEA8262CA
:101FA0004FEAD13742EA901206FB07FC44F10004E5
:101FB0004FEA80604FEA1C4C0CFB0BF7D21B03FB73
:101FC0000CF761EB07010CFB0EF7B0EB074072EB6F
:101FD00017420CFB08F734BFA2EB0742B2EB0742F3
:101FE00061EB174115EB1C154FEA813141EA924133
:101FF0004FEA823242EA90424FEA80304FEA0C7652
:1020000044F1000448EA03434EEA0B484FF0000E47
:10201000B2EB080C71EB030724BF624639464EEB66
:102020000E0E4FF0000B0018524149414BEB0B0BC9
:10203000B2EB080C71EB03077BF1000B24BF624687
:1020400039464EEB0E0E4FF0000B0018524149413D
:102050004BEB0B0BB2EB080C71EB03077BF1000BA6
:1020600024BF624639464EEB0E0E51EA020718BFF6
:1020700046F0010616EB0E7655F1000254F1000110
:1020800003D5BDE88901BDE80088BDE88901BDE848
:102090000048B619524141EB0101A3F10103704719
:1020A00080807F7E7D7C7B7A797877767675747395
:1020B000727171706F6E6E6D6C6C6B6A6A69686854
:1020C000676666656464636362616160605F5F5EEA
:1020D0005E5D5D5C5C5B5B5A5A5959585857575660
:1020E00056555555545453535252525151505050C5
:1020F0004F4F4F4E4E4D4D4D4C4C4C4B4B4B4A4A17
:102100004A4949494848484747474746464645455A
:102110004544444444434343434242424241414193
:10212000002B26D4770021D01CB54FEA370703B423
:102130004FF010004FF010014FF000000FBCBDE851
:1021400010400BF1010BBBF1010F08BF5FEA17074D
:1021500022BF12F1010211F101014FF0004143F1E0
:10216000000300F0004043EA00007047F9D357082D
:10217000DAE746EA064613F1400F4FEA16461FDD3E
:1021800013F1200FDFBF16430A46002120335B42C4
:10219000C8D0C3F1200746EA064602FA07F74FEA1D
:1021A000164646EA0706C3F1200722FA03F201FAAF
:1021B00007F721FA03F14FF0000342EA0702B1E703
:1021C00046EA020646EA06464FEA164646EA01068F
:1021D000BCBF46EA0646360C4FF000034FF0000243
:1021E0004FF000019EE72DE9C048934630B491E8D6
:1021F000380007C831EA400C48BF34EA430C03D525
:10220000FFF7F2FDFFF78CFFF0BCBDE800882DE979
:10221000C048934630B491E8380007C810F0804FAA
:1022200008BF13F0804F03D100F005F8FFF778FFE7
:10223000F0BCBDE8008820F07F4780EA030023F06F
:102240007F4C07EB0C03A3F57C5300F00040A3F197
:10225000FE0392F0000F00F0B38095F0000F00F045
:1022600077802DE901494FEA11404FEA144621EAEF
:10227000004800FB06FC24EA064708FB06F607FBBD
:1022800008F800FB07F718EB06484CEB164C4FEA32
:10229000124B18EB07484FEA15464CEB174022EA61
:1022A0000B4E0BFB06FC25EA06470EFB06F607FB6A
:1022B0000EFE0BFB07F71EEB064E4CEB164C4FF0D9
:1022C00000061EEB074E4CEB174B18EB0B0840F1CA
:1022D000000018EB0E0B58EB000840F100008F1ABD
:1022E0004FF000013CBFC943661B14BFB5EB040CA3
:1022F00000213CBFC943F61B4FEA17444EEA8E0E3D
:1023000027EA04454FEA1C4704FB07622CEA074C06
:1023100005FB07F70CFB05F604FB0CFC16EB074668
:1023200042EB174216EB0C4642EB1C421BEB060637
:1023300058EB0202414146EA9E0601D5BDE80189FB
:10234000B619524141EB0101A3F10103BDE8018936
:102350004FEA14454FEA114724EA054621EA074CA3
:1023600005FB07F406FB07F70CFB06F105FB0CFC6D
:1023700011EB074144EB17444FEA124711EB0C41B4
:1023800044EB1C4422EA074C05FB07F206FB07F767
:102390000CFB06F605FB0CFC16EB074642EB17425E
:1023A00016EB0C4642EB1C456A1854F1000148BF7D
:1023B0007047B619524141EB0101A3F10103704787
:1023C00095F0000F37D04FEA11424FEA144721EA47
:1023D000024624EA074C02FB07F106FB07F70CFB59
:1023E00006F402FB0CFC14EB074441EB17414FEAE7
:1023F000154714EB0C4441EB1C4125EA074C02FB4A
:1024000007F506FB07F70CFB06F602FB0CFC16EBC8
:10241000074645EB174516EB0C4645EB1C421219D7
:1024200051F1000148BF7047B619524141EB01011B
:10243000A3F1010370474FEA14454FEA114724EA1C
:10244000054621EA074C05FB07F106FB07F70CFBE5
:1024500006F24FF0000605FB0CFC12EB074241EBC5
:10246000174112EB0C4251EB1C4148BF70479218C8
:1024700041EB0101A3F10103704700BFFEE700003B
:1024800010B518F0E7FC034809F0C6FD18F004FD8C
:1024900010BD00002409002010B518F0DBFC034833
:1024A00009F0BAFD18F0F8FC10BD00007809002012
:1024B00010B5044604F0704010B10948204008B936
:1024C00004B104E040F20E2106A005F04BFE04F03A
:1024D000805010B11248046001E01248446010BD01
:1024E0000000F0EF2E2E5C4C6962726172696573B8
:1024F0005C53544D3332463130785F5374645065C9
:10250000726970685F4472697665725C7372635C4D
:1025100073746D3332663130785F646D612E6300A1
:10252000040402400000024070B504460D462448F1
:1025300084422AD022481430844226D020482830B1
:10254000844222D01E483C3084421ED01C48503069
:1025500084421AD01A486430844216D01848783021
:10256000844212D0174884420FD016481430844257
:102570000BD014482830844207D012483C308442A3
:1025800003D010485030844200D104E040F22911B9
:102590000DA005F0E7FD0DB1012D00D104E04FF4D1
:1025A000957109A005F0DEFD25B1206840F001001D
:1025B000206004E020684FF6FE710840206070BD86
:1025C00008000240080402402E2E5C4C69627261D1
:1025D000726965735C53544D3332463130785F53C2
:1025E00074645065726970685F4472697665725C84
:1025F0007372635C73746D3332663130785F646D0F
:10260000612E630070B58CB00546EC6BEE6C012258
:1026100040F22441206803F0EFFF0121084603F057
:10262000A5F80121022003F0A1F8A06800F03EF80F
:102630002068001D01903068029000200390A86C73
:10264000C0F38F2004900020059080200690002089
:102650000790089009904FF400500A9000200B90CA
:1026600001A9A06800F0EEF9E068FFF721FF012260
:102670000221A06800F070F901224021206803F0D7
:1026800039FE0121A068FFF74FFF207C8DF8000084
:1026900000208DF8010001208DF802008DF8030064
:1026A000684602F08DF90CB070BD000010B504460C
:1026B0006A4884422AD069481430844226D0674848
:1026C0002830844222D065483C3084421ED0634882
:1026D000503084421AD061486430844216D05F483A
:1026E0007830844212D05E4884420FD05C48143067
:1026F00084420BD05A482830844207D058483C3096
:10270000844203D056485030844200D103E06F2108
:1027100054A005F027FD20684FF6FE7108402060A8
:10272000002020606060A060E0604C48844208D1D6
:102730004A480838406840F00F0048490839486066
:102740008AE046481430844208D14448083840683A
:1027500040F0F0004149083948607DE03F482830AA
:10276000844208D13D480838406840F470603B49D5
:102770000839486070E039483C30844208D1374815
:102780000838406840F4704034490839486063E0D4
:1027900032485030844208D130480838406840F40C
:1027A00070202E490839486056E02C486430844235
:1027B00008D12A480838406840F470002749083991
:1027C000486049E025487830844208D123480838D9
:1027D000406840F070602149083948603CE020487A
:1027E000844206D1001F006840F00F00211F0860DE
:1027F00032E01B481430844208D11948001F006899
:1028000040F0F0001649091F086025E01448283000
:10281000844208D11248001F006840F470601049DB
:10282000091F086018E00E483C30844208D10C486B
:10283000001F006840F470400949091F08600BE060
:1028400007485030844207D10548001F006840F413
:1028500070200349091F086010BD000008000240F5
:10286000080402402E2E5C4C6962726172696573C5
:102870005C53544D3332463130785F537464506545
:10288000726970685F4472697665725C7372635CCA
:1028900073746D3332663130785F646D612E63001E
:1028A00010B504461B4884422AD01A48143084428A
:1028B00026D018482830844222D016483C30844222
:1028C0001ED01448503084421AD0124864308442DA
:1028D00016D010487830844212D00F4884420FD06E
:1028E0000D48143084420BD00B482830844207D066
:1028F00009483C30844203D007485030844200D11C
:1029000004E04FF4BB7105A005F02CFC606880B2B8
:1029100010BD000008000240080402402E2E5C4C4E
:1029200069627261726965735C53544D333246312A
:1029300030785F5374645065726970685F4472697F
:102940007665725C7372635C73746D3332663130BA
:10295000785F646D612E630070B504460D461646BF
:10296000274884422AD026481430844226D024485E
:102970002830844222D022483C3084421ED0204855
:10298000503084421AD01E486430844216D01C480D
:102990007830844212D01B4884420FD0194814303A
:1029A00084420BD017482830844207D015483C3069
:1029B000844203D013485030844200D104E040F2F6
:1029C000491111A005F0CEFB25F00E0008B905B1A4
:1029D00004E04FF4A5710CA005F0C4FB0EB1012E6C
:1029E00000D104E040F24B1107A005F0BBFB1EB183
:1029F00020682843206002E02068A843206070BD62
:102A000008000240080402402E2E5C4C696272618C
:102A1000726965735C53544D3332463130785F537D
:102A200074645065726970685F4472697665725C3F
:102A30007372635C73746D3332663130785F646DCA
:102A4000612E630070B505460C4600265E4885423F
:102A50002AD05D481430854226D05B482830854214
:102A600022D059483C3085421ED0574850308542CC
:102A70001AD055486430854216D053487830854284
:102A800012D0524885420FD05048143085420BD0A6
:102A90004E482830854207D04C483C30854203D010
:102AA0004A485030854200D103E0CF2148A005F0CC
:102AB00059FBA068102801D0A06800B903E0D0211C
:102AC00043A005F04FFBE06820B1E068B0F5803F1F
:102AD00000D203E0D1213EA005F044FB206940284C
:102AE00001D0206900B903E0D22139A005F03AFBFA
:102AF0006069802801D0606900B903E0D32134A067
:102B000005F030FBA06938B1A069B0F5807F03D033
:102B1000A069B0F5007F00D103E0D4212CA005F01E
:102B200021FBE06938B1E069B0F5806F03D0E0695E
:102B3000B0F5006F00D103E0D52125A005F012FB10
:102B4000206A202801D0206A00B903E0D62120A005
:102B500005F008FB606AB0F5405F09D0606AB0F527
:102B6000005F05D0606AB0F5805F01D0606A00B98F
:102B700003E0D72116A005F0F5FAA06AB0F5804F62
:102B800001D0A06A00B903E0D82111A005F0EAFA4B
:102B90002E6847F6F0708643216AA06808432169D1
:102BA000084361690843A1690843E1690843616A10
:102BB0000843A16A084306432E60E0686860206805
:102BC000A8606068E86070BD080002400804024028
:102BD0002E2E5C4C69627261726965735C53544D50
:102BE0003332463130785F5374645065726970686F
:102BF0005F4472697665725C7372635C73746D3383
:102C000032663130785F646D612E630070B50446C2
:102C10000D461B4884422AD019481430844226D0DD
:102C200017482830844222D015483C3084421ED0B8
:102C30001348503084421AD011486430844216D070
:102C40000F487830844212D00E4884420FD00D488D
:102C5000143084420BD00B482830844207D00948F6
:102C60003C30844203D007485030844200D104E015
:102C70004FF4B27104A005F075FA656070BD0000F4
:102C800008000240080402402E2E5C4C696272610A
:102C9000726965735C53544D3332463130785F53FB
:102CA00074645065726970685F4472697665725CBD
:102CB0007372635C73746D3332663130785F646D48
:102CC000612E6300704700000EB56A460A2100209D
:102CD00002F08AFF694602A018F05EF90EBD0000FE
:102CE000726561642064617465206F6E2061646444
:102CF000726573732030783030303030303A25735D
:102D00000A0000000EB507A207CA8DE807006A4650
:102D10000A21002004F01CF8694605A018F03CF9CF
:102D20000EBD000059754E656E672041505300007E
:102D300077726974652064617465206F6E206164C8
:102D400064726573732030783030303030303A251B
:102D5000730A000008B50121082002F0D7FD012008
:102D6000ADF8000010208DF8030003208DF802005C
:102D70006946154801F0DCFA0220ADF80000142085
:102D80008DF8030003208DF8020069460E4801F01B
:102D9000CFFA4FF48060ADF8000010208DF80300EA
:102DA00003208DF802006946074801F0C1FA0021AE
:102DB00006A018F04DFE084908600846006810B9E2
:102DC00006A018F0E9F808BD000C01404545505236
:102DD0004F4D5F6C6F636B0044000020496E697457
:102DE00069616C697A6520454550524F4D20737575
:102DF000636365737366756C210A000010B5044641
:102E00000648204008B904B104E040F24B7104A028
:102E100005F0A8F90C48446110BD00000018FEFF41
:102E20002E2E5C636F6D706F6E656E74735C6E6575
:102E3000745C65746865726E65745C657468407313
:102E4000746D33322E6300000090024070B504466A
:102E50000D461048204008B904B104E040F2DA7190
:102E60000DA005F07FF90DB1012D00D104E040F275
:102E7000DB7109A005F076F92DB11148C069204336
:102E80000F49C86104E00E48C069A0430C49C861FD
:102E900070BD00000018FEFF2E2E5C636F6D706F1A
:102EA0006E656E74735C6E65745C65746865726E75
:102EB00065745C6574684073746D33322E63000012
:102EC0000090024010B504460CB1012C00D104E082
:102ED00040F2B17108A005F045F934B1104880699D
:102EE00040F002000E49886105E00D48806920F03D
:102EF00002000B49886110BD2E2E5C636F6D706FF0
:102F00006E656E74735C6E65745C65746865726E14
:102F100065745C6574684073746D33322E630000B1
:102F20000090024030B50C4613460021104D286039
:102F300000BF18E000EB01124FF00045156044F2AD
:102F4000F0555560C1EB411505EB811504EB0515F6
:102F500095605D1E8D4204D900EB01151035D560DA
:102F600000E0D060491C9942E4D3024DE86030BDD6
:102F7000B00100200090024010B504460CB1012CB5
:102F800000D104E040F29A7108A005F0EBF834B1EA
:102F90001048806940F400500E49886105E00D48F2
:102FA000806920F400500B49886110BD2E2E5C63AF
:102FB0006F6D706F6E656E74735C6E65745C657456
:102FC0006865726E65745C6574684073746D3332E5
:102FD0002E6300000090024030B50C4613460021DD
:102FE0000F4D286000BF15E000EB01124FF4801573
:102FF0001560C1EB411505EB811504EB05159560D6
:103000005D1E8D4204D900EB01151035D56000E03E
:10301000D060491C9942E7D3024D286130BD0000C1
:10302000AC0100200090024010B50121880302F09D
:10303000E3FB00214FF4804002F0DEFB10BD01B540
:1030400081B0002000900198009002E00098401E9E
:10305000009000980028F9D10CBD00000348806959
:1030600040F48010014988617047000000900240E0
:1030700000200449096801F0010109B1012000E0C4
:10308000002070470090024010B517F0E3FE1D4885
:10309000446904F0400028B11B480AF089FD402033
:1030A000FFF7ACFE04F0010020B121F04BFF01203E
:1030B000FFF7A4FE04F4803018B14FF480301149BA
:1030C000486104F4004018B14FF400400D494861D4
:1030D00004F0100010B110200A49486104F080008B
:1030E00020B100F08BFD80200649486104F0040007
:1030F00020B100F089FD04200249486117F0CCFEA0
:1031000010BD000000900240783100202DE9F04110
:1031100088B004460F464FF00008002500200790B5
:10312000FC4E01902068012801D0206800B903E01E
:103130003F21F9A005F016F8606818B16068B0F595
:10314000000F00D103E04021F3A005F00BF8A068C8
:1031500018B1A068B0F5800F00D103E04121EEA0C6
:1031600005F000F8E068D8B1E068B0F5003F17D08E
:10317000E068B0F5802F13D0E068B0F5C02F0FD015
:10318000E068B0F5002F0BD0E068B0F5202F07D035
:10319000E068B0F5402F03D0E068B0F5602F00D1B3
:1031A00003E04221DCA004F0DDFF206918B12069B2
:1031B000B0F5803F00D103E04321D7A004F0D2FF57
:1031C000606918B16069B0F5804F00D103E0442117
:1031D000D1A004F0C7FFA06918B1A069B0F5005FE5
:1031E00000D103E04521CCA004F0BCFFE069B0F5BC
:1031F000805F01D0E06900B903E04621C6A004F079
:10320000B1FF206AB0F5006F01D0206A00B903E079
:103210004721C1A004F0A6FF606AB0F5806F01D01D
:10322000606A00B903E04821BBA004F09BFFA06ADC
:1032300018B1A06AB0F5007F00D103E04921B6A023
:1032400004F090FFE06A802801D0E06A00B903E052
:103250004A21B1A004F086FF206B40B1206B2028EA
:1032600005D0206B402802D0206B602800D103E0FD
:103270004B21A9A004F076FF606B102801D0606B91
:1032800000B903E04C21A4A004F06CFFA06BB0F1E6
:10329000004F01D0A06B00B903E04D219EA004F0C7
:1032A00061FFE06BB0F5007F05D0E06BB0F5407FCB
:1032B00001D0E06B00B903E04E2197A004F052FF6B
:1032C000206C402805D0206C802802D0206CC028BB
:1032D00000D103E04F2190A004F044FF606C10B1D6
:1032E000606C202800D103E050218BA004F03AFF4D
:1032F000A06C10B1A06C082800D103E0512186A079
:1033000004F030FFE06C012801D0E06C00B903E06C
:10331000522181A004F026FF40F20441206D884232
:1033200007D0206D042804D0206D10B1206D102826
:1033300000D103E0532178A004F014FF40F20241D1
:10334000606D884204D0606D022801D0606D00B9C4
:1033500003E0542170A004F005FF206EB0F5803F1B
:1033600000D203E055216CA004F0FCFE606E10B1A9
:10337000606E802800D103E0562167A004F0F2FEC1
:10338000A06E40B1A06E102805D0A06E202802D0FB
:10339000A06E302800D103E057215FA004F0E2FEC8
:1033A000E06E082801D0E06E00B903E058215AA071
:1033B00004F0D8FE206F042801D0206F00B903E08C
:1033C000592155A004F0CEFE606F022801D0606F35
:1033D00000B903E05A2150A004F0C4FEA06FB0F57C
:1033E000803F01D0A06F00B903E05B214AA004F048
:1033F000B9FEE06FB0F5803F00D203E05C2146A04B
:1034000004F0B0FED4F8800020B1D4F88000B0F110
:10341000806F00D103E05E213FA004F0A3FED4F84A
:103420008400B0F1007F02D0D4F8840000B903E03A
:103430005F2139A004F096FED4F8880020B1D4F8BA
:103440008800B0F1807F00D103E0602132A004F059
:1034500089FED4F88C00B0F5001F02D0D4F88C009F
:1034600000B903E061212CA004F07CFED4F89000A8
:1034700010B3D4F89000B0F5804F1DD0D4F8900070
:10348000B0F5004F18D0D4F89000B0F5404F13D0ED
:10349000D4F89000B0F5803F0ED0D4F89000B0F58D
:1034A000A03F09D0D4F89000B0F5C03F04D0D4F8C4
:1034B0009000B0F5E03F00D103E0622116A004F0D7
:1034C00051FED4F89400802802D0D4F8940000B9BA
:1034D00003E0632110A004F045FED4F898004028D2
:1034E00002D0D4F8980000B903E064210AA004F0E7
:1034F00039FED4F89C0058B1D4F89C00082807D0B5
:10350000D4F89C00102803D0D4F89C00182817D1B8
:103510001BE00000008793032E2E5C636F6D706FBD
:103520006E656E74735C6E65745C65746865726EEE
:1035300065745C6574684073746D33322E6300008B
:103540006521AFF22C0004F00DFED4F8A000042891
:1035500002D0D4F8A00000B904E06621AFF2480020
:1035600004F000FED4F8A400B0F1007F02D0D4F83B
:10357000A40000B904E06721AFF2640004F0F2FD9A
:10358000D4F8A800B0F5803F02D0D4F8A80000B964
:1035900004E06821AFF2800004F0E4FDD4F8AC0050
:1035A000B0F5003F36D0D4F8AC00B0F5802F31D064
:1035B000D4F8AC00B0F5002F2CD0D4F8AC00B0F5A6
:1035C000801F27D0D4F8AC00B0F5001F22D0D4F86B
:1035D000AC00B0F5800F1DD0D4F8AC00B0F1817F05
:1035E00018D0D4F8AC00B0F1827F13D0D4F8AC007E
:1035F000B0F1847F0ED0D4F8AC00B0F1887F09D050
:10360000D4F8AC00B0F1907F04D0D4F8AC00B0F1A5
:10361000A07F00D104E06921AFF2041004F0A2FD04
:10362000D4F8B000B0F5807F36D0D4F8B000B0F553
:10363000007F31D0D4F8B000B0F5806F2CD0D4F832
:10364000B000B0F5006F27D0D4F8B000B0F5805FBF
:1036500022D0D4F8B000B0F5005F1DD0D4F8B0008F
:10366000B0F1012F18D0AC49D4F8B000884213D083
:10367000AA49D4F8B00088420ED0A949D4F8B000C5
:10368000884209D0A749D4F8B000884204D0A6499E
:10369000D4F8B000884200D104E06A21AFF288106B
:1036A00004F060FDD4F8B4001F2800D804E06B21BA
:1036B000AFF29C1004F056FDD4F8B80090B1D4F8E5
:1036C000B800B0F5804F0DD0D4F8B800B0F5004F79
:1036D00008D0D4F8B800B0F5404F03D0D4F8B80003
:1036E000022800D104E06C21AFF2D41004F03AFDBE
:1036F0008E48056925F01C0502A802F06DF9039EAD
:103700008B48864205D38B48864202D245F0080595
:1037100009E08848864205D38748864202D245F0B0
:103720000C0500E000BF814805614FF40042002114
:10373000384600F0DBFA18B9002008B0BDE8F08187
:103740007E48FFF77CFC2068A0B300BF0198401CB6
:1037500001900121384600F0F7F900F0040018B993
:10376000774901988842F1D375490198884201D17F
:103770000020E2E7002001904FF4805200213846FB
:1037800000F0B4FA08B90020D7E700BF0198401C48
:1037900001900121384600F0D7F900F0200018B957
:1037A000674901988842F1D365490198884202D15E
:1037B0000020C2E719E0002001901F21384600F0E8
:1037C000C3F9804608F0100018B14FF40060206281
:1037D00001E00020206208F0040010B100206061C8
:1037E00016E04FF48040606112E0206AC0F3CF0021
:1037F0006169C1F34F0140EA01020021384600F03F
:1038000075FA08B9002098E76FF07F40FFF717FCC2
:10381000464805684B480540D4E901010843E16882
:1038200008432169084361690843A1690843E169C4
:103830000843216A0843616A0843A16A0843E16AB0
:103840000843216B0843616B084305433748056013
:10385000D4E90E010843216C0843616C0843A16C54
:103860000843E16C0843216D0843616D08432F490B
:103870004860A06D8860E06DC860084685694FF6B5
:1038800041700540B4F86010606E40EA0140A16EDE
:103890000843E16E0843216F0843616F0843054305
:1038A00022488561D4E91E0108432049C8612648A1
:1038B000856926480540D4E920010843D4F88810DA
:1038C0000843D4F88C100843D4F890100843D4F877
:1038D00094100843D4F898100843D4F89C10084377
:1038E000D4F8A0100843054317488561D4E929019D
:1038F0000843D4F8AC100843D4F8B0100843D4F807
:10390000B41040EA8100D4F8B810084340F4000035
:103910000D490860012010E70002000100040001C9
:10392000000800010010000100200001008002409A
:10393000002D3101C00E160200879303FFFF0F0018
:10394000FFFF04000F8120FF00900240233FDEF8BC
:1039500070B504460D462CB1082C03D0102C01D0B4
:10396000182C00D104E040F2BD310CA004F0FAFBA9
:103970002879697940EA0126124820440664E878EB
:103980000006A97840EA0140697840EA01202978D8
:1039900040EA01060B482044466470BD2E2E5C634D
:1039A0006F6D706F6E656E74735C6E65745C65745C
:1039B0006865726E65745C6574684073746D3332EB
:1039C0002E6300000080024010B5B0B0FFF72CFB62
:1039D00000F020F900BFFFF74BFB0128FBD001A846
:1039E00000F032F901200190002008904FF400709F
:1039F0000B9000200C900F90129014901590169040
:103A00004FF480600A90002021904FF000702290C7
:103A10000011249000202690279004202990C005B2
:103A20002A9040122B9080012C9040122D90400043
:103A30002F90002101A8FFF769FBC4B2012C03D12C
:103A400001210348FFF702FA204630B010BD000004
:103A50004100010010B504460CB1012C00D104E076
:103A600040F2153108A004F07DFB34B11048006825
:103A700040F004000E49086005E00D48006820F0A1
:103A800004000B49086010BD2E2E5C636F6D706FD3
:103A90006E656E74735C6E65745C65746865726E79
:103AA00065745C6574684073746D33322E63000016
:103AB0000080024010B504460CB1012C00D104E096
:103AC00040F2FE2108A004F04DFB34B1104800681C
:103AD00040F008000E49086005E00D48006820F03D
:103AE00008000B49086010BD2E2E5C636F6D706F6F
:103AF0006E656E74735C6E65745C65746865726E19
:103B000065745C6574684073746D33322E630000B5
:103B10000080024008B500214FF0006000F0FAFF7D
:103B20004FF4A06000F0BCFF3D208DF800000220A3
:103B30008DF8010000208DF8020001208DF80300AF
:103B4000684600F03DFF08BDF8B505460E46002466
:103B5000002000901F2D00DC04E040F27A211BA021
:103B600004F000FB1F2E00DC04E040F27B2117A0D4
:103B700004F0F8FA1F48046904F01C044FF478407C
:103B800000EAC52004434FF4F86000EA86100443BD
:103B900024F0020444F001041648046100BF0098B8
:103BA000401C00901348046904F0010018B1124948
:103BB00000988842F3D310490098884201D1002030
:103BC000F8BD0C48406980B2FAE700002E2E5C6315
:103BD0006F6D706F6E656E74735C6E65745C65742A
:103BE0006865726E65745C6574684073746D3332B9
:103BF0002E63000000800240FFFF04000020014906
:103C0000886070470090024000200149486070477A
:103C1000009002400348006840F00100014908603C
:103C2000704700000090024010B50120FFF742FFEE
:103C3000FFF714FA0120FFF70DFF0120FFF79CF9B1
:103C40000120FFF73FF910BD002101604160816054
:103C5000C160016141618161C16101624162816252
:103C6000C162016341638163C1634021016420211A
:103C7000416400218164C164016541658165C1655C
:103C800001668021416600218166C1660167416746
:103C90008167C1674FF08061C0F880104910C0F89B
:103CA00084104910C0F88810C910C0F88C10002189
:103CB000C0F89010C0F89410C0F89810C0F89C108C
:103CC000C0F8A0104FF00071C0F8A4100021C0F897
:103CD000A8104FF40031C0F8AC104912C0F8B01071
:103CE0000021C0F8B410C0F8B8107047F8B5054608
:103CF0000E4617460024002000901F2D00DC04E033
:103D000040F2A9211AA004F02DFA1F2E00DC04E0D5
:103D100040F2AA2116A004F025FA1F48046904F015
:103D20001C044FF4784000EAC52004434FF4F860C7
:103D300000EA8610044344F0020444F001041648EB
:103D40004761046100BF0098401C0090124804695C
:103D500004F0010018B1114900988842F3D30F49CB
:103D60000098884201D10020F8BD0120FCE7000046
:103D70002E2E5C636F6D706F6E656E74735C6E6516
:103D8000745C65746865726E65745C6574684073B4
:103D9000746D33322E63000000800240FFFF040088
:103DA00010B5012019F076FD4FF40071064800F0BF
:103DB000ABFB012802D105A017F0EEF84FF400701C
:103DC00000F038F810BD0000000C0140455854497F
:103DD000395F355F49525148616E646C65720A0003
:103DE0000EB500F0BDFD0121084601F08FFD09214F
:103DF000012000F023FA4FF40070019000208DF8AC
:103E0000080008208DF8090001208DF80A0001A89B
:103E100000F040F817208DF8000002208DF8010016
:103E200003208DF8020001208DF80300684600F0A1
:103E3000C7FD0EBD10B50446200D000508B904B13C
:103E400003E0FC2102A004F08DF91148046010BDCC
:103E50002E2E5C4C69627261726965735C53544DBD
:103E60003332463130785F537464506572697068DC
:103E70005F4472697665725C7372635C73746D33F0
:103E800032663130785F657874692E630000000017
:103E90001404014070B504460025207910B1207942
:103EA000042800D103E06A2135A004F05BF96079B1
:103EB000082805D060790C2802D06079102800D13C
:103EC00003E06B212EA004F04DF920686FF313007E
:103ED00010B9206800B103E06C2129A004F042F978
:103EE000A07910B1A079012800D103E06D2124A0B0
:103EF00004F038F9324DA07990B328460068216863
:103F0000884329460860081D006821688843291DE8
:103F100008602079054428682168084328602848FB
:103F20000830006821688843254908310860081D69
:103F300000682168884322490C31086060791028A4
:103F40000FD1081F0068216808431D490831086027
:103F5000081D00682168084319490C3108600EE00B
:103F600007E0174D607905442868216808432860F8
:103F700005E020790544286821688843286070BDE1
:103F80002E2E5C4C69627261726965735C53544D8C
:103F90003332463130785F537464506572697068AB
:103FA0005F4472697665725C7372635C73746D33BF
:103FB00032663130785F657874692E6300000000E6
:103FC0000004014010B50446204601F055FE21468C
:103FD00001A016F0E1FF10BD657261736520646198
:103FE0007465206F6E20616464726573732030782D
:103FF000253036780A00000010B5002001F03CFEA4
:1040000001A016F0C9FF10BD65726173652064617F
:104010007465206F6E2061646472657373203078FC
:104020003030303030300A000EB56A460A210020A8
:1040300001F07CFE694602A016F0AEFF0EBD000046
:10404000726561642064617465206F6E20616464D0
:10405000726573732030783030303030303A2573E9
:104060000A0000000EB507A207CA8DE807006A46DD
:104070000A21002001F0E0FE694605A016F08CFF41
:104080000EBD000059754E656E672041505300000B
:1040900077726974652064617465206F6E20616455
:1040A00064726573732030783030303030303A25A8
:1040B000730A000008B502208DF8020004208DF874
:1040C00003000002ADF800006946124800F030F924
:1040D00018208DF803004FF40070ADF80000694619
:1040E0000C4800F025F904208DF803004002ADF8DB
:1040F00000006946084800F01BF918208DF80300FD
:104100004FF48060ADF800006946034800F010F9F4
:1041100008BD0000000801400010014008B5032060
:104120008DF8020018208DF803000220ADF8000081
:104130006946274800F0FCF80420ADF80000694605
:10414000244800F0F5F84FF40060ADF8000069462F
:10415000214800F0EDF84FF48050ADF800006946BA
:104160001D4800F0E5F84FF40050ADF80000694636
:10417000194800F0DDF804208DF803008020ADF828
:1041800000006946134800F0D3F81020ADF8000095
:1041900069460F4800F0CCF82020ADF800006946D1
:1041A0000B4800F0C5F810208DF803008001ADF831
:1041B00000006946084800F0BBF84FF480610648EB
:1041C00000F026FA4FF48061034800F079FA08BD48
:1041D0000010014000080140000C014010B50446E9
:1041E0000CB1012C00D104E04FF41E7102A003F0C9
:1041F000B9FF1148046010BD2E2E5C4C69627261DB
:10420000726965735C53544D3332463130785F5375
:1042100074645065726970685F4472697665725C37
:104220007372635C73746D3332663130785F6770BC
:10423000696F2E6300000000DC00204270B5054667
:104240000C4600265DB1012D09D0022D07D0032DAB
:1042500005D0042D03D0052D01D0062D00D104E09A
:1042600040F2652121A003F07DFFECB1012C1BD0B1
:10427000022C19D0032C17D0042C15D0052C13D0E8
:10428000062C11D0072C0FD0082C0DD0092C0BD0E8
:104290000A2C09D00B2C07D00C2C05D00D2C03D0E8
:1042A0000E2C01D00F2C00D104E040F266210FA0AB
:1042B00003F058FFA007010F0F2000FA01F61B487A
:1042C000A11050F82100B0431849A21041F8220073
:1042D0000846A11050F82100A107090F05FA01F1C5
:1042E00008431249A21041F8220070BD2E2E5C4CEA
:1042F00069627261726965735C53544D3332463141
:1043000030785F5374645065726970685F44726995
:104310007665725C7372635C73746D3332663130D0
:10432000785F6770696F2E6300000000080001402D
:104330002DE9F05F05460C464FF00009CA460026FD
:104340000027B046B3465948854211D058488542A7
:104350000ED0584885420BD05748854208D0574860
:10436000854205D05648854202D05648854200D144
:1043700003E0B22154A003F0F5FEE078A0B1E078AC
:10438000042811D0E07828280ED0E07848280BD0F7
:10439000E078142808D0E078102805D0E0781C28B0
:1043A00002D0E078182800D103E0B32146A003F042
:1043B000D9FE002010B9208800B103E0B42142A04A
:1043C00003F0D0FEE07800F00F09E07800F0100074
:1043D00080B1A078012805D0A078022802D0A0786A
:1043E000032800D103E0BB2137A003F0BBFEA07877
:1043F00040EA0909207838B3D5F8008000261FE08C
:10440000012000FA06F7208800EA070ABA4516D10B
:10441000B7000F2000FA07FB28EA0B0809FA07F09B
:1044200040EA0808E078282803D10120B0406861FC
:1044300005E0E078482802D10120B0402861761CD0
:10444000082EDDD3C5F800802088FF282BDDD5F8A5
:104450000480002623E006F10800012101FA00F79C
:10446000208800EA070ABA4518D1B7000F2000FAE1
:1044700007FB28EA0B0809FA07F040EA0808E07889
:10448000282803D106F1080081406961E0784828B6
:1044900004D106F10800012181402961761C082E13
:1044A000D9D3C5F80480BDE8F09F000000080140A2
:1044B000000C0140001001400014014000180140B0
:1044C000001C0140002001402E2E5C4C696272618C
:1044D000726965735C53544D3332463130785F53A3
:1044E00074645065726970685F4472697665725C65
:1044F0007372635C73746D3332663130785F6770EA
:10450000696F2E630000000070B505460C4600265A
:104510002848854211D0284885420ED02748854238
:104520000BD02748854208D02648854205D026482A
:10453000854202D02548854200D104E04FF48F71B6
:1045400023A003F00FFE012C25D0022C23D0042C35
:1045500021D0082C1FD0102C1DD0202C1BD0402C7B
:1045600019D0802C17D0B4F5807F14D0B4F5007F1B
:1045700011D0B4F5806F0ED0B4F5006F0BD0B4F548
:10458000805F08D0B4F5005F05D0B4F5804F02D04D
:10459000B4F5004F00D104E040F21F110CA003F06D
:1045A000E1FDA868204008B1012600E00026304661
:1045B00070BD000000080140000C014000100140E7
:1045C0000014014000180140001C0140002001407F
:1045D0002E2E5C4C69627261726965735C53544D36
:1045E0003332463130785F53746450657269706855
:1045F0005F4472697665725C7372635C73746D3369
:1046000032663130785F6770696F2E63000000009A
:1046100070B504460D461348844211D012488442B6
:104620000ED0124884420BD01148844208D0114861
:10463000844205D01048844202D01048844200D100
:1046400004E040F279110EA003F08CFD002008B9BF
:1046500005B104E04FF4BD7109A003F083FD65616D
:1046600070BD000000080140000C01400010014036
:104670000014014000180140001C014000200140CE
:104680002E2E5C4C69627261726965735C53544D85
:104690003332463130785F537464506572697068A4
:1046A0005F4472697665725C7372635C73746D33B8
:1046B00032663130785F6770696F2E6300000000EA
:1046C00070B504460D461348844211D01248844206
:1046D0000ED0124884420BD01148844208D01148B1
:1046E000844205D01048844202D01048844200D150
:1046F00004E040F269110EA003F034FD002008B977
:1047000005B104E04FF4B57109A003F02BFD25615C
:1047100070BD000000080140000C01400010014085
:104720000014014000180140001C0140002001401D
:104730002E2E5C4C69627261726965735C53544DD4
:104740003332463130785F537464506572697068F3
:104750005F4472697665725C7372635C73746D3307
:1047600032663130785F6770696F2E630000000039
:1047700010B501210C48FFF74BFF02210A48FFF753
:1047800047FF02210848FFF743FF0F2000F00EF813
:1047900001210548FFF794FF0F2000F007F80121E1
:1047A0000148FFF735FF10BD000C0140002100E07B
:1047B000491C8142FCD3704710B5002401211148E7
:1047C000FFF77EFF0F20FFF7F1FF02210D48FFF7F3
:1047D00077FF01E0601CC4B202210A48FFF794FE93
:1047E00000F0010008B1FF2CF4DB02210548FFF7BF
:1047F0000FFF01210348FFF70BFF0F20FFF7D6FF44
:1048000010BD0000000C014070B5002500260121FC
:104810001948FFF7FDFE0F20FFF7C8FF02211648D9
:10482000FFF74EFF0F20FFF7C1FF02211248FFF7ED
:1048300047FF00241BE001210F48FFF741FF0F2035
:10484000FFF7B4FF02210C48FFF75EFE00F00106FF
:104850000F20FFF7ABFF46EA4500C5B2012106482D
:10486000FFF7D6FE0F20FFF7A1FF601CC4B2082C93
:10487000E1DB284670BD0000000C014070B5044625
:1048800002211A48FFF7C4FE002521E00121174844
:10489000FFF7BEFE0F20FFF789FFE00920B10221DC
:1048A0001248FFF70DFF03E002211048FFF7B0FEAA
:1048B0000F20FFF77BFF01210C48FFF701FF0F20BE
:1048C000FFF774FF0F20FFF771FF6006040E6D1CE9
:1048D000082DDBD301210548FFF79AFE022103488A
:1048E000FFF7EEFE0F20FFF761FF70BD000C0140E7
:1048F00010B502210C48FFF78BFE02210A48FFF792
:10490000DFFE01210848FFF7DBFE0F20FFF74EFF17
:1049100002210548FFF77CFE0F20FFF747FF01212A
:104920000148FFF775FE10BD000C014010B50221D3
:104930000A48FFF76DFE02210848FFF769FE0F20C5
:10494000FFF734FF01210548FFF7BAFE0F20FFF7FC
:104950002DFF02210148FFF7B3FE10BD000C0140FE
:1049600008B50121082000F0D1FF4FF40070ADF828
:10497000000048208DF8030069460248FFF7D8FC84
:1049800008BD0000000C014000BFFEE7704710B5F5
:1049900000214FF0006000F0BDF810BD38B50446AE
:1049A00020798DF8000000208DF801008DF80200BC
:1049B00001208DF80300684600F002F838BD0000C1
:1049C0002DE9F0410446002500270F26E07810B1BC
:1049D000E078012800D103E0752121A003F0C2FB9B
:1049E0006078102800DA03E076211DA003F0BAFBFE
:1049F000A078102800DA03E0772119A003F0B2FBB9
:104A0000E07800B32348006800F4E060C0F5E0609F
:104A1000050AC5F10407EE40607800FA07F5A078B2
:104A2000304005432D011C4822788554207800F041
:104A30001F010120884021784911890001F1E021FE
:104A4000C1F8000109E0207800F01F010120884032
:104A500012492278521141F82200BDE8F08100008D
:104A60002E2E5C4C69627261726965735C53544DA1
:104A70003332463130785F537464506572697068C0
:104A80005F4472697665725C7372635C6D697363AF
:104A90002E6300000CED00E000E400E080E100E0A7
:104AA00010B50446B4F5E06F0BD0B4F5C06F08D074
:104AB000B4F5A06F05D0B4F5806F02D0B4F5407F97
:104AC00000D103E0632104A003F04CFB0F48204316
:104AD0000F49086010BD00002E2E5C4C69627261A7
:104AE000726965735C53544D3332463130785F538D
:104AF00074645065726970685F4472697665725C4F
:104B00007372635C6D6973632E6300000000FA05C5
:104B10000CED00E070B504460D46B4F1005F02D024
:104B2000B4F1006F00D103E09F2109A003F01AFB4C
:104B30001448854200D203E0A02105A003F012FB37
:104B4000114905EA010020431049086070BD0000CA
:104B50002E2E5C4C69627261726965735C53544DB0
:104B60003332463130785F537464506572697068CF
:104B70005F4472697665725C7372635C6D697363BE
:104B80002E630000FFFF0F0080FFFF1F08ED00E015
:104B900000BF0A48006810F8080C0849096811F8B5
:104BA000041C08440549096801F8080C034800681A
:104BB000001F0249086000BF704700001802002073
:104BC00000BF0A48006850F8080C0849096851F805
:104BD000041C08440549096841F8080C03480068AA
:104BE000001F0249086000BF704700001802002043
:104BF00000BF0A48006830F8080C0849096831F815
:104C0000041C084400B20549096821F8080C03484F
:104C10000068001F0149086000BF704718020020AB
:104C200000BF0A48006810F8080C0849096811F824
:104C3000041C08400549096801F8080C034800688D
:104C4000001F0249086000BF7047000018020020E2
:104C500000BF0A48006850F8080C0849096851F874
:104C6000041C08400549096841F8080C034800681D
:104C7000001F0249086000BF7047000018020020B2
:104C800000BF0A48006830F9080C0849096831F982
:104C9000041C08400549096821F8080C034800680D
:104CA000001F0249086000BF704700001802002082
:104CB0000448006810F8040CC0430249096801F870
:104CC000040C7047180200200448006850F8040CD7
:104CD000C0430249096841F8040C704718020020DB
:104CE0000448006830F9040CC0430249096821F8FF
:104CF000040C70471802002010B5A4B0DF4800680B
:104D000000781390DD480068401CDC4908600020F2
:104D10001290DB480068001FD949086011E0D848AC
:104D2000006802681398401E1299401A14A941F8AD
:104D30002020D3480068001FD14908601298401C09
:104D40001290DDE912018842E9D3CD48006800687D
:104D50001190139811286ED2DFE800F0090E141D8F
:104D6000293747596E849CB6D2F4F2F1F000002046
:104D700011998847109074E114980F901199884701
:104D800010906EE115980F9014980E90119A0F994B
:104D90009047109065E116980F9015980E90149812
:104DA0000D90119BDDE90E129847109059E117986C
:104DB0000F9016980E9015980D9014980C90119CC9
:104DC0000DA90EC9A04710904BE1189800901798B4
:104DD0000F9016980E9015980D9014980C90119CA9
:104DE0000DA90EC9A04710903BE1DDE91801CDE9FE
:104DF000000117980F9016980E9015980D90149822
:104E00000C90119C0DA90EC9A047109029E1DDE975
:104E100019211898CDE90121009017980F90169844
:104E20000E9015980D9014980C90119C0DA90EC918
:104E3000A047109015E111E1DDE9193218991B988E
:104E4000CDE901320091039017980F9016980E90BB
:104E500015980D9014980C90119C0DA90EC9A0479F
:104E60001090FEE0DDE91923DDE91B10CDE90123F7
:104E7000CDE903101898009017980F9016980E908F
:104E800015980D9014980C90119C0DA90EC9A0476F
:104E90001090E6E0DDE91A23DDE91C10CDE90223DC
:104EA000CDE90410DDE91801CDE9000117980F9054
:104EB00016980E9015980D9014980C90119C0DA9B1
:104EC0000EC9A0471090CCE0DDE91C321B991E985A
:104ED000CDE9043203910690DDE919211898CDE956
:104EE0000121009017980F9016980E9015980D902C
:104EF00014980C90119C0DA90EC9A0471090B0E019
:104F0000DDE91C23DDE91E10CDE90423CDE90610FF
:104F1000DDE9193218991B98CDE90132009103900F
:104F200017980F9016980E9015980D9014980C9055
:104F3000119C0DA90EC9A047109092E068E043E0D3
:104F400020E0FFE7DDE91E321D992098CDE9063209
:104F500005910890DDE91923DDE91B01CDE9012365
:104F6000CDE903011898009017980F9016980E90AD
:104F700015980D9014980C90119C0DA90EC9A0477E
:104F800010906EE0DDE91E13DDE92002CDE9061385
:104F9000CDE90802DDE91A23DDE91C01CDE9022390
:104FA000CDE90401DDE91801CDE9000117980F9062
:104FB00016980E9015980D9014980C90119C0DA9B0
:104FC0000EC9A04710904CE0DDE92031229A1F98CD
:104FD000CDE908310A920790DDE91B23DDE91D01C7
:104FE000CDE90323CDE90501DDE919211898CDE9C3
:104FF0000121009017980F9016980E9015980D901B
:1050000014980C90119C0DA90EC9A047109028E08F
:10501000DDE9213220992398CDE9093208910B90DE
:10502000DDE91D321C991F98CDE9053204910790E6
:10503000DDE91823DDE91A10CDE90023CDE90210DE
:1050400017980F9016980E9015980D9014980C9034
:10505000119C0DA90EC9A047109002E000201090ED
:1050600000BF00BF0649109809680860044800683E
:10507000001D0349086024B010BD00001C02002080
:105080001802002000BF0A48006810F8080C084900
:10509000096811F8041C90FBF1F00549096801F852
:1050A000080C03480068001F0149086000BF7047F2
:1050B0001802002000BF0A48006850F8080C084990
:1050C000096851F8041C90FBF1F00549096841F8A2
:1050D000080C03480068001F0149086000BF7047C2
:1050E0001802002000BF0B48006830F9080C09497D
:1050F000096831F9041C90FBF1F000B20549096818
:1051000021F8080C03480068001F0249086000BF2E
:10511000704700001802002008480068007808491D
:105120000968087006480068001D054908600348C2
:105130000068401C01490860704700001C02002004
:10514000180200200F48006800780E490968497865
:1051500040EA01200B490968897840EA0140094981
:105160000968C97840EA016007490968086006488B
:105170000068001D0449086002480068001D0149DC
:10518000086070471C0200201802002010490968BE
:1051900009780F4A1268527841EA02210C4A1268D3
:1051A000927841EA02410A4A1268D27841EA0260E2
:1051B0000178084A1268117006490968091D054AF4
:1051C000116003490968091D014A11607047000018
:1051D0001C020020180200200449096851F8040C40
:1051E0000178024A126802F8041C70471802002075
:1051F0001049096809780F4A1268527841EA022179
:105200000C4A1268927841EA02410A4A1268D2783E
:1052100041EA0260084A016812681160064909689B
:10522000091D054A116003490968091D014A1160F9
:10523000704700001C020020180200200449096881
:1052400051F8040C024A0168126842F8041C7047C5
:10525000180200201049096809780F4A126852782C
:1052600041EA02210C4A1268927841EA02410A4A54
:105270001268D27841EA02600188084A12681180F7
:1052800006490968091D054A116003490968091D95
:10529000014A1160704700001C0200201802002023
:1052A0000449096851F8040C0188024A126822F87E
:1052B000041C7047180200200B48006800780A4957
:1052C0000968497840EA012000B208490968088065
:1052D00006480068001D0549086003480068801CF6
:1052E00001490860704700001C02002018020020DD
:1052F00000BF0B48006810F8080C0949096811F84C
:10530000041C90FBF1F201FB12000549096801F849
:10531000080C03480068001F0149086000BF70477F
:105320001802002000BF0B48006850F8080C09491B
:10533000096851F8041C90FBF1F201FB12000549C9
:10534000096841F8080C03480068001F014908601B
:1053500000BF70471802002000BF0B48006830F9FA
:10536000080C0949096831F9041C90FBF1F201FBB2
:1053700012000549096821F8080C03480068001F5D
:105380000149086000BF70471802002000BF0A48AA
:10539000006810F8080C0849096811F8041C484313
:1053A0000549096801F8080C03480068001F024914
:1053B000086000BF704700001802002000BF0A48C4
:1053C000006850F8080C0849096851F8041C484363
:1053D0000549096841F8080C03480068001F0249A4
:1053E000086000BF704700001802002000BF0A4894
:1053F000006830F8080C0849096831F8041C484373
:1054000000B20549096821F8080C03480068001F2C
:105410000149086000BF7047180200207047000073
:1054200000BF0A48006810F8080C0849096811F81C
:10543000041C08430549096801F8080C0348006882
:10544000001F0249086000BF7047000018020020DA
:1054500000BF0A48006850F8080C0849096851F86C
:10546000041C08430549096841F8080C0348006812
:10547000001F0249086000BF7047000018020020AA
:1054800000BF0A48006830F9080C0849096831F97A
:10549000041C08430549096821F8080C0348006802
:1054A000001F0249086000BF70470000180200207A
:1054B00002480068001F0149086070471802002078
:1054C00000BF0A48006810F8080C0849096811F87C
:1054D000041C88400549096801F8080C0348006865
:1054E000001F0249086000BF70470000180200203A
:1054F00000BF0A48006850F8080C0849096811F80C
:10550000041C88400549096841F8080C03480068F4
:10551000001F0249086000BF704700001802002009
:1055200000BF0A48006830F8080C0849096811F8FB
:10553000041C884000B20549096821F8080C03489A
:105540000068001F0149086000BF70471802002072
:1055500000BF0A48006810F8080C0849096811F8EB
:10556000041C08410549096801F8080C0348006853
:10557000001F0249086000BF7047000018020020A9
:1055800000BF0A48006850F8080C0849096811F87B
:10559000041C08410549096841F8080C03480068E3
:1055A000001F0249086000BF704700001802002079
:1055B00000BF0A48006830F9080C0849096811F86A
:1055C000041C08410549096821F8080C03480068D3
:1055D000001F0249086000BF704700001802002049
:1055E0000748006810F8040C0549096851F8081CC0
:1055F000087003480068001F0149086070470000F8
:10560000180200200748006850F8040C0549096892
:1056100051F8081C086003480068001F0149086031
:1056200070470000180200200748006830F8040C9A
:105630000549096851F8081C088003480068001FE4
:1056400001490860704700001802002000BF0A48A6
:10565000006810F8080C0849096811F8041C401A81
:105660000549096801F8080C03480068001F024951
:10567000086000BF704700001802002000BF0A4801
:10568000006850F8080C0849096851F8041C401AD1
:105690000549096841F8080C03480068001F0249E1
:1056A000086000BF704700001802002000BF0A48D1
:1056B000006830F8080C0849096831F8041C401AE1
:1056C00000B20549096821F8080C03480068001F6A
:1056D0000149086000BF70471802002000BF0A4857
:1056E000006810F8080C0849096811F8041C4840C3
:1056F0000549096801F8080C03480068001F0249C1
:10570000086000BF704700001802002000BF0A4870
:10571000006850F8080C0849096851F8041C484012
:105720000549096841F8080C03480068001F024950
:10573000086000BF704700001802002000BF0A4840
:10574000006830F9080C0849096831F9041C484020
:105750000549096821F8080C03480068001F024940
:10576000086000BF704700001802002070B50446B2
:105770000D461048204008B904B104E040F22B4126
:105780000DA002F0EFFC0DB1012D00D104E040F2BC
:105790002C4109A002F0E6FC2DB1164840692043D7
:1057A0001449486104E013484069A0431149486125
:1057B00070BD0000A82FFEFF2E2E5C4C6962726146
:1057C000726965735C53544D3332463130785F53A0
:1057D00074645065726970685F4472697665725C62
:1057E0007372635C73746D3332663130785F7263E9
:1057F000632E63000010024070B504460D4624F489
:10580000A04008B904B104E040F284410CA002F0C9
:10581000A9FC0DB1012D00D104E040F2854108A0A2
:1058200002F0A0FC2DB11548806A2043134988621C
:1058300004E01248806AA0431049886270BD0000ED
:105840002E2E5C4C69627261726965735C53544DB3
:105850003332463130785F537464506572697068D2
:105860005F4472697665725C7372635C73746D33E6
:1058700032663130785F7263632E6300001002403D
:1058800070B504460D461048204008B904B104E044
:1058900040F269410DA002F065FC0DB1012D00D16F
:1058A00004E040F26A4109A002F05CFC2DB1164808
:1058B000C06920431449C86104E01348C069A0438B
:1058C0001149C86170BD0000003601812E2E5C4C6C
:1058D00069627261726965735C53544D333246314B
:1058E00030785F5374645065726970685F447269A0
:1058F0007665725C7372635C73746D3332663130DB
:10590000785F7263632E63000010024070B5044636
:105910000D461048204008B904B104E040F24A4165
:105920000DA002F01FFC0DB1012D00D104E040F2EA
:105930004B4109A002F016FC2DB1164880692043A6
:105940001449886104E013488069A04311498861C3
:1059500070BD00000200C0FF2E2E5C4C69627261B7
:10596000726965735C53544D3332463130785F53FE
:1059700074645065726970685F4472697665725CC0
:105980007372635C73746D3332663130785F726347
:10599000632E63000010024010B501210520FFF7BF
:1059A000B5FF01218803FFF7B1FF01211120FFF7A7
:1059B000ADFF0121C804FFF763FF10BD10B5012141
:1059C0004FF4E030FFF7D2FE01217D20FFF79EFF6C
:1059D0000120FEF703FC10BD2DE9F041002100225B
:1059E000002500230026002400278C46DFF8608174
:1059F000D8F8048008F00C0121B1042907D0082947
:105A000059D109E0DFF84C81C0F8008058E0DFF898
:105A10004881C0F8008053E0DFF83481D8F8048072
:105A200008F47012DFF82881D8F8048008F4803573
:105A3000920C0D2A01D0921C00E0062235B9DFF845
:105A40001C8102FB08F8C0F8008033E0DFF8008119
:105A5000D8F82C8008F48036DFF8F480D8F82C8051
:105A600008F00F0808F1010446B9DFF8EC80B8FB34
:105A7000F4F808FB02F8C0F800801BE0DFF8D080E3
:105A8000D8F82C80C8F3031808F10107DFF8C080AC
:105A9000D8F82C80C8F3032808F1020CDFF8B8808E
:105AA000B8FBF7F808FB0CF8B8FBF4F808FB02F8B1
:105AB000C0F8008004E0DFF89C80C0F8008000BFE0
:105AC00000BFDFF88C80D8F8048008F0F0010909E5
:105AD000DFF88C8018F80130D0F8008028FA03F83D
